{
  "_format": "hh-sol-artifact-1",
  "contractName": "LBPool",
  "sourceName": "contracts/lbp/LBPool.sol",
  "abi": [
    {
      "inputs": [
        {
          "components": [
            {
              "internalType": "string",
              "name": "name",
              "type": "string"
            },
            {
              "internalType": "string",
              "name": "symbol",
              "type": "string"
            },
            {
              "internalType": "address",
              "name": "owner",
              "type": "address"
            },
            {
              "internalType": "contract IERC20",
              "name": "projectToken",
              "type": "address"
            },
            {
              "internalType": "contract IERC20",
              "name": "reserveToken",
              "type": "address"
            },
            {
              "internalType": "uint256",
              "name": "startTime",
              "type": "uint256"
            },
            {
              "internalType": "uint256",
              "name": "endTime",
              "type": "uint256"
            },
            {
              "internalType": "bool",
              "name": "blockProjectTokenSwapsIn",
              "type": "bool"
            }
          ],
          "internalType": "struct LBPCommonParams",
          "name": "lbpCommonParams",
          "type": "tuple"
        },
        {
          "components": [
            {
              "internalType": "uint256",
              "name": "projectTokenStartWeight",
              "type": "uint256"
            },
            {
              "internalType": "uint256",
              "name": "reserveTokenStartWeight",
              "type": "uint256"
            },
            {
              "internalType": "uint256",
              "name": "projectTokenEndWeight",
              "type": "uint256"
            },
            {
              "internalType": "uint256",
              "name": "reserveTokenEndWeight",
              "type": "uint256"
            },
            {
              "internalType": "uint256",
              "name": "reserveTokenVirtualBalance",
              "type": "uint256"
            }
          ],
          "internalType": "struct LBPParams",
          "name": "lbpParams",
          "type": "tuple"
        },
        {
          "components": [
            {
              "internalType": "contract IVault",
              "name": "vault",
              "type": "address"
            },
            {
              "internalType": "address",
              "name": "trustedRouter",
              "type": "address"
            },
            {
              "internalType": "string",
              "name": "poolVersion",
              "type": "string"
            }
          ],
          "internalType": "struct FactoryParams",
          "name": "factoryParams",
          "type": "tuple"
        }
      ],
      "stateMutability": "nonpayable",
      "type": "constructor"
    },
    {
      "inputs": [],
      "name": "AddingLiquidityNotAllowed",
      "type": "error"
    },
    {
      "inputs": [],
      "name": "BaseOutOfBounds",
      "type": "error"
    },
    {
      "inputs": [],
      "name": "ECDSAInvalidSignature",
      "type": "error"
    },
    {
      "inputs": [
        {
          "internalType": "uint256",
          "name": "length",
          "type": "uint256"
        }
      ],
      "name": "ECDSAInvalidSignatureLength",
      "type": "error"
    },
    {
      "inputs": [
        {
          "internalType": "bytes32",
          "name": "s",
          "type": "bytes32"
        }
      ],
      "name": "ECDSAInvalidSignatureS",
      "type": "error"
    },
    {
      "inputs": [
        {
          "internalType": "uint256",
          "name": "deadline",
          "type": "uint256"
        }
      ],
      "name": "ERC2612ExpiredSignature",
      "type": "error"
    },
    {
      "inputs": [
        {
          "internalType": "address",
          "name": "signer",
          "type": "address"
        },
        {
          "internalType": "address",
          "name": "owner",
          "type": "address"
        }
      ],
      "name": "ERC2612InvalidSigner",
      "type": "error"
    },
    {
      "inputs": [],
      "name": "ExponentOutOfBounds",
      "type": "error"
    },
    {
      "inputs": [],
      "name": "InputLengthMismatch",
      "type": "error"
    },
    {
      "inputs": [
        {
          "internalType": "uint256",
          "name": "reserveTokenAmountOut",
          "type": "uint256"
        },
        {
          "internalType": "uint256",
          "name": "reserveTokenRealBalance",
          "type": "uint256"
        }
      ],
      "name": "InsufficientRealReserveBalance",
      "type": "error"
    },
    {
      "inputs": [
        {
          "internalType": "address",
          "name": "account",
          "type": "address"
        },
        {
          "internalType": "uint256",
          "name": "currentNonce",
          "type": "uint256"
        }
      ],
      "name": "InvalidAccountNonce",
      "type": "error"
    },
    {
      "inputs": [],
      "name": "InvalidExponent",
      "type": "error"
    },
    {
      "inputs": [],
      "name": "InvalidMinTokenBalance",
      "type": "error"
    },
    {
      "inputs": [],
      "name": "InvalidOwner",
      "type": "error"
    },
    {
      "inputs": [],
      "name": "InvalidProjectToken",
      "type": "error"
    },
    {
      "inputs": [],
      "name": "InvalidReserveToken",
      "type": "error"
    },
    {
      "inputs": [],
      "name": "InvalidShortString",
      "type": "error"
    },
    {
      "inputs": [
        {
          "internalType": "uint256",
          "name": "resolvedStartTime",
          "type": "uint256"
        },
        {
          "internalType": "uint256",
          "name": "endTime",
          "type": "uint256"
        }
      ],
      "name": "InvalidStartTime",
      "type": "error"
    },
    {
      "inputs": [],
      "name": "InvalidToken",
      "type": "error"
    },
    {
      "inputs": [],
      "name": "InvalidTokenConfiguration",
      "type": "error"
    },
    {
      "inputs": [],
      "name": "MaxInRatio",
      "type": "error"
    },
    {
      "inputs": [],
      "name": "MaxOutRatio",
      "type": "error"
    },
    {
      "inputs": [],
      "name": "MinWeight",
      "type": "error"
    },
    {
      "inputs": [],
      "name": "NormalizedWeightInvariant",
      "type": "error"
    },
    {
      "inputs": [],
      "name": "NotImplemented",
      "type": "error"
    },
    {
      "inputs": [
        {
          "internalType": "address",
          "name": "owner",
          "type": "address"
        }
      ],
      "name": "OwnableInvalidOwner",
      "type": "error"
    },
    {
      "inputs": [
        {
          "internalType": "address",
          "name": "account",
          "type": "address"
        }
      ],
      "name": "OwnableUnauthorizedAccount",
      "type": "error"
    },
    {
      "inputs": [],
      "name": "ProductOutOfBounds",
      "type": "error"
    },
    {
      "inputs": [],
      "name": "RemovingLiquidityNotAllowed",
      "type": "error"
    },
    {
      "inputs": [],
      "name": "SeedlessLBPInitializationWithNonZeroReserve",
      "type": "error"
    },
    {
      "inputs": [
        {
          "internalType": "address",
          "name": "sender",
          "type": "address"
        }
      ],
      "name": "SenderIsNotVault",
      "type": "error"
    },
    {
      "inputs": [
        {
          "internalType": "string",
          "name": "str",
          "type": "string"
        }
      ],
      "name": "StringTooLong",
      "type": "error"
    },
    {
      "inputs": [],
      "name": "SwapOfProjectTokenIn",
      "type": "error"
    },
    {
      "inputs": [],
      "name": "SwapsDisabled",
      "type": "error"
    },
    {
      "inputs": [
        {
          "internalType": "uint256",
          "name": "tokenIndex",
          "type": "uint256"
        },
        {
          "internalType": "uint256",
          "name": "actualBalance",
          "type": "uint256"
        },
        {
          "internalType": "uint256",
          "name": "minBalance",
          "type": "uint256"
        }
      ],
      "name": "TokenBalanceBelowMin",
      "type": "error"
    },
    {
      "inputs": [],
      "name": "TokensMustBeDifferent",
      "type": "error"
    },
    {
      "inputs": [],
      "name": "UnsupportedOperation",
      "type": "error"
    },
    {
      "inputs": [],
      "name": "WeightedPoolBptRateUnsupported",
      "type": "error"
    },
    {
      "inputs": [],
      "name": "ZeroDivision",
      "type": "error"
    },
    {
      "inputs": [],
      "name": "ZeroInvariant",
      "type": "error"
    },
    {
      "anonymous": false,
      "inputs": [
        {
          "indexed": true,
          "internalType": "address",
          "name": "owner",
          "type": "address"
        },
        {
          "indexed": true,
          "internalType": "address",
          "name": "spender",
          "type": "address"
        },
        {
          "indexed": false,
          "internalType": "uint256",
          "name": "value",
          "type": "uint256"
        }
      ],
      "name": "Approval",
      "type": "event"
    },
    {
      "anonymous": false,
      "inputs": [],
      "name": "EIP712DomainChanged",
      "type": "event"
    },
    {
      "anonymous": false,
      "inputs": [
        {
          "indexed": false,
          "internalType": "uint256",
          "name": "startTime",
          "type": "uint256"
        },
        {
          "indexed": false,
          "internalType": "uint256",
          "name": "endTime",
          "type": "uint256"
        },
        {
          "indexed": false,
          "internalType": "uint256[]",
          "name": "startWeights",
          "type": "uint256[]"
        },
        {
          "indexed": false,
          "internalType": "uint256[]",
          "name": "endWeights",
          "type": "uint256[]"
        }
      ],
      "name": "GradualWeightUpdateScheduled",
      "type": "event"
    },
    {
      "anonymous": false,
      "inputs": [
        {
          "indexed": true,
          "internalType": "address",
          "name": "previousOwner",
          "type": "address"
        },
        {
          "indexed": true,
          "internalType": "address",
          "name": "newOwner",
          "type": "address"
        }
      ],
      "name": "OwnershipTransferStarted",
      "type": "event"
    },
    {
      "anonymous": false,
      "inputs": [
        {
          "indexed": true,
          "internalType": "address",
          "name": "previousOwner",
          "type": "address"
        },
        {
          "indexed": true,
          "internalType": "address",
          "name": "newOwner",
          "type": "address"
        }
      ],
      "name": "OwnershipTransferred",
      "type": "event"
    },
    {
      "anonymous": false,
      "inputs": [
        {
          "indexed": true,
          "internalType": "address",
          "name": "from",
          "type": "address"
        },
        {
          "indexed": true,
          "internalType": "address",
          "name": "to",
          "type": "address"
        },
        {
          "indexed": false,
          "internalType": "uint256",
          "name": "value",
          "type": "uint256"
        }
      ],
      "name": "Transfer",
      "type": "event"
    },
    {
      "inputs": [],
      "name": "DOMAIN_SEPARATOR",
      "outputs": [
        {
          "internalType": "bytes32",
          "name": "",
          "type": "bytes32"
        }
      ],
      "stateMutability": "view",
      "type": "function"
    },
    {
      "inputs": [],
      "name": "PERMIT_TYPEHASH",
      "outputs": [
        {
          "internalType": "bytes32",
          "name": "",
          "type": "bytes32"
        }
      ],
      "stateMutability": "view",
      "type": "function"
    },
    {
      "inputs": [],
      "name": "acceptOwnership",
      "outputs": [],
      "stateMutability": "nonpayable",
      "type": "function"
    },
    {
      "inputs": [
        {
          "internalType": "address",
          "name": "owner",
          "type": "address"
        },
        {
          "internalType": "address",
          "name": "spender",
          "type": "address"
        }
      ],
      "name": "allowance",
      "outputs": [
        {
          "internalType": "uint256",
          "name": "",
          "type": "uint256"
        }
      ],
      "stateMutability": "view",
      "type": "function"
    },
    {
      "inputs": [
        {
          "internalType": "address",
          "name": "spender",
          "type": "address"
        },
        {
          "internalType": "uint256",
          "name": "amount",
          "type": "uint256"
        }
      ],
      "name": "approve",
      "outputs": [
        {
          "internalType": "bool",
          "name": "",
          "type": "bool"
        }
      ],
      "stateMutability": "nonpayable",
      "type": "function"
    },
    {
      "inputs": [
        {
          "internalType": "address",
          "name": "account",
          "type": "address"
        }
      ],
      "name": "balanceOf",
      "outputs": [
        {
          "internalType": "uint256",
          "name": "",
          "type": "uint256"
        }
      ],
      "stateMutability": "view",
      "type": "function"
    },
    {
      "inputs": [
        {
          "internalType": "uint256[]",
          "name": "",
          "type": "uint256[]"
        },
        {
          "internalType": "uint256",
          "name": "",
          "type": "uint256"
        },
        {
          "internalType": "uint256",
          "name": "",
          "type": "uint256"
        }
      ],
      "name": "computeBalance",
      "outputs": [
        {
          "internalType": "uint256",
          "name": "",
          "type": "uint256"
        }
      ],
      "stateMutability": "pure",
      "type": "function"
    },
    {
      "inputs": [
        {
          "internalType": "uint256[]",
          "name": "balancesLiveScaled18",
          "type": "uint256[]"
        },
        {
          "internalType": "enum Rounding",
          "name": "rounding",
          "type": "uint8"
        }
      ],
      "name": "computeInvariant",
      "outputs": [
        {
          "internalType": "uint256",
          "name": "invariant",
          "type": "uint256"
        }
      ],
      "stateMutability": "view",
      "type": "function"
    },
    {
      "inputs": [],
      "name": "decimals",
      "outputs": [
        {
          "internalType": "uint8",
          "name": "",
          "type": "uint8"
        }
      ],
      "stateMutability": "pure",
      "type": "function"
    },
    {
      "inputs": [],
      "name": "eip712Domain",
      "outputs": [
        {
          "internalType": "bytes1",
          "name": "fields",
          "type": "bytes1"
        },
        {
          "internalType": "string",
          "name": "name",
          "type": "string"
        },
        {
          "internalType": "string",
          "name": "version",
          "type": "string"
        },
        {
          "internalType": "uint256",
          "name": "chainId",
          "type": "uint256"
        },
        {
          "internalType": "address",
          "name": "verifyingContract",
          "type": "address"
        },
        {
          "internalType": "bytes32",
          "name": "salt",
          "type": "bytes32"
        },
        {
          "internalType": "uint256[]",
          "name": "extensions",
          "type": "uint256[]"
        }
      ],
      "stateMutability": "view",
      "type": "function"
    },
    {
      "inputs": [
        {
          "internalType": "address",
          "name": "owner",
          "type": "address"
        },
        {
          "internalType": "address",
          "name": "spender",
          "type": "address"
        },
        {
          "internalType": "uint256",
          "name": "amount",
          "type": "uint256"
        }
      ],
      "name": "emitApproval",
      "outputs": [],
      "stateMutability": "nonpayable",
      "type": "function"
    },
    {
      "inputs": [
        {
          "internalType": "address",
          "name": "from",
          "type": "address"
        },
        {
          "internalType": "address",
          "name": "to",
          "type": "address"
        },
        {
          "internalType": "uint256",
          "name": "amount",
          "type": "uint256"
        }
      ],
      "name": "emitTransfer",
      "outputs": [],
      "stateMutability": "nonpayable",
      "type": "function"
    },
    {
      "inputs": [],
      "name": "getAggregateFeePercentages",
      "outputs": [
        {
          "internalType": "uint256",
          "name": "aggregateSwapFeePercentage",
          "type": "uint256"
        },
        {
          "internalType": "uint256",
          "name": "aggregateYieldFeePercentage",
          "type": "uint256"
        }
      ],
      "stateMutability": "view",
      "type": "function"
    },
    {
      "inputs": [],
      "name": "getCurrentLiveBalances",
      "outputs": [
        {
          "internalType": "uint256[]",
          "name": "balancesLiveScaled18",
          "type": "uint256[]"
        }
      ],
      "stateMutability": "view",
      "type": "function"
    },
    {
      "inputs": [],
      "name": "getGradualWeightUpdateParams",
      "outputs": [
        {
          "internalType": "uint256",
          "name": "startTime",
          "type": "uint256"
        },
        {
          "internalType": "uint256",
          "name": "endTime",
          "type": "uint256"
        },
        {
          "internalType": "uint256[]",
          "name": "startWeights",
          "type": "uint256[]"
        },
        {
          "internalType": "uint256[]",
          "name": "endWeights",
          "type": "uint256[]"
        }
      ],
      "stateMutability": "view",
      "type": "function"
    },
    {
      "inputs": [],
      "name": "getHookFlags",
      "outputs": [
        {
          "components": [
            {
              "internalType": "bool",
              "name": "enableHookAdjustedAmounts",
              "type": "bool"
            },
            {
              "internalType": "bool",
              "name": "shouldCallBeforeInitialize",
              "type": "bool"
            },
            {
              "internalType": "bool",
              "name": "shouldCallAfterInitialize",
              "type": "bool"
            },
            {
              "internalType": "bool",
              "name": "shouldCallComputeDynamicSwapFee",
              "type": "bool"
            },
            {
              "internalType": "bool",
              "name": "shouldCallBeforeSwap",
              "type": "bool"
            },
            {
              "internalType": "bool",
              "name": "shouldCallAfterSwap",
              "type": "bool"
            },
            {
              "internalType": "bool",
              "name": "shouldCallBeforeAddLiquidity",
              "type": "bool"
            },
            {
              "internalType": "bool",
              "name": "shouldCallAfterAddLiquidity",
              "type": "bool"
            },
            {
              "internalType": "bool",
              "name": "shouldCallBeforeRemoveLiquidity",
              "type": "bool"
            },
            {
              "internalType": "bool",
              "name": "shouldCallAfterRemoveLiquidity",
              "type": "bool"
            }
          ],
          "internalType": "struct HookFlags",
          "name": "hookFlags",
          "type": "tuple"
        }
      ],
      "stateMutability": "pure",
      "type": "function"
    },
    {
      "inputs": [],
      "name": "getLBPoolDynamicData",
      "outputs": [
        {
          "components": [
            {
              "internalType": "uint256[]",
              "name": "balancesLiveScaled18",
              "type": "uint256[]"
            },
            {
              "internalType": "uint256",
              "name": "staticSwapFeePercentage",
              "type": "uint256"
            },
            {
              "internalType": "uint256",
              "name": "totalSupply",
              "type": "uint256"
            },
            {
              "internalType": "bool",
              "name": "isPoolInitialized",
              "type": "bool"
            },
            {
              "internalType": "bool",
              "name": "isPoolPaused",
              "type": "bool"
            },
            {
              "internalType": "bool",
              "name": "isPoolInRecoveryMode",
              "type": "bool"
            },
            {
              "internalType": "bool",
              "name": "isSwapEnabled",
              "type": "bool"
            },
            {
              "internalType": "uint256[]",
              "name": "normalizedWeights",
              "type": "uint256[]"
            }
          ],
          "internalType": "struct LBPoolDynamicData",
          "name": "data",
          "type": "tuple"
        }
      ],
      "stateMutability": "view",
      "type": "function"
    },
    {
      "inputs": [],
      "name": "getLBPoolImmutableData",
      "outputs": [
        {
          "components": [
            {
              "internalType": "contract IERC20[]",
              "name": "tokens",
              "type": "address[]"
            },
            {
              "internalType": "uint256[]",
              "name": "decimalScalingFactors",
              "type": "uint256[]"
            },
            {
              "internalType": "uint256",
              "name": "startTime",
              "type": "uint256"
            },
            {
              "internalType": "uint256",
              "name": "endTime",
              "type": "uint256"
            },
            {
              "internalType": "uint256",
              "name": "projectTokenIndex",
              "type": "uint256"
            },
            {
              "internalType": "uint256",
              "name": "reserveTokenIndex",
              "type": "uint256"
            },
            {
              "internalType": "bool",
              "name": "isProjectTokenSwapInBlocked",
              "type": "bool"
            },
            {
              "internalType": "uint256[]",
              "name": "startWeights",
              "type": "uint256[]"
            },
            {
              "internalType": "uint256[]",
              "name": "endWeights",
              "type": "uint256[]"
            },
            {
              "internalType": "uint256",
              "name": "reserveTokenVirtualBalance",
              "type": "uint256"
            }
          ],
          "internalType": "struct LBPoolImmutableData",
          "name": "data",
          "type": "tuple"
        }
      ],
      "stateMutability": "view",
      "type": "function"
    },
    {
      "inputs": [],
      "name": "getMaximumInvariantRatio",
      "outputs": [
        {
          "internalType": "uint256",
          "name": "",
          "type": "uint256"
        }
      ],
      "stateMutability": "pure",
      "type": "function"
    },
    {
      "inputs": [],
      "name": "getMaximumSwapFeePercentage",
      "outputs": [
        {
          "internalType": "uint256",
          "name": "",
          "type": "uint256"
        }
      ],
      "stateMutability": "pure",
      "type": "function"
    },
    {
      "inputs": [],
      "name": "getMinTokenBalances",
      "outputs": [
        {
          "internalType": "uint256[]",
          "name": "minTokenBalances",
          "type": "uint256[]"
        }
      ],
      "stateMutability": "view",
      "type": "function"
    },
    {
      "inputs": [],
      "name": "getMinimumInvariantRatio",
      "outputs": [
        {
          "internalType": "uint256",
          "name": "",
          "type": "uint256"
        }
      ],
      "stateMutability": "pure",
      "type": "function"
    },
    {
      "inputs": [],
      "name": "getMinimumSwapFeePercentage",
      "outputs": [
        {
          "internalType": "uint256",
          "name": "",
          "type": "uint256"
        }
      ],
      "stateMutability": "pure",
      "type": "function"
    },
    {
      "inputs": [],
      "name": "getNormalizedWeights",
      "outputs": [
        {
          "internalType": "uint256[]",
          "name": "",
          "type": "uint256[]"
        }
      ],
      "stateMutability": "view",
      "type": "function"
    },
    {
      "inputs": [],
      "name": "getProjectToken",
      "outputs": [
        {
          "internalType": "contract IERC20",
          "name": "",
          "type": "address"
        }
      ],
      "stateMutability": "view",
      "type": "function"
    },
    {
      "inputs": [],
      "name": "getRate",
      "outputs": [
        {
          "internalType": "uint256",
          "name": "",
          "type": "uint256"
        }
      ],
      "stateMutability": "pure",
      "type": "function"
    },
    {
      "inputs": [],
      "name": "getReserveToken",
      "outputs": [
        {
          "internalType": "contract IERC20",
          "name": "",
          "type": "address"
        }
      ],
      "stateMutability": "view",
      "type": "function"
    },
    {
      "inputs": [],
      "name": "getReserveTokenVirtualBalance",
      "outputs": [
        {
          "internalType": "uint256",
          "name": "",
          "type": "uint256"
        },
        {
          "internalType": "uint256",
          "name": "",
          "type": "uint256"
        }
      ],
      "stateMutability": "view",
      "type": "function"
    },
    {
      "inputs": [],
      "name": "getStaticSwapFeePercentage",
      "outputs": [
        {
          "internalType": "uint256",
          "name": "",
          "type": "uint256"
        }
      ],
      "stateMutability": "view",
      "type": "function"
    },
    {
      "inputs": [],
      "name": "getTokenIndices",
      "outputs": [
        {
          "internalType": "uint256",
          "name": "",
          "type": "uint256"
        },
        {
          "internalType": "uint256",
          "name": "",
          "type": "uint256"
        }
      ],
      "stateMutability": "view",
      "type": "function"
    },
    {
      "inputs": [],
      "name": "getTokenInfo",
      "outputs": [
        {
          "internalType": "contract IERC20[]",
          "name": "tokens",
          "type": "address[]"
        },
        {
          "components": [
            {
              "internalType": "enum TokenType",
              "name": "tokenType",
              "type": "uint8"
            },
            {
              "internalType": "contract IRateProvider",
              "name": "rateProvider",
              "type": "address"
            },
            {
              "internalType": "bool",
              "name": "paysYieldFees",
              "type": "bool"
            }
          ],
          "internalType": "struct TokenInfo[]",
          "name": "tokenInfo",
          "type": "tuple[]"
        },
        {
          "internalType": "uint256[]",
          "name": "balancesRaw",
          "type": "uint256[]"
        },
        {
          "internalType": "uint256[]",
          "name": "lastBalancesLiveScaled18",
          "type": "uint256[]"
        }
      ],
      "stateMutability": "view",
      "type": "function"
    },
    {
      "inputs": [],
      "name": "getTokens",
      "outputs": [
        {
          "internalType": "contract IERC20[]",
          "name": "tokens",
          "type": "address[]"
        }
      ],
      "stateMutability": "view",
      "type": "function"
    },
    {
      "inputs": [],
      "name": "getTrustedRouter",
      "outputs": [
        {
          "internalType": "address",
          "name": "",
          "type": "address"
        }
      ],
      "stateMutability": "view",
      "type": "function"
    },
    {
      "inputs": [],
      "name": "getVault",
      "outputs": [
        {
          "internalType": "contract IVault",
          "name": "",
          "type": "address"
        }
      ],
      "stateMutability": "view",
      "type": "function"
    },
    {
      "inputs": [],
      "name": "getWeightedPoolDynamicData",
      "outputs": [
        {
          "components": [
            {
              "internalType": "uint256[]",
              "name": "balancesLiveScaled18",
              "type": "uint256[]"
            },
            {
              "internalType": "uint256[]",
              "name": "tokenRates",
              "type": "uint256[]"
            },
            {
              "internalType": "uint256",
              "name": "staticSwapFeePercentage",
              "type": "uint256"
            },
            {
              "internalType": "uint256",
              "name": "totalSupply",
              "type": "uint256"
            },
            {
              "internalType": "bool",
              "name": "isPoolInitialized",
              "type": "bool"
            },
            {
              "internalType": "bool",
              "name": "isPoolPaused",
              "type": "bool"
            },
            {
              "internalType": "bool",
              "name": "isPoolInRecoveryMode",
              "type": "bool"
            }
          ],
          "internalType": "struct WeightedPoolDynamicData",
          "name": "",
          "type": "tuple"
        }
      ],
      "stateMutability": "pure",
      "type": "function"
    },
    {
      "inputs": [],
      "name": "getWeightedPoolImmutableData",
      "outputs": [
        {
          "components": [
            {
              "internalType": "contract IERC20[]",
              "name": "tokens",
              "type": "address[]"
            },
            {
              "internalType": "uint256[]",
              "name": "decimalScalingFactors",
              "type": "uint256[]"
            },
            {
              "internalType": "uint256[]",
              "name": "normalizedWeights",
              "type": "uint256[]"
            },
            {
              "internalType": "uint256[]",
              "name": "minTokenBalances",
              "type": "uint256[]"
            }
          ],
          "internalType": "struct WeightedPoolImmutableData",
          "name": "",
          "type": "tuple"
        }
      ],
      "stateMutability": "pure",
      "type": "function"
    },
    {
      "inputs": [],
      "name": "incrementNonce",
      "outputs": [],
      "stateMutability": "nonpayable",
      "type": "function"
    },
    {
      "inputs": [],
      "name": "isProjectTokenSwapInBlocked",
      "outputs": [
        {
          "internalType": "bool",
          "name": "",
          "type": "bool"
        }
      ],
      "stateMutability": "view",
      "type": "function"
    },
    {
      "inputs": [],
      "name": "isSwapEnabled",
      "outputs": [
        {
          "internalType": "bool",
          "name": "",
          "type": "bool"
        }
      ],
      "stateMutability": "view",
      "type": "function"
    },
    {
      "inputs": [],
      "name": "name",
      "outputs": [
        {
          "internalType": "string",
          "name": "",
          "type": "string"
        }
      ],
      "stateMutability": "view",
      "type": "function"
    },
    {
      "inputs": [
        {
          "internalType": "address",
          "name": "owner",
          "type": "address"
        }
      ],
      "name": "nonces",
      "outputs": [
        {
          "internalType": "uint256",
          "name": "",
          "type": "uint256"
        }
      ],
      "stateMutability": "view",
      "type": "function"
    },
    {
      "inputs": [
        {
          "internalType": "address",
          "name": "",
          "type": "address"
        },
        {
          "internalType": "address",
          "name": "",
          "type": "address"
        },
        {
          "internalType": "enum AddLiquidityKind",
          "name": "",
          "type": "uint8"
        },
        {
          "internalType": "uint256[]",
          "name": "",
          "type": "uint256[]"
        },
        {
          "internalType": "uint256[]",
          "name": "amountsInRaw",
          "type": "uint256[]"
        },
        {
          "internalType": "uint256",
          "name": "",
          "type": "uint256"
        },
        {
          "internalType": "uint256[]",
          "name": "",
          "type": "uint256[]"
        },
        {
          "internalType": "bytes",
          "name": "",
          "type": "bytes"
        }
      ],
      "name": "onAfterAddLiquidity",
      "outputs": [
        {
          "internalType": "bool",
          "name": "",
          "type": "bool"
        },
        {
          "internalType": "uint256[]",
          "name": "",
          "type": "uint256[]"
        }
      ],
      "stateMutability": "nonpayable",
      "type": "function"
    },
    {
      "inputs": [
        {
          "internalType": "uint256[]",
          "name": "",
          "type": "uint256[]"
        },
        {
          "internalType": "uint256",
          "name": "",
          "type": "uint256"
        },
        {
          "internalType": "bytes",
          "name": "",
          "type": "bytes"
        }
      ],
      "name": "onAfterInitialize",
      "outputs": [
        {
          "internalType": "bool",
          "name": "",
          "type": "bool"
        }
      ],
      "stateMutability": "nonpayable",
      "type": "function"
    },
    {
      "inputs": [
        {
          "internalType": "address",
          "name": "",
          "type": "address"
        },
        {
          "internalType": "address",
          "name": "",
          "type": "address"
        },
        {
          "internalType": "enum RemoveLiquidityKind",
          "name": "",
          "type": "uint8"
        },
        {
          "internalType": "uint256",
          "name": "",
          "type": "uint256"
        },
        {
          "internalType": "uint256[]",
          "name": "",
          "type": "uint256[]"
        },
        {
          "internalType": "uint256[]",
          "name": "amountsOutRaw",
          "type": "uint256[]"
        },
        {
          "internalType": "uint256[]",
          "name": "",
          "type": "uint256[]"
        },
        {
          "internalType": "bytes",
          "name": "",
          "type": "bytes"
        }
      ],
      "name": "onAfterRemoveLiquidity",
      "outputs": [
        {
          "internalType": "bool",
          "name": "",
          "type": "bool"
        },
        {
          "internalType": "uint256[]",
          "name": "",
          "type": "uint256[]"
        }
      ],
      "stateMutability": "nonpayable",
      "type": "function"
    },
    {
      "inputs": [
        {
          "components": [
            {
              "internalType": "enum SwapKind",
              "name": "kind",
              "type": "uint8"
            },
            {
              "internalType": "contract IERC20",
              "name": "tokenIn",
              "type": "address"
            },
            {
              "internalType": "contract IERC20",
              "name": "tokenOut",
              "type": "address"
            },
            {
              "internalType": "uint256",
              "name": "amountInScaled18",
              "type": "uint256"
            },
            {
              "internalType": "uint256",
              "name": "amountOutScaled18",
              "type": "uint256"
            },
            {
              "internalType": "uint256",
              "name": "tokenInBalanceScaled18",
              "type": "uint256"
            },
            {
              "internalType": "uint256",
              "name": "tokenOutBalanceScaled18",
              "type": "uint256"
            },
            {
              "internalType": "uint256",
              "name": "amountCalculatedScaled18",
              "type": "uint256"
            },
            {
              "internalType": "uint256",
              "name": "amountCalculatedRaw",
              "type": "uint256"
            },
            {
              "internalType": "address",
              "name": "router",
              "type": "address"
            },
            {
              "internalType": "address",
              "name": "pool",
              "type": "address"
            },
            {
              "internalType": "bytes",
              "name": "userData",
              "type": "bytes"
            }
          ],
          "internalType": "struct AfterSwapParams",
          "name": "",
          "type": "tuple"
        }
      ],
      "name": "onAfterSwap",
      "outputs": [
        {
          "internalType": "bool",
          "name": "",
          "type": "bool"
        },
        {
          "internalType": "uint256",
          "name": "",
          "type": "uint256"
        }
      ],
      "stateMutability": "nonpayable",
      "type": "function"
    },
    {
      "inputs": [
        {
          "internalType": "address",
          "name": "router",
          "type": "address"
        },
        {
          "internalType": "address",
          "name": "",
          "type": "address"
        },
        {
          "internalType": "enum AddLiquidityKind",
          "name": "",
          "type": "uint8"
        },
        {
          "internalType": "uint256[]",
          "name": "",
          "type": "uint256[]"
        },
        {
          "internalType": "uint256",
          "name": "",
          "type": "uint256"
        },
        {
          "internalType": "uint256[]",
          "name": "",
          "type": "uint256[]"
        },
        {
          "internalType": "bytes",
          "name": "",
          "type": "bytes"
        }
      ],
      "name": "onBeforeAddLiquidity",
      "outputs": [
        {
          "internalType": "bool",
          "name": "",
          "type": "bool"
        }
      ],
      "stateMutability": "view",
      "type": "function"
    },
    {
      "inputs": [
        {
          "internalType": "uint256[]",
          "name": "exactAmountsIn",
          "type": "uint256[]"
        },
        {
          "internalType": "bytes",
          "name": "",
          "type": "bytes"
        }
      ],
      "name": "onBeforeInitialize",
      "outputs": [
        {
          "internalType": "bool",
          "name": "",
          "type": "bool"
        }
      ],
      "stateMutability": "view",
      "type": "function"
    },
    {
      "inputs": [
        {
          "internalType": "address",
          "name": "",
          "type": "address"
        },
        {
          "internalType": "address",
          "name": "",
          "type": "address"
        },
        {
          "internalType": "enum RemoveLiquidityKind",
          "name": "",
          "type": "uint8"
        },
        {
          "internalType": "uint256",
          "name": "",
          "type": "uint256"
        },
        {
          "internalType": "uint256[]",
          "name": "",
          "type": "uint256[]"
        },
        {
          "internalType": "uint256[]",
          "name": "",
          "type": "uint256[]"
        },
        {
          "internalType": "bytes",
          "name": "",
          "type": "bytes"
        }
      ],
      "name": "onBeforeRemoveLiquidity",
      "outputs": [
        {
          "internalType": "bool",
          "name": "",
          "type": "bool"
        }
      ],
      "stateMutability": "view",
      "type": "function"
    },
    {
      "inputs": [
        {
          "components": [
            {
              "internalType": "enum SwapKind",
              "name": "kind",
              "type": "uint8"
            },
            {
              "internalType": "uint256",
              "name": "amountGivenScaled18",
              "type": "uint256"
            },
            {
              "internalType": "uint256[]",
              "name": "balancesScaled18",
              "type": "uint256[]"
            },
            {
              "internalType": "uint256",
              "name": "indexIn",
              "type": "uint256"
            },
            {
              "internalType": "uint256",
              "name": "indexOut",
              "type": "uint256"
            },
            {
              "internalType": "address",
              "name": "router",
              "type": "address"
            },
            {
              "internalType": "bytes",
              "name": "userData",
              "type": "bytes"
            }
          ],
          "internalType": "struct PoolSwapParams",
          "name": "",
          "type": "tuple"
        },
        {
          "internalType": "address",
          "name": "",
          "type": "address"
        }
      ],
      "name": "onBeforeSwap",
      "outputs": [
        {
          "internalType": "bool",
          "name": "",
          "type": "bool"
        }
      ],
      "stateMutability": "nonpayable",
      "type": "function"
    },
    {
      "inputs": [
        {
          "components": [
            {
              "internalType": "enum SwapKind",
              "name": "kind",
              "type": "uint8"
            },
            {
              "internalType": "uint256",
              "name": "amountGivenScaled18",
              "type": "uint256"
            },
            {
              "internalType": "uint256[]",
              "name": "balancesScaled18",
              "type": "uint256[]"
            },
            {
              "internalType": "uint256",
              "name": "indexIn",
              "type": "uint256"
            },
            {
              "internalType": "uint256",
              "name": "indexOut",
              "type": "uint256"
            },
            {
              "internalType": "address",
              "name": "router",
              "type": "address"
            },
            {
              "internalType": "bytes",
              "name": "userData",
              "type": "bytes"
            }
          ],
          "internalType": "struct PoolSwapParams",
          "name": "",
          "type": "tuple"
        },
        {
          "internalType": "address",
          "name": "",
          "type": "address"
        },
        {
          "internalType": "uint256",
          "name": "",
          "type": "uint256"
        }
      ],
      "name": "onComputeDynamicSwapFeePercentage",
      "outputs": [
        {
          "internalType": "bool",
          "name": "",
          "type": "bool"
        },
        {
          "internalType": "uint256",
          "name": "",
          "type": "uint256"
        }
      ],
      "stateMutability": "view",
      "type": "function"
    },
    {
      "inputs": [
        {
          "internalType": "address",
          "name": "",
          "type": "address"
        },
        {
          "internalType": "address",
          "name": "pool",
          "type": "address"
        },
        {
          "components": [
            {
              "internalType": "contract IERC20",
              "name": "token",
              "type": "address"
            },
            {
              "internalType": "enum TokenType",
              "name": "tokenType",
              "type": "uint8"
            },
            {
              "internalType": "contract IRateProvider",
              "name": "rateProvider",
              "type": "address"
            },
            {
              "internalType": "bool",
              "name": "paysYieldFees",
              "type": "bool"
            }
          ],
          "internalType": "struct TokenConfig[]",
          "name": "tokenConfig",
          "type": "tuple[]"
        },
        {
          "components": [
            {
              "internalType": "bool",
              "name": "disableUnbalancedLiquidity",
              "type": "bool"
            },
            {
              "internalType": "bool",
              "name": "enableAddLiquidityCustom",
              "type": "bool"
            },
            {
              "internalType": "bool",
              "name": "enableRemoveLiquidityCustom",
              "type": "bool"
            },
            {
              "internalType": "bool",
              "name": "enableDonation",
              "type": "bool"
            }
          ],
          "internalType": "struct LiquidityManagement",
          "name": "",
          "type": "tuple"
        }
      ],
      "name": "onRegister",
      "outputs": [
        {
          "internalType": "bool",
          "name": "",
          "type": "bool"
        }
      ],
      "stateMutability": "view",
      "type": "function"
    },
    {
      "inputs": [
        {
          "components": [
            {
              "internalType": "enum SwapKind",
              "name": "kind",
              "type": "uint8"
            },
            {
              "internalType": "uint256",
              "name": "amountGivenScaled18",
              "type": "uint256"
            },
            {
              "internalType": "uint256[]",
              "name": "balancesScaled18",
              "type": "uint256[]"
            },
            {
              "internalType": "uint256",
              "name": "indexIn",
              "type": "uint256"
            },
            {
              "internalType": "uint256",
              "name": "indexOut",
              "type": "uint256"
            },
            {
              "internalType": "address",
              "name": "router",
              "type": "address"
            },
            {
              "internalType": "bytes",
              "name": "userData",
              "type": "bytes"
            }
          ],
          "internalType": "struct PoolSwapParams",
          "name": "request",
          "type": "tuple"
        }
      ],
      "name": "onSwap",
      "outputs": [
        {
          "internalType": "uint256",
          "name": "",
          "type": "uint256"
        }
      ],
      "stateMutability": "view",
      "type": "function"
    },
    {
      "inputs": [],
      "name": "owner",
      "outputs": [
        {
          "internalType": "address",
          "name": "",
          "type": "address"
        }
      ],
      "stateMutability": "view",
      "type": "function"
    },
    {
      "inputs": [],
      "name": "pendingOwner",
      "outputs": [
        {
          "internalType": "address",
          "name": "",
          "type": "address"
        }
      ],
      "stateMutability": "view",
      "type": "function"
    },
    {
      "inputs": [
        {
          "internalType": "address",
          "name": "owner",
          "type": "address"
        },
        {
          "internalType": "address",
          "name": "spender",
          "type": "address"
        },
        {
          "internalType": "uint256",
          "name": "amount",
          "type": "uint256"
        },
        {
          "internalType": "uint256",
          "name": "deadline",
          "type": "uint256"
        },
        {
          "internalType": "uint8",
          "name": "v",
          "type": "uint8"
        },
        {
          "internalType": "bytes32",
          "name": "r",
          "type": "bytes32"
        },
        {
          "internalType": "bytes32",
          "name": "s",
          "type": "bytes32"
        }
      ],
      "name": "permit",
      "outputs": [],
      "stateMutability": "nonpayable",
      "type": "function"
    },
    {
      "inputs": [],
      "name": "renounceOwnership",
      "outputs": [],
      "stateMutability": "nonpayable",
      "type": "function"
    },
    {
      "inputs": [
        {
          "internalType": "bytes4",
          "name": "interfaceId",
          "type": "bytes4"
        }
      ],
      "name": "supportsInterface",
      "outputs": [
        {
          "internalType": "bool",
          "name": "",
          "type": "bool"
        }
      ],
      "stateMutability": "view",
      "type": "function"
    },
    {
      "inputs": [],
      "name": "symbol",
      "outputs": [
        {
          "internalType": "string",
          "name": "",
          "type": "string"
        }
      ],
      "stateMutability": "view",
      "type": "function"
    },
    {
      "inputs": [],
      "name": "totalSupply",
      "outputs": [
        {
          "internalType": "uint256",
          "name": "",
          "type": "uint256"
        }
      ],
      "stateMutability": "view",
      "type": "function"
    },
    {
      "inputs": [
        {
          "internalType": "address",
          "name": "to",
          "type": "address"
        },
        {
          "internalType": "uint256",
          "name": "amount",
          "type": "uint256"
        }
      ],
      "name": "transfer",
      "outputs": [
        {
          "internalType": "bool",
          "name": "",
          "type": "bool"
        }
      ],
      "stateMutability": "nonpayable",
      "type": "function"
    },
    {
      "inputs": [
        {
          "internalType": "address",
          "name": "from",
          "type": "address"
        },
        {
          "internalType": "address",
          "name": "to",
          "type": "address"
        },
        {
          "internalType": "uint256",
          "name": "amount",
          "type": "uint256"
        }
      ],
      "name": "transferFrom",
      "outputs": [
        {
          "internalType": "bool",
          "name": "",
          "type": "bool"
        }
      ],
      "stateMutability": "nonpayable",
      "type": "function"
    },
    {
      "inputs": [
        {
          "internalType": "address",
          "name": "newOwner",
          "type": "address"
        }
      ],
      "name": "transferOwnership",
      "outputs": [],
      "stateMutability": "nonpayable",
      "type": "function"
    },
    {
      "inputs": [],
      "name": "version",
      "outputs": [
        {
          "internalType": "string",
          "name": "",
          "type": "string"
        }
      ],
      "stateMutability": "view",
      "type": "function"
    }
  ],
  "bytecode": "0x6105806040523461123957616d34803803809161001e82610580611273565b610580398060e0811261123957610580516001600160401b0381116112395761058001916101008383610580010312611239576040519261010084016001600160401b03811185821017610ee65760405280516001600160401b03811161123957610090908461058001908301611296565b84526020810151906001600160401b038211611239576100b960e0928561058001908301611296565b60208601526100ca604082016112eb565b60408601526100db606082016112eb565b60608601526100ec608082016112eb565b608086015260a081015160a086015260c081015160c086015201519081151582036112395760a09160e0850152601f190112611239576040519160a083016001600160401b03811184821017610ee65760409081526105a05184526105c05160208501526105e0519084015261060051606084015261062051608084015261064051916001600160401b0383116112395760608382031261123957604051926001600160401b036060850190811190851117610ee657606084016040526105808101516001600160a01b03811681036112395784526101ce6105a082016112eb565b60208501526105c08101516001600160401b038111611239576101fa9261058001916105800101611296565b92836040840152606060a06040516102118161123d565b8281528260208201525f60408201528280820152826080820152015260018060a01b0360608301511660018060a01b03608084015116115f14611230576001925f5b6040519461026086611258565b600286526040366020880137835161027b60ff841688611316565b52602084015161028e60ff831688611316565b526040519161029c83611258565b600283525f5b604081106111ef575060608601516001600160a01b0316906102c79060ff1684611316565b515260808501516001600160a01b0316906102e59060ff1683611316565b515280516102f2816112ff565b916103006040519384611273565b818352601f1961030f836112ff565b013660208501375f5b828110611158575050508351602085015191604051966103378861123d565b82885283602089015260026040890152606088015287608088015260a087015260018060a01b0383511692602060018060a01b0391015116604051906040820182811060018060401b03821117610ee657604090815260018352603160f81b60208401528701516001600160a01b0316801561114557600180546001600160a01b03199081169091555f8054918216831781556001600160a01b03909116907f8be0079c531659141344cd1fd0a4f28419497f9722a3daafe3b4186f6b6457e09080a360408701516001600160a01b0316156111365760608701516001600160a01b0316156111275760808701516001600160a01b03161561111857606087015160808801516001600160a01b039081169116146111095760a087015160c088015181119081156110f3575b506110d25760809081526060870180516001600160a01b0390811660a09081529289018051821660c0908152938a015161012052928901516101405260e089015115156101605290519151918116911611156110c75760ff5f8160015b16610100521660e0526104d282611397565b610220526104df8161151f565b610240528151602083012090816101e052602081519101208061020052466101a0526040519060208201927f8b73c3c69bb8fe3d512ecc4cf759cc79239f7b179b0ffacaa9a75d522b39400f8452604083015260608201524660808201523060a082015260a081526105508161123d565b51902061018052306101c0526102608390528051906001600160401b038211610ee65760055490600182811c921680156110bd575b6020831014610ec85781601f84931161106f575b50602090601f8311600114610fe7575f92610fdc575b50508160011b915f199060031b1c1916176005555b8051906001600160401b038211610ee65760065490600182811c92168015610fd2575b6020831014610ec85781601f849311610f7a575b50602090601f8311600114610f05575f92610efa575b50508160011b915f199060031b1c1916176006555b6102805283516001600160401b038111610ee657600754600181811c91168015610edc575b6020821014610ec857601f8111610e69575b506020601f8211600114610e025781929394955f92610df7575b50508160011b915f199060031b1c1916176007555b6040830151806102a05260608401515103610de8575f90815b6102a05160ff841610156107fd576106c460ff84166060870151611316565b5190662386f26fc1000082106107ee57816106de91611371565b926106f060ff821660a0880151611316565b51620f424081106107df5760ff92828416610734576102c0526103c0525b1660ff811461072057600101916106a5565b634e487b7160e01b5f52601160045260245ffd5b82841660010361074b576102e0526103e05261070e565b82841660020361076257610300526104005261070e565b82841660030361077957610320526104205261070e565b82841660040361079057610340526104405261070e565b8284166005036107a757610360526104605261070e565b8284166006036107be57610380526104805261070e565b6007848416146107d0575b505061070e565b6103a0526104a0525f806107c9565b633bdab6b560e21b5f5260045ffd5b63bd39358360e01b5f5260045ffd5b8390670de0b6b3a7640000809103610da657825190602084015191604085015192606086015191662386f26fc10000808210908115610dde575b8115610dd4575b8115610dca575b506107ee57839161085591611371565b1492831593610db5575b505050610da65781516104c0526020828101516104e05260408084015161050052606084015161052052608090920151915163313ce56760e01b815291829060049082906001600160a01b03165afa8015610d9b5760ff915f91610d6c575b501660120360ff81116107205760ff1690604d82116107205781600a0a6105605260808101518083600a0a81020483600a0a1481151715610720577f0f3631f9dab08169d1db21c6dc5f32536fb2b0a6b9bb5330d71c52132f968be092600a0a02610540526040519061093082611258565b6002825260403660208401376040519061094982611258565b6002825260403660208401378051610977602083015160e051906109706101005188611316565b5285611316565b5261099d6060604083015192015160e051906109966101005186611316565b5283611316565b526109da61012051916109cc61014051946040519586958652602086015260806040860152608085019061133e565b90838203606085015261133e565b0390a16040516156bb6116598239608051818181610f07015281816121e001526125e0015260a051816120f7015260c0518161042b015260e051818181610f4101528181611a6d0152818161282d015281816129ae01528181612a6a015281816137b701526141b2015261010051818181610e8301528181610f64015281816110e50152818161155401528181611a4c0152818161264901528181612853015281816129fa01528181612ab6015281816136b801526141fc015261012051818181610d0801528181611b5d0152818161219e015281816125500152818161291f015281816139d80152614145015261014051818181610d6a01528181611b800152818161294501528181613a050152614124015261016051818181611775015281816128f7015261365c01526101805181613a7001526101a05181613b3c01526101c05181613a4101526101e05181613abf01526102005181613ae5015261022051816118310152610240518161185a0152610260518181816104d0015281816107c501528181610aaa01528181610e0b01528181610fe30152818161141a015281816117f801528181611e3d015281816124cb015281816127f8015281816128bf01528181613585015281816139820152613eec015261028051818181610bbf01528181611319015261197001526102a0518150506102c0518150506102e05181505061030051815050610320518150506103405181505061036051815050610380518150506103a0518150506103c051818181613f4f01528181614229015261460b01526103e051818181613f7a01528181614291015261463e015261040051818181613faf015281816142c0015261467a015261042051818181613fe3015281816142ef01526146b60152610440518181816140170152818161431e01526146f401526104605181818161404b0152818161434d01526147300152610480518181816140820152818161437c015261476c01526104a0518181816140b4015281816143a301526147a801526104c051818181611aba0152818161298c015261418c01526104e051818181611a8e01526129d6015261050051818181611b2e01528181612a48015261416b015261052051818181611b020152612a9201526105405181818161031c01528181610e410152818161101e015281816115140152818161257801528181612ae30152613687015261056051818181610340015281816111200152612bfe01526156bb90f35b610d8e915060203d602011610d94575b610d868183611273565b81019061137e565b836108be565b503d610d7c565b6040513d5f823e3d90fd5b631ce788a760e11b5f5260045ffd5b610dc0929350611371565b141583808061085f565b9050831088610845565b808710915061083e565b8084109150610837565b63aaad13f760e01b5f5260045ffd5b015190505f80610677565b60075f5260205f20905f5b601f1984168110610e51575060019394959683601f19811610610e39575b505050811b0160075561068c565b01515f1960f88460031b161c191690555f8080610e2b565b9091602060018192858b015181550193019101610e0d565b60075f527fa66cc928b5edb82af9bd49922954155ab7b0942694bea4ce44661d9a8736c688601f830160051c810160208410610ec1575b601f830160051c82018110610eb657505061065d565b5f8155600101610ea0565b5080610ea0565b634e487b7160e01b5f52602260045260245ffd5b90607f169061064b565b634e487b7160e01b5f52604160045260245ffd5b015190505f80610611565b60065f90815293505f516020616d145f395f51905f5291905b601f1984168510610f5f576001945083601f19811610610f47575b505050811b01600655610626565b01515f1960f88460031b161c191690555f8080610f39565b81810151835560209485019460019093019290910190610f1e565b60065f529091505f516020616d145f395f51905f52601f840160051c810160208510610fcb575b90849392915b601f830160051c82018110610fbd5750506105fb565b5f8155859450600101610fa7565b5080610fa1565b91607f16916105e7565b015190505f806105af565b60055f90815293507f036b6384b5eca791c62761152d0c79bb0604c104a5fb6f4eb0703f3154bb3db091905b601f1984168510611054576001945083601f1981161061103c575b505050811b016005556105c4565b01515f1960f88460031b161c191690555f808061102e565b81810151835560209485019460019093019290910190611013565b90915060055f5260205f20601f840160051c8101602085106110b6575b90849392915b601f830160051c820181106110a8575050610599565b5f8155859450600101611092565b508061108c565b91607f1691610585565b60ff6001815f6104c0565b8660c060a0820151910151906364bb3b8360e11b5f5260045260245260445ffd5b9050610e1042019081421161072057105f610463565b63fbfc7a9160e01b5f5260045ffd5b635577403d60e11b5f5260045ffd5b6359977db360e01b5f5260045ffd5b6349e27cff60e01b5f5260045ffd5b631e4fbdf760e01b5f525f60045260245ffd5b60049060206001600160a01b0361116f8386611316565b5151166040519384809263313ce56760e01b82525afa918215610d9b575f926111ce575b5060ff60129216820391821161072057604d821161072057600191600a0a620f424081808211911802186111c78287611316565b5201610318565b6111e891925060203d602011610d9457610d868183611273565b905f611193565b6040516080810191906001600160401b03831181841017610ee6576020926040525f81525f838201525f60408201525f6060820152828287010152016102a2565b5f926001610253565b5f80fd5b60c081019081106001600160401b03821117610ee657604052565b606081019081106001600160401b03821117610ee657604052565b601f909101601f19168101906001600160401b03821190821017610ee657604052565b81601f82011215611239578051906001600160401b038211610ee657604051926112ca601f8401601f191660200185611273565b8284526020838301011161123957815f9260208093018386015e8301015290565b51906001600160a01b038216820361123957565b6001600160401b038111610ee65760051b60200190565b805182101561132a5760209160051b010190565b634e487b7160e01b5f52603260045260245ffd5b9081518082526020808093019301915f5b82811061135d575050505090565b83518552938101939281019260010161134f565b9190820180921161072057565b90816020910312611239575160ff811681036112395790565b80516020908181101561140d5750601f8251116113cf57808251920151908083106113c157501790565b825f19910360031b1b161790565b60448260405192839163305a27a960e01b83528160048401528051918291826024860152018484015e5f828201840152601f01601f19168101030190fd5b906001600160401b038211610ee657600254926001938481811c91168015611515575b83821014610ec857601f81116114e1575b5081601f841160011461147d57509282939183925f94611472575b50501b915f199060031b1c19161760025560ff90565b015192505f8061145c565b919083601f19811660025f52845f20945f905b888383106114c757505050106114af575b505050811b0160025560ff90565b01515f1960f88460031b161c191690555f80806114a1565b858701518855909601959485019487935090810190611490565b60025f5284601f845f20920160051c820191601f860160051c015b82811061150a575050611441565b5f81550185906114fc565b90607f1690611430565b8051602091908281101561154b575090601f8251116113cf57808251920151908083106113c157501790565b6001600160401b038111610ee6576003928354926001938481811c9116801561164e575b83821014610ec857601f811161161b575b5081601f84116001146115ba57509282939183925f946115af575b50501b915f1990841b1c191617905560ff90565b015192505f8061159b565b919083601f198116875f52845f20945f905b8883831061160157505050106115ea575b505050811b01905560ff90565b01515f1983861b60f8161c191690555f80806115dd565b8587015188559096019594850194879350908101906115cc565b855f5284601f845f20920160051c820191601f860160051c015b828110611643575050611580565b5f8155018590611635565b90607f169061156f56fe6080806040526004361015610012575f80fd5b5f3560e01c90816301ffc9a714612fd15750806306fdde0314612f28578063095ea7b314612eab5780630b89f18214612ca85780630ca898481461275557806316a0b3e0146126fb57806318160ddd146126e157806318b6eb55146126a15780631c149e281461250257806323b872dd1461245a57806323de665114612429578063273c1adf146124075780632754888d1461239e57806330adf81f14612364578063313ce56714612349578063351a964d146123255780633644e5151461230b57806338be241d146122c057806345421ec71461211b5780634837c596146120cb5780635211fa771461208857806353b79bd71461203057806354fd4d5014611f875780635687f2b814611f26578063627cdcb914611efd578063654cf15d14611edb578063679aefce14611ea357806370a0823114611dd0578063715018a614611d4b57806372c9818614611c6c57806379ba509714611bb55780637beed22014611a1c5780637ecebe00146119d757806381fa807c1461191457806384b0196e1461181c5780638d928af8146117cc5780638da5cb5b1461179a57806395146efb1461175e57806395d89b4114611662578063976907cc146115aa578063984de9e8146114d1578063a0e8f5ac14611489578063a9059cbb14611383578063aa6ca808146112c1578063abb1dc4414610f8a578063ae3ecc6414610f2b578063af905d1514610edb578063b156aa0a14610db3578063b677fa5614610d91578063ba5f9f4014610c84578063c0bc6f3314610c18578063ce20ece714610bf8578063d335b0cf14610b66578063d505accf1461090a578063d67f280b146108ef578063d77153a714610832578063dd62ed3e14610748578063e30c397814610715578063e565c29e1461044f578063e594203d146103ff578063f2fde38b14610372578063f898f16e146103085763f89f27ed146102d1575f80fd5b34610304575f600319360112610304576103006102ec614101565b60405191829160208352602083019061316c565b0390f35b5f80fd5b34610304575f6003193601126103045760407f00000000000000000000000000000000000000000000000000000000000000006103657f000000000000000000000000000000000000000000000000000000000000000082613934565b9082519182526020820152f35b346103045760206003193601126103045761038b61305e565b610393613b62565b73ffffffffffffffffffffffffffffffffffffffff80911690817fffffffffffffffffffffffff000000000000000000000000000000000000000060015416176001555f54167f38d16b8cac22d99fc7c124b9cd0de2d3fa1faef420bfe791d8c362d765e227005f80a3005b34610304575f60031936011261030457602060405173ffffffffffffffffffffffffffffffffffffffff7f0000000000000000000000000000000000000000000000000000000000000000168152f35b34610304575f600319360112610304576040516101009081810181811067ffffffffffffffff8211176106e857604052606081526020908181015f8152604082015f8152606083015f8152608084015f815260a085015f815260c08601915f835260e08701936060855273ffffffffffffffffffffffffffffffffffffffff7f000000000000000000000000000000000000000000000000000000000000000016956040517f535cfd8a0000000000000000000000000000000000000000000000000000000081523060048201525f816024818b5afa90811561068e575f916106c6575b50895261053e614101565b86526040517fb45090f90000000000000000000000000000000000000000000000000000000081523060048201528a816024818b5afa90811561068e575f91610699575b50885261058d61353c565b815260405180977ff29486a10000000000000000000000000000000000000000000000000000000082523060048301528160246101a09384935afa998a1561068e576103009a8d99610622935f92610661575b505060e081015115158552898101511515865261012080910151151587526106066139d6565b151588526040519d8d8f9e938f948552519301528c019061316c565b975160408b01525160608a0152511515608089015251151560a088015251151560c087015251151560e08601525190601f19858403019085015261316c565b6106809250803d10610687575b6106788183613131565b810190613805565b8e806105e0565b503d61066e565b6040513d5f823e3d90fd5b90508a81813d83116106bf575b6106b08183613131565b8101031261030457518c610582565b503d6106a6565b6106e291503d805f833e6106da8183613131565b81019061390e565b8c610533565b7f4e487b71000000000000000000000000000000000000000000000000000000005f52604160045260245ffd5b34610304575f60031936011261030457602073ffffffffffffffffffffffffffffffffffffffff60015416604051908152f35b346103045760406003193601126103045761076161305e565b602061076b613081565b91606473ffffffffffffffffffffffffffffffffffffffff91828060405196879586947f927da1050000000000000000000000000000000000000000000000000000000086523060048701521660248501521660448301527f0000000000000000000000000000000000000000000000000000000000000000165afa801561068e575f906107ff575b602090604051908152f35b506020813d60201161082a575b8161081960209383613131565b8101031261030457602090516107f4565b3d915061080c565b34610304575f60031936011261030457610140604051610851816130c0565b5f81526020810190604081015f8152606082015f815260808301905f825260a084015f815260c0850160e08601915f83526101009485880194610120809901975f895260018b5260018552600187526040519a5f8c5251151560208c015251151560408b015251151560608a0152511515608089015251151560a088015251151560c087015251151560e08601525115159084015251151590820152f35b34610304575f600319360112610304576103006102ec613ea4565b346103045760e06003193601126103045761092361305e565b61092b613081565b60443591608435919060643560ff8416840361030457804211610b3b576109798273ffffffffffffffffffffffffffffffffffffffff165f52600460205260405f2080549060018201905590565b90610a48610a3f60405196602088017f6e71edae12b1b97f4d1f60370fef10105fa2faae0126114a169c64845d6126c9815273ffffffffffffffffffffffffffffffffffffffff98899586891697886040840152878b1660608401528c608084015260a083015260c082015260c081526109f2816130dd565b5190206109fd613a2a565b90604051917f190100000000000000000000000000000000000000000000000000000000000083526002830152602282015260c43591604260a435922061495f565b909291926149ee565b16818103610b0d576040517fe1f21c6700000000000000000000000000000000000000000000000000000000815273ffffffffffffffffffffffffffffffffffffffff848116600483015285166024820152604481018790526020816064815f7f00000000000000000000000000000000000000000000000000000000000000008b165af1801561068e57610ad957005b6020813d602011610b05575b81610af260209383613131565b8101031261030457610b0390613368565b005b3d9150610ae5565b7f4b800e46000000000000000000000000000000000000000000000000000000005f5260045260245260445ffd5b7f62791302000000000000000000000000000000000000000000000000000000005f5260045260245ffd5b34610304575f600319360112610304576040517fb45090f900000000000000000000000000000000000000000000000000000000815230600482015260208160248173ffffffffffffffffffffffffffffffffffffffff7f0000000000000000000000000000000000000000000000000000000000000000165afa801561068e575f906107ff57602090604051908152f35b34610304575f6003193601126103045760206040516509184e72a0008152f35b34610304575f600319360112610304575f60c0604051610c37816130dd565b60608152606060208201528260408201528260608201528260808201528260a082015201527fd6234725000000000000000000000000000000000000000000000000000000005f5260045ffd5b346103045760e060031936011261030457610c9d61305e565b50610ca6613081565b50600460443510156103045767ffffffffffffffff60843581811161030457610cd390369060040161319f565b5060a43581811161030457610cec90369060040161319f565b5060c43590811161030457610d059036906004016131ff565b507f000000000000000000000000000000000000000000000000000000000000000042101580610d67575b610d3f57602060405160018152f35b7ff38b5770000000000000000000000000000000000000000000000000000000005f5260045ffd5b507f0000000000000000000000000000000000000000000000000000000000000000421115610d30565b34610304575f6003193601126103045760206040516709b6e64a8ec600008152f35b34610304575f600319360112610304576040517f535cfd8a0000000000000000000000000000000000000000000000000000000081523060048201525f8160248173ffffffffffffffffffffffffffffffffffffffff7f0000000000000000000000000000000000000000000000000000000000000000165afa801561068e57610300915f91610ec1575b507f000000000000000000000000000000000000000000000000000000000000000080610e7b575b5060405191829160208352602083019061316c565b610eba610eb37f000000000000000000000000000000000000000000000000000000000000000092610ead8486613420565b51613613565b9183613420565b5282610e66565b610ed591503d805f833e6106da8183613131565b82610e3e565b34610304575f60031936011261030457602060405173ffffffffffffffffffffffffffffffffffffffff7f0000000000000000000000000000000000000000000000000000000000000000168152f35b34610304575f60031936011261030457604080517f000000000000000000000000000000000000000000000000000000000000000081527f00000000000000000000000000000000000000000000000000000000000000006020820152f35b34610304575f600319360112610304576040517f67e0e07600000000000000000000000000000000000000000000000000000000815230600482015273ffffffffffffffffffffffffffffffffffffffff60245f8382817f000000000000000000000000000000000000000000000000000000000000000086165afa90811561068e575f925f945f925f9461115d575b50507f0000000000000000000000000000000000000000000000000000000000000000806110da575b5061105960405194608086526080860190613297565b6020858203818701528080885193848152019701925f905b83821061109e578780610300896110908d8b858203604087015261316c565b90838203606085015261316c565b909192939783606060019260408c5180516110b8816132e0565b8352808501518716858401520151151560408201520199019493920190611071565b61115661114f6111457f00000000000000000000000000000000000000000000000000000000000000009361111381610ead878b613420565b61111d868a613420565b527f000000000000000000000000000000000000000000000000000000000000000090613934565b610ead8487613420565b9184613420565b5285611043565b945094509150503d805f853e6111738185613131565b83016080848203126103045783519367ffffffffffffffff94858111610304578261119f918301613434565b9160208083015187811161030457830182601f82011215610304578051916111c683613154565b976111d4604051998a613131565b8389528189019082606080960285010193868511610304578301915b84831061123857505050505050604082015186811161030457816112159184016134db565b9560608301519081116103045761122c92016134db565b9092939091858061101a565b858388031261030457604051908682018d811183821017611295576040528351600281101561030457825284840151908b8216820361030457828692838a95015261128560408701613368565b60408201528152019201916111f0565b837f4e487b71000000000000000000000000000000000000000000000000000000005f5260416004525ffd5b34610304575f600319360112610304576040517fca4f28030000000000000000000000000000000000000000000000000000000081523060048201525f8160248173ffffffffffffffffffffffffffffffffffffffff7f0000000000000000000000000000000000000000000000000000000000000000165afa801561068e57610300915f91611361575b50604051918291602083526020830190613297565b61137d91503d805f833e6113758183613131565b8101906134b2565b8261134c565b346103045760406003193601126103045761140060206113a161305e565b6040517fbeabacc800000000000000000000000000000000000000000000000000000000815233600482015273ffffffffffffffffffffffffffffffffffffffff90911660248083019190915235604482015291829081906064820190565b03815f73ffffffffffffffffffffffffffffffffffffffff7f0000000000000000000000000000000000000000000000000000000000000000165af1801561068e57611452575b602060405160018152f35b6020813d602011611481575b8161146b60209383613131565b810103126103045761147c90613368565b611447565b3d915061145e565b3461030457600319606081360112610304576004359067ffffffffffffffff82116103045760e09136030112610304576114c1613081565b50604080515f81525f6020820152f35b346103045760406003193601126103045760043567ffffffffffffffff81116103045761150290369060040161319f565b602435906002821015610304576020917f00000000000000000000000000000000000000000000000000000000000000008061154a575061154291613d6e565b604051908152f35b906115a49061159e7f00000000000000000000000000000000000000000000000000000000000000009161158d6115818488613420565b5195610ead8589613420565b6115978488613420565b5285613d6e565b93613420565b52611542565b3461030457610100600319360112610304576115c461305e565b506115cd613081565b50600560443510156103045767ffffffffffffffff606435818111610304576115fa90369060040161319f565b506084358181116103045761161390369060040161319f565b60c4358281116103045761162b90369060040161319f565b5060e435918211610304576116476103009236906004016131ff565b506040519182915f835260406020840152604083019061316c565b34610304575f600319360112610304576040516006545f8261168383613317565b91828252602093600190856001821691825f146117205750506001146116c5575b506116b192500383613131565b610300604051928284938452830190613039565b84915060065f527ff652222313e28459528d920b65115c16c04f3efc82aaedc97be59f3f377c0d3f905f915b8583106117085750506116b19350820101856116a4565b805483890185015287945086939092019181016116f1565b7fffffffffffffffffffffffffffffffffffffffffffffffffffffffffffffff0016858201526116b195151560051b85010192508791506116a49050565b34610304575f6003193601126103045760206040517f000000000000000000000000000000000000000000000000000000000000000015158152f35b34610304575f60031936011261030457602073ffffffffffffffffffffffffffffffffffffffff5f5416604051908152f35b34610304575f60031936011261030457602060405173ffffffffffffffffffffffffffffffffffffffff7f0000000000000000000000000000000000000000000000000000000000000000168152f35b34610304575f600319360112610304576118557f000000000000000000000000000000000000000000000000000000000000000061440d565b61187e7f0000000000000000000000000000000000000000000000000000000000000000614540565b9060405191602083019280841067ffffffffffffffff8511176106e8576118f4610300926118e6956040525f83526040519586957f0f00000000000000000000000000000000000000000000000000000000000000875260e0602088015260e0870190613039565b908582036040870152613039565b904660608501523060808501525f60a085015283820360c085015261316c565b34610304575f600319360112610304576040517ff29486a10000000000000000000000000000000000000000000000000000000081523060048201526101a090818160248173ffffffffffffffffffffffffffffffffffffffff7f0000000000000000000000000000000000000000000000000000000000000000165afa90811561068e576040925f926119ba575b505060608282015191015182519182526020820152f35b6119d09250803d10610687576106788183613131565b82806119a3565b346103045760206003193601126103045773ffffffffffffffffffffffffffffffffffffffff611a0561305e565b165f526004602052602060405f2054604051908152f35b34610304575f60031936011261030457611090604051611a3b816130f9565b6002815260403660208301376103007f00000000000000000000000000000000000000000000000000000000000000007f00000000000000000000000000000000000000000000000000000000000000007f0000000000000000000000000000000000000000000000000000000000000000611ab78386613420565b527f0000000000000000000000000000000000000000000000000000000000000000611ae38286613420565b5260405191611af1836130f9565b600283526040366020850137611b287f00000000000000000000000000000000000000000000000000000000000000009184613420565b52611b547f00000000000000000000000000000000000000000000000000000000000000009183613420565b526040519384937f000000000000000000000000000000000000000000000000000000000000000085527f0000000000000000000000000000000000000000000000000000000000000000602086015260806040860152608085019061316c565b34610304575f6003193601126103045760015473ffffffffffffffffffffffffffffffffffffffff3381831603611c40577fffffffffffffffffffffffff00000000000000000000000000000000000000008092166001555f549133908316175f553391167f8be0079c531659141344cd1fd0a4f28419497f9722a3daafe3b4186f6b6457e05f80a3005b7f118cdaa7000000000000000000000000000000000000000000000000000000005f523360045260245ffd5b34610304576003196020813601126103045760043567ffffffffffffffff918282116103045760e090823603011261030457604051611caa816130dd565b8160040135600281101561030457815260248201356020820152604482013583811161030457611ce0906004369185010161319f565b6040820152606482013560608201526084820135608082015260a482013573ffffffffffffffffffffffffffffffffffffffff811681036103045760a082015260c482013592831161030457611d41611542926004602095369201016131ff565b60c082015261364d565b34610304575f60031936011261030457611d63613b62565b5f73ffffffffffffffffffffffffffffffffffffffff7fffffffffffffffffffffffff0000000000000000000000000000000000000000806001541660015582549081168355167f8be0079c531659141344cd1fd0a4f28419497f9722a3daafe3b4186f6b6457e08280a3005b346103045760208060031936011261030457604481611ded61305e565b6040517ff7888aec00000000000000000000000000000000000000000000000000000000815230600482015273ffffffffffffffffffffffffffffffffffffffff918216602482015292839182907f0000000000000000000000000000000000000000000000000000000000000000165afa90811561068e575f91611e76575b50604051908152f35b90508181813d8311611e9c575b611e8d8183613131565b81010312610304575182611e6d565b503d611e83565b34610304575f600319360112610304577f18e79a20000000000000000000000000000000000000000000000000000000005f5260045ffd5b34610304575f60031936011261030457602060405167016345785d8a00008152f35b34610304575f60031936011261030457335f908152600460205260409020805460018101909155005b346103045760207f8c5be1e5ebec7d5bd14f71427d1e84f3dd0314c0f7b2291e5b200ac8c7c3b925611f5736613255565b92919390611f6361396b565b73ffffffffffffffffffffffffffffffffffffffff809160405195865216941692a3005b34610304575f600319360112610304576040516007545f82611fa883613317565b91828252602093600190856001821691825f14611720575050600114611fd557506116b192500383613131565b84915060075f527fa66cc928b5edb82af9bd49922954155ab7b0942694bea4ce44661d9a8736c688905f915b8583106120185750506116b19350820101856116a4565b80548389018501528794508693909201918101612001565b34610304575f6003193601126103045760608060405161204f816130a4565b81815281602082015281604082015201527fd6234725000000000000000000000000000000000000000000000000000000005f5260045ffd5b3461030457600319604081360112610304576004359067ffffffffffffffff82116103045760e09136030112610304576120c0613081565b5060206040515f8152f35b34610304575f60031936011261030457602060405173ffffffffffffffffffffffffffffffffffffffff7f0000000000000000000000000000000000000000000000000000000000000000168152f35b346103045760e06003193601126103045761213461305e565b61213c613081565b50600560443510156103045767ffffffffffffffff6064358181116103045761216990369060040161319f565b5060a4358181116103045761218290369060040161319f565b5060c4359081116103045761219b9036906004016131ff565b507f00000000000000000000000000000000000000000000000000000000000000004210156122985773ffffffffffffffffffffffffffffffffffffffff80911690807f00000000000000000000000000000000000000000000000000000000000000001682149182612216575b6020836040519015158152f35b60049250602090604051938480927f5e01eb5a0000000000000000000000000000000000000000000000000000000082525afa90811561068e576020925f92612269575b50805f54169116149082612209565b61228a919250833d8511612291575b6122828183613131565b8101906135e7565b908361225a565b503d612278565b7f3eee08c7000000000000000000000000000000000000000000000000000000005f5260045ffd5b346103045760606003193601126103045767ffffffffffffffff600435818111610304576122f290369060040161319f565b50604435908111610304576120c09036906004016131ff565b34610304575f600319360112610304576020611542613a2a565b34610304575f60031936011261030457602061233f6139d6565b6040519015158152f35b34610304575f60031936011261030457602060405160128152f35b34610304575f6003193601126103045760206040517f6e71edae12b1b97f4d1f60370fef10105fa2faae0126114a169c64845d6126c98152f35b3461030457610100600319360112610304576123b861305e565b506123c1613081565b50600460443510156103045767ffffffffffffffff608435818111610304576123ee90369060040161319f565b5060a4358181116103045761161390369060040161319f565b34610304575f6003193601126103045760206040516729a2241af62c00008152f35b346103045760207fddf252ad1be2c89b69c2b068fc378daa952ba7f163c4a11628f55a4df523b3ef611f5736613255565b34610304576084602061246c36613255565b6040517f15dacbea00000000000000000000000000000000000000000000000000000000815233600482015273ffffffffffffffffffffffffffffffffffffffff93841660248201529183166044830152606482015292839182905f907f0000000000000000000000000000000000000000000000000000000000000000165af1801561068e5761145257602060405160018152f35b346103045760406003193601126103045767ffffffffffffffff6004358181116103045761253490369060040161319f565b906024359081116103045761254d9036906004016131ff565b507f0000000000000000000000000000000000000000000000000000000000000000421015612298577f0000000000000000000000000000000000000000000000000000000000000000612643575b506040517f5e01eb5a00000000000000000000000000000000000000000000000000000000815273ffffffffffffffffffffffffffffffffffffffff6020826004817f000000000000000000000000000000000000000000000000000000000000000085165afa90811561068e576020925f92612624575b50805f5416911614604051908152f35b61263c919250833d8511612291576122828183613131565b9083612614565b61266e907f000000000000000000000000000000000000000000000000000000000000000090613420565b51612679578061259c565b7f26704f1c000000000000000000000000000000000000000000000000000000005f5260045ffd5b3461030457600319602081360112610304576004359067ffffffffffffffff821161030457610180913603011261030457604080515f81525f6020820152f35b34610304575f60031936011261030457602061154261353c565b346103045760606003193601126103045760043567ffffffffffffffff81116103045761272c90369060040161319f565b507f9ba6061b000000000000000000000000000000000000000000000000000000005f5260045ffd5b34610304575f60031936011261030457604051612771816130c0565b60608152606060208201525f60408201525f60608201525f60808201525f60a08201525f60c0820152606060e082015260606101008201525f6101208201526040517fca4f28030000000000000000000000000000000000000000000000000000000081523060048201525f8160248173ffffffffffffffffffffffffffffffffffffffff7f0000000000000000000000000000000000000000000000000000000000000000165afa90811561068e575f91612c8e575b5081527f000000000000000000000000000000000000000000000000000000000000000060808201527f000000000000000000000000000000000000000000000000000000000000000060a08201526040517f7e361bde0000000000000000000000000000000000000000000000000000000081523060048201525f8160248173ffffffffffffffffffffffffffffffffffffffff7f0000000000000000000000000000000000000000000000000000000000000000165afa90811561068e575f91612c2f575b5060208201527f0000000000000000000000000000000000000000000000000000000000000000151560c08201527f000000000000000000000000000000000000000000000000000000000000000060408201527f00000000000000000000000000000000000000000000000000000000000000006060820152604051612975816130f9565b6002815260403660208301378060e08301526129d37f0000000000000000000000000000000000000000000000000000000000000000917f000000000000000000000000000000000000000000000000000000000000000090613420565b527f0000000000000000000000000000000000000000000000000000000000000000612a237f000000000000000000000000000000000000000000000000000000000000000060e0840151613420565b52604051612a30816130f9565b60028152604036602083013780610100830152612a8f7f0000000000000000000000000000000000000000000000000000000000000000917f000000000000000000000000000000000000000000000000000000000000000090613420565b527f0000000000000000000000000000000000000000000000000000000000000000612ae07f0000000000000000000000000000000000000000000000000000000000000000610100840151613420565b527f000000000000000000000000000000000000000000000000000000000000000080612bf8575b50604051602081528151916101406020830152825180610160840152602061018084019401905f5b818110612bcc57505050610120612bbf8394612baa612b61602086015192601f1993848983030160408a015261316c565b6040860151606088015260608601516080880152608086015160a088015260a086015160c088015260c0860151151560e088015260e0860151838883030161010089015261316c565b9061010085015190868303018487015261316c565b9101516101408301520390f35b825173ffffffffffffffffffffffffffffffffffffffff16865260209586019590920191600101612b30565b612c23907f000000000000000000000000000000000000000000000000000000000000000090613934565b61012082015281612b08565b90503d805f833e612c408183613131565b60408282810103126103045781519167ffffffffffffffff9283811161030457612c6f908383019083016134db565b92602082015190811161030457612c8992820191016134db565b6128ef565b612ca291503d805f833e6113758183613131565b82612828565b346103045760e060031936011261030457612cc161305e565b50612cca613081565b6044359067ffffffffffffffff82116103045736602383011215610304578160040135612cf681613154565b90612d046040519283613131565b80825260209360248584019260071b8201019036821161030457602401915b818310612e2a5750505060807fffffffffffffffffffffffffffffffffffffffffffffffffffffffffffffff9c360112610304578051600203612e02578280612d6b83613375565b510151612d77816132e0565b612d80816132e0565b1591821592612dd9575b5050612db1576040519073ffffffffffffffffffffffffffffffffffffffff309116148152f35b7fdf450632000000000000000000000000000000000000000000000000000000005f5260045ffd5b612de49192506133af565b510151612df0816132e0565b612df9816132e0565b15158284612d8a565b7faaad13f7000000000000000000000000000000000000000000000000000000005f5260045ffd5b6080833603126103045760405190612e41826130a4565b73ffffffffffffffffffffffffffffffffffffffff8435818116810361030457835287850135600281101561030457888401526040850135908116810361030457604083015260609081850135928315158403610304576080938993820152815201920191612d23565b34610304576040600319360112610304576114006020612ec961305e565b6040517fe1f21c6700000000000000000000000000000000000000000000000000000000815233600482015273ffffffffffffffffffffffffffffffffffffffff90911660248083019190915235604482015291829081906064820190565b34610304575f600319360112610304576040516005545f82612f4983613317565b91828252602093600190856001821691825f14611720575050600114612f7657506116b192500383613131565b84915060055f527f036b6384b5eca791c62761152d0c79bb0604c104a5fb6f4eb0703f3154bb3db0905f915b858310612fb95750506116b19350820101856116a4565b80548389018501528794508693909201918101612fa2565b3461030457602060031936011261030457600435907fffffffff000000000000000000000000000000000000000000000000000000008216809203610304577f01ffc9a700000000000000000000000000000000000000000000000000000000602092148152f35b90601f19601f602080948051918291828752018686015e5f8582860101520116010190565b6004359073ffffffffffffffffffffffffffffffffffffffff8216820361030457565b6024359073ffffffffffffffffffffffffffffffffffffffff8216820361030457565b6080810190811067ffffffffffffffff8211176106e857604052565b610140810190811067ffffffffffffffff8211176106e857604052565b60e0810190811067ffffffffffffffff8211176106e857604052565b6060810190811067ffffffffffffffff8211176106e857604052565b6040810190811067ffffffffffffffff8211176106e857604052565b90601f601f19910116810190811067ffffffffffffffff8211176106e857604052565b67ffffffffffffffff81116106e85760051b60200190565b9081518082526020808093019301915f5b82811061318b575050505090565b83518552938101939281019260010161317d565b9080601f830112156103045760209082356131b981613154565b936131c76040519586613131565b81855260208086019260051b82010192831161030457602001905b8282106131f0575050505090565b813581529083019083016131e2565b81601f820112156103045780359067ffffffffffffffff82116106e857604051926132346020601f19601f8601160185613131565b8284526020838301011161030457815f926020809301838601378301015290565b60031960609101126103045773ffffffffffffffffffffffffffffffffffffffff90600435828116810361030457916024359081168103610304579060443590565b9081518082526020808093019301915f5b8281106132b6575050505090565b835173ffffffffffffffffffffffffffffffffffffffff16855293810193928101926001016132a8565b600211156132ea57565b7f4e487b71000000000000000000000000000000000000000000000000000000005f52602160045260245ffd5b90600182811c9216801561335e575b602083101461333157565b7f4e487b71000000000000000000000000000000000000000000000000000000005f52602260045260245ffd5b91607f1691613326565b5190811515820361030457565b8051156133825760200190565b7f4e487b71000000000000000000000000000000000000000000000000000000005f52603260045260245ffd5b8051600110156133825760400190565b8051600210156133825760600190565b8051600310156133825760800190565b8051600410156133825760a00190565b8051600510156133825760c00190565b8051600610156133825760e00190565b805160071015613382576101000190565b80518210156133825760209160051b010190565b9080601f830112156103045781519060209161344f81613154565b9361345d6040519586613131565b81855260208086019260051b82010192831161030457602001905b828210613486575050505090565b815173ffffffffffffffffffffffffffffffffffffffff81168103610304578152908301908301613478565b9060208282031261030457815167ffffffffffffffff8111610304576134d89201613434565b90565b9080601f83011215610304578151906020916134f681613154565b936135046040519586613131565b81855260208086019260051b82010192831161030457602001905b82821061352d575050505090565b8151815290830190830161351f565b6040517fe4dc2aa400000000000000000000000000000000000000000000000000000000815230600482015260208160248173ffffffffffffffffffffffffffffffffffffffff7f0000000000000000000000000000000000000000000000000000000000000000165afa90811561068e575f916135b8575090565b90506020813d6020116135df575b816135d360209383613131565b81010312610304575190565b3d91506135c6565b90816020910312610304575173ffffffffffffffffffffffffffffffffffffffff811681036103045790565b9190820180921161362057565b7f4e487b71000000000000000000000000000000000000000000000000000000005f52601160045260245ffd5b6136556139d6565b156137dd577f0000000000000000000000000000000000000000000000000000000000000000806137af575b613787577f0000000000000000000000000000000000000000000000000000000000000000801561377d57604082018051906136de7f00000000000000000000000000000000000000000000000000000000000000008093613420565b51926136fa836136f4845193610ead8386613420565b92613420565b5261370484613b8f565b9382608082015114613721575b509061371d9151613420565b5290565b805161372c816132e0565b613735816132e0565b6137745750835b838111156137115783907f37153449000000000000000000000000000000000000000000000000000000005f5260045260245260445ffd5b6020015161373c565b506134d890613b8f565b7f1269438a000000000000000000000000000000000000000000000000000000005f5260045ffd5b5060808101517f00000000000000000000000000000000000000000000000000000000000000001415613681565b7ffdf79845000000000000000000000000000000000000000000000000000000005f5260045ffd5b809103906101a0821261030457608060405192613821846130c0565b1261030457604051613832816130a4565b61383b82613368565b815261384960208301613368565b602082015261385a60408301613368565b604082015261386b60608301613368565b606082015282526080810151602083015260a0810151604083015260c0810151606083015260e081015164ffffffffff81168103610304576080830152610100908181015163ffffffff8116810361030457613907916101809160a0860152610120936138d9858301613368565b60c08701526138eb6101408301613368565b60e08701526138fd6101608301613368565b9086015201613368565b9082015290565b9060208282031261030457815167ffffffffffffffff8111610304576134d892016134db565b811561393e570490565b7f4e487b71000000000000000000000000000000000000000000000000000000005f52601260045260245ffd5b73ffffffffffffffffffffffffffffffffffffffff7f00000000000000000000000000000000000000000000000000000000000000001633036139aa57565b7f089676d5000000000000000000000000000000000000000000000000000000005f523360045260245ffd5b7f000000000000000000000000000000000000000000000000000000000000000042101580613a025790565b507f000000000000000000000000000000000000000000000000000000000000000042111590565b73ffffffffffffffffffffffffffffffffffffffff7f000000000000000000000000000000000000000000000000000000000000000016301480613b39575b15613a92577f000000000000000000000000000000000000000000000000000000000000000090565b60405160208101907f8b73c3c69bb8fe3d512ecc4cf759cc79239f7b179b0ffacaa9a75d522b39400f82527f000000000000000000000000000000000000000000000000000000000000000060408201527f000000000000000000000000000000000000000000000000000000000000000060608201524660808201523060a082015260a0815260c0810181811067ffffffffffffffff8211176106e85760405251902090565b507f00000000000000000000000000000000000000000000000000000000000000004614613a69565b73ffffffffffffffffffffffffffffffffffffffff5f54163303611c4057565b9190820391821161362057565b9060408201918251613ba76060830191825190613420565b519360018501809511613620575193613bc66080840195865190613420565b5191613bd3828251614221565b8351613bde816132e0565b613be7816132e0565b613cab57613bf590516143c8565b906020613c0287516143c8565b940151670de0b6b3a76400009182613c1982614a99565b048211613c8357613c2d613c339282613613565b90614cd7565b918181029080820483149015171561362057613c62613c7b93613c5c613c8197613c6f94613934565b90614ae0565b8281810391100284614acd565b049485905b5192613b82565b90614221565b565b7f340a4533000000000000000000000000000000000000000000000000000000005f5260045ffd5b613cb99095919395516143c8565b6020613cc583516143c8565b9601958651670de0b6b3a7640000613cdc86614a99565b048111613d4657613d0392613cfd613cf7613c5c9388613b82565b87614cd7565b92614cd7565b907ffffffffffffffffffffffffffffffffffffffffffffffffff21f494c589c0000820191821161362057613d3e613c7b92613c8195614b6b565b955190613c74565b7f64590b9f000000000000000000000000000000000000000000000000000000005f5260045ffd5b90613d78826145fd565b613d81816132e0565b613e9d5760025b613d90614101565b9080600114613e4a57600214613dcd577f4e487b71000000000000000000000000000000000000000000000000000000005f52605160045260245ffd5b5f91670de0b6b3a76400005b8251841015613e1557613e0d600191613e07613df58786613420565b51613e008888613420565b5190614ae0565b90614b6b565b930192613dd9565b925050508015613e225790565b7f26543689000000000000000000000000000000000000000000000000000000005f5260045ffd5b505f91670de0b6b3a76400005b8251841015613e1557670de0b6b3a7640000613e94600192613e8e613e7c8887613420565b51613e878989613420565b5190614b8d565b90614acd565b04930192613e57565b6001613d88565b6040517fca4f28030000000000000000000000000000000000000000000000000000000081523060048201525f8160248173ffffffffffffffffffffffffffffffffffffffff7f0000000000000000000000000000000000000000000000000000000000000000165afa90811561068e575f916140e7575b505190613f2882613154565b91613f366040519384613131565b808352601f19613f4582613154565b01366020850137827f0000000000000000000000000000000000000000000000000000000000000000613f7782613375565b527f0000000000000000000000000000000000000000000000000000000000000000613fa2826133af565b5260028211156140e257507f0000000000000000000000000000000000000000000000000000000000000000613fd7846133bf565b5260038111156140df577f000000000000000000000000000000000000000000000000000000000000000061400b846133cf565b5260048111156140df577f000000000000000000000000000000000000000000000000000000000000000061403f846133df565b5260058111156140df577f0000000000000000000000000000000000000000000000000000000000000000614073846133ef565b5260068111156140df576007907f00000000000000000000000000000000000000000000000000000000000000006140aa856133ff565b52116140b257565b7f00000000000000000000000000000000000000000000000000000000000000006140dc8361340f565b52565b50565b925050565b6140fb91503d805f833e6113758183613131565b5f613f1c565b60405161410d816130f9565b6002815260403660208301376141e36141b06141697f00000000000000000000000000000000000000000000000000000000000000007f0000000000000000000000000000000000000000000000000000000000000000614c2a565b7f00000000000000000000000000000000000000000000000000000000000000007f0000000000000000000000000000000000000000000000000000000000000000614c75565b7f0000000000000000000000000000000000000000000000000000000000000000906141dc8285613420565b5282613420565b51670de0b6b3a76400009081039081116136205761371d7f000000000000000000000000000000000000000000000000000000000000000083613420565b9081614287577f0000000000000000000000000000000000000000000000000000000000000000915b82821061425657505050565b7fd63c0233000000000000000000000000000000000000000000000000000000005f5260045260245260445260645ffd5b600182036142b6577f00000000000000000000000000000000000000000000000000000000000000009161424a565b600282036142e5577f00000000000000000000000000000000000000000000000000000000000000009161424a565b60038203614314577f00000000000000000000000000000000000000000000000000000000000000009161424a565b60048203614343577f00000000000000000000000000000000000000000000000000000000000000009161424a565b60058203614372577f00000000000000000000000000000000000000000000000000000000000000009161424a565b600682036143a1577f00000000000000000000000000000000000000000000000000000000000000009161424a565b7f00000000000000000000000000000000000000000000000000000000000000009161424a565b600281106143f8577fc1ab6dc1000000000000000000000000000000000000000000000000000000005f5260045ffd5b61440990614404614101565b613420565b5190565b60ff81146144615760ff811690601f8211614439576040519161442f83613115565b8252602082015290565b7fb3512b0c000000000000000000000000000000000000000000000000000000005f5260045ffd5b50604051600254815f61447383613317565b808352926020906001908181169081156144fd575060011461449e575b50506134d892500382613131565b91509260025f527f405787fa12a823e0f2b7631cc41b3ba8828b3321ca811111fa75cd3aa3bb5ace935f925b8284106144e557506134d89450505081016020015f80614490565b855487850183015294850194869450928101926144ca565b9050602093506134d89592507fffffffffffffffffffffffffffffffffffffffffffffffffffffffffffffff0091501682840152151560051b8201015f80614490565b60ff81146145625760ff811690601f8211614439576040519161442f83613115565b50604051600354815f61457483613317565b808352926020906001908181169081156144fd575060011461459e5750506134d892500382613131565b91509260035f527fc2575a0e9e593c00f959f8c92f12db2869c3395a3b0502d05e2516446f71f85b935f925b8284106145e557506134d89450505081016020015f80614490565b855487850183015294850194869450928101926145ca565b805161460882613375565b517f0000000000000000000000000000000000000000000000000000000000000000809110614923575061463b826133af565b517f00000000000000000000000000000000000000000000000000000000000000008091106148e65750600281111561480f57614677826133bf565b517f00000000000000000000000000000000000000000000000000000000000000008091106148a95750600381111561480f576146b3826133cf565b517f000000000000000000000000000000000000000000000000000000000000000080911061486c57506004908181111561481f576146f1836133df565b517f00000000000000000000000000000000000000000000000000000000000000008091106148305750600581111561481f5761472d836133ef565b517f00000000000000000000000000000000000000000000000000000000000000008091106148245750600681111561481f57614769836133ff565b517f000000000000000000000000000000000000000000000000000000000000000080911061481357506007101561480f576147a48261340f565b51917f00000000000000000000000000000000000000000000000000000000000000008093106147d357505050565b6147de60079161340f565b51917fd63c0233000000000000000000000000000000000000000000000000000000005f525260245260445260645ffd5b5050565b8260066147de866133ff565b505050565b8260056147de866133ef565b8261483a856133df565b51907fd63c0233000000000000000000000000000000000000000000000000000000005f52805260245260445260645ffd5b614875836133cf565b517fd63c0233000000000000000000000000000000000000000000000000000000005f52600360045260245260445260645ffd5b6148b2836133bf565b517fd63c0233000000000000000000000000000000000000000000000000000000005f52600260045260245260445260645ffd5b6148ef836133af565b517fd63c0233000000000000000000000000000000000000000000000000000000005f52600160045260245260445260645ffd5b61492c83613375565b517fd63c0233000000000000000000000000000000000000000000000000000000005f525f60045260245260445260645ffd5b91907f7fffffffffffffffffffffffffffffff5d576e7357a4501ddfe92f46681b20a084116149e3579160209360809260ff5f9560405194855216868401526040830152606082015282805260015afa1561068e575f5173ffffffffffffffffffffffffffffffffffffffff8116156149d957905f905f90565b505f906001905f90565b5050505f9160039190565b60048110156132ea5780614a00575050565b60018103614a30577ff645eedf000000000000000000000000000000000000000000000000000000005f5260045ffd5b60028103614a6457507ffce698f7000000000000000000000000000000000000000000000000000000005f5260045260245ffd5b600314614a6e5750565b7fd78bce0c000000000000000000000000000000000000000000000000000000005f5260045260245ffd5b90670429d069189e00009182810292818404149015171561362057565b906127109182810292818404149015171561362057565b8181029291811591840414171561362057565b90670de0b6b3a764000090818103614af757505090565b671bc16d674ec800008103614b12575050806134d891614b6b565b673782dace9d9000008103614b36575050614b30816134d892614b6b565b80614b6b565b614b409192614d54565b906001614b4c83614ab6565b915f19830104019015150260018101809111613620576134d891613613565b90614b7591614acd565b6001670de0b6b3a76400005f19830104019015150290565b670de0b6b3a764000091808303614ba45750905090565b8290671bc16d674ec800008103614bc557505080614bc191614acd565b0490565b673782dace9d9000008103614be95750614be282614bc193614acd565b0480614acd565b9050614bf491614d54565b614bfd81614ab6565b60015f1993848301040190151502906001820180831161362057811015614c25575050505f90565b030190565b428211614c3f575050670de0b6b3a764000090565b80421115614c6f5780420390670de0b6b3a7640000808302928304148142141715613620576134d8920390613934565b50505f90565b9190670de0b6b3a764000091828110801590614cce575b614cc7578015614cc1578382811115614cb15791614cab920390614acd565b04900390565b614cbc920390614acd565b040190565b50505090565b5091505090565b50818414614c8c565b908015614d0857670de0b6b3a764000091828102928184041490151715613620576001905f19830104019015150290565b7f0a0c22c7000000000000000000000000000000000000000000000000000000005f5260045ffd5b801561393e576ec097ce7bc90715b34b9f10000000000590565b811561393e570590565b908015615677578115614c6f578160ff1c61564f57770bce5086492111aea88f4bb1ca6bcf584181ea8059f765328110156156275781670c7d713b49da00001280615616575b156152b357670de0b6b3a7640000916ec097ce7bc90715b34b9f100000000090614ded908402828101907fffffffffffffffffffffffffffffffffff3f68318436f8ea4cb460f000000000018302614d4a565b9080828002059181838202058284820205838582020591848684020593858786020595808888020597880205600f900596600d900595600b900594600990059360079005926005900591600390050101010101010160011b918082818507020592050201670de0b6b3a7640000905b057ffffffffffffffffffffffffffffffffffffffffffffffffdc702bd3a30fc000081811315806152a0575b1561527857819082121580615265575b1561523d575f915f811261522e575b506064906806f05b59d3b200000081126151cb577ffffffffffffffffffffffffffffffffffffffffffffffff90fa4a62c4e0000000168056bc75e2d6310000082770195e54c5dd42177f53a27172fa9ec630262827000000000925b02819068ad78ebc5ac62000000811215615192575b6856bc75e2d631000000811215615158575b682b5e3af16b18800000811215615120575b6815af1d78b58c4000008112156150e8575b680ad78ebc5ac62000008112156150b1575b8281121561507a575b6802b5e3af16b1880000811215615043575b68015af1d78b58c4000081121561500c575b60028382800205056003848383020505600485848302050585600581868402050560068287830205056007838883020505906008848984020505926009858a8602050595600a868b8902050597600b878c8b02050599600c888d8d0205059b01010101010101010101010102050205905f146134d8576134d890614d30565b6806f5f17757889379377ffffffffffffffffffffffffffffffffffffffffffffffffea50e2874a73c000084920192020590614f8d565b6808f00f760a4b2db55d7ffffffffffffffffffffffffffffffffffffffffffffffffd4a1c50e94e78000084920192020590614f7b565b680ebc5fb417461211107ffffffffffffffffffffffffffffffffffffffffffffffffa9438a1d29cf0000084920192020590614f69565b68280e60114edb805d037ffffffffffffffffffffffffffffffffffffffffffffffff5287143a539e0000084920192020590614f60565b690127fa27722cc06cc5e27fffffffffffffffffffffffffffffffffffffffffffffffea50e2874a73c0000084920192020590614f4e565b693f1fce3da636ea5cf8507fffffffffffffffffffffffffffffffffffffffffffffffd4a1c50e94e780000084920192020590614f3c565b6b02df0ab5a80a22c61ab5a7007fffffffffffffffffffffffffffffffffffffffffffffffa9438a1d29cf00000084920192020590614f2a565b6e01855144814a7ff805980ff008400091507fffffffffffffffffffffffffffffffffffffffffffffff5287143a539e00000001614f18565b6803782dace9d9000000811261521b577ffffffffffffffffffffffffffffffffffffffffffffffffc87d25316270000000168056bc75e2d63100000826b1425982cf597cd205cef738092614f03565b68056bc75e2d6310000082600192614f03565b600192505f0390506064614ea7565b7fd4794efd000000000000000000000000000000000000000000000000000000005f5260045ffd5b5068070c1cc73b00c80000821315614e98565b7fa2f9f7e3000000000000000000000000000000000000000000000000000000005f5260045ffd5b5068070c1cc73b00c80000821315614e88565b81670de0b6b3a7640000925f91848112615600575b506064905f7e1600ef3172e58d2e933ec884fde10064c63b5372d805e203c00000000000008212156155d5575b73011798004d755d3c8bc8e03204cf44619e0000008212156155b4575b820290808302906e01855144814a7ff805980ff00840009081831215615591575b50506b02df0ab5a80a22c61ab5a70080821215615571575b50693f1fce3da636ea5cf85080821215615551575b50690127fa27722cc06cc5e280821215615531575b5068280e60114edb805d0380821215615511575b50680ebc5fb41746121110808212156154fa575b506808f00f760a4b2db55d808212156154da575b506806f5f1775788937937808212156154ba575b506806248f33704b2866038082121561549b575b506805c548670b9510e7ac8082121561547c575b5061542968056bc75e2d6310000091827ffffffffffffffffffffffffffffffffffffffffffffffffa9438a1d29cf00000818301920102614d4a565b9080828002059181838202058284820205916003600560076009600b888a89020598808b8b02059a8b0205059805960594059205010101010160011b0105905f14615477575f035b02614e5c565b615471565b68056bc75e2d631000006756bc75e2d63100009202059101905f6153ed565b68056bc75e2d6310000067ad78ebc5ac6200009202059101905f6153d9565b68056bc75e2d6310000068015af1d78b58c400009202059101905f6153c5565b68056bc75e2d631000006802b5e3af16b18800009202059101905f6153b1565b68056bc75e2d63100000809202059101905f61539d565b68056bc75e2d63100000680ad78ebc5ac62000009202059101905f615389565b68056bc75e2d631000006815af1d78b58c4000009202059101905f615375565b68056bc75e2d63100000682b5e3af16b188000009202059101905f615360565b68056bc75e2d631000006856bc75e2d6310000009202059101905f61534b565b68ad78ebc5ac62000000925069021e19e0c9bab240000002059101905f80615333565b906b1425982cf597cd205cef73806803782dace9d900000091059101615312565b50770195e54c5dd42177f53a27172fa9ec63026282700000000090056806f05b59d3b20000006152f5565b905061560c9150614d30565b60019060646152c8565b50670f43fc2c04ee00008212614d9a565b7fd8317311000000000000000000000000000000000000000000000000000000005f5260045ffd5b7f022701e0000000000000000000000000000000000000000000000000000000005f5260045ffd5b5050670de0b6b3a76400009056fea264697066735822122040a7f9836ba37be1a7297107ac58bbc403518b8077f8c50d871903347d1606ee64736f6c634300081b0033f652222313e28459528d920b65115c16c04f3efc82aaedc97be59f3f377c0d3f",
  "linkReferences": {},
  "deployedLinkReferences": {}
}