{
  "_format": "hh-sol-artifact-1",
  "contractName": "ReClammPool",
  "sourceName": "contracts/ReClammPool.sol",
  "abi": [
    {
      "inputs": [
        {
          "components": [
            {
              "internalType": "string",
              "name": "name",
              "type": "string"
            },
            {
              "internalType": "string",
              "name": "symbol",
              "type": "string"
            },
            {
              "internalType": "string",
              "name": "version",
              "type": "string"
            },
            {
              "internalType": "uint256",
              "name": "dailyPriceShiftExponent",
              "type": "uint256"
            },
            {
              "internalType": "uint64",
              "name": "centerednessMargin",
              "type": "uint64"
            },
            {
              "internalType": "uint256",
              "name": "initialMinPrice",
              "type": "uint256"
            },
            {
              "internalType": "uint256",
              "name": "initialMaxPrice",
              "type": "uint256"
            },
            {
              "internalType": "uint256",
              "name": "initialTargetPrice",
              "type": "uint256"
            },
            {
              "internalType": "bool",
              "name": "tokenAPriceIncludesRate",
              "type": "bool"
            },
            {
              "internalType": "bool",
              "name": "tokenBPriceIncludesRate",
              "type": "bool"
            }
          ],
          "internalType": "struct ReClammPoolParams",
          "name": "params",
          "type": "tuple"
        },
        {
          "internalType": "contract IVault",
          "name": "vault",
          "type": "address"
        },
        {
          "internalType": "contract ReClammPoolHelper",
          "name": "helper",
          "type": "address"
        }
      ],
      "stateMutability": "nonpayable",
      "type": "constructor"
    },
    {
      "inputs": [],
      "name": "AmountOutGreaterThanBalance",
      "type": "error"
    },
    {
      "inputs": [],
      "name": "BalanceRatioExceedsTolerance",
      "type": "error"
    },
    {
      "inputs": [],
      "name": "BaseOutOfBounds",
      "type": "error"
    },
    {
      "inputs": [],
      "name": "DailyPriceShiftExponentTooHigh",
      "type": "error"
    },
    {
      "inputs": [],
      "name": "DailyPriceShiftExponentTooLow",
      "type": "error"
    },
    {
      "inputs": [],
      "name": "ECDSAInvalidSignature",
      "type": "error"
    },
    {
      "inputs": [
        {
          "internalType": "uint256",
          "name": "length",
          "type": "uint256"
        }
      ],
      "name": "ECDSAInvalidSignatureLength",
      "type": "error"
    },
    {
      "inputs": [
        {
          "internalType": "bytes32",
          "name": "s",
          "type": "bytes32"
        }
      ],
      "name": "ECDSAInvalidSignatureS",
      "type": "error"
    },
    {
      "inputs": [
        {
          "internalType": "uint256",
          "name": "deadline",
          "type": "uint256"
        }
      ],
      "name": "ERC2612ExpiredSignature",
      "type": "error"
    },
    {
      "inputs": [
        {
          "internalType": "address",
          "name": "signer",
          "type": "address"
        },
        {
          "internalType": "address",
          "name": "owner",
          "type": "address"
        }
      ],
      "name": "ERC2612InvalidSigner",
      "type": "error"
    },
    {
      "inputs": [],
      "name": "ExponentOutOfBounds",
      "type": "error"
    },
    {
      "inputs": [
        {
          "internalType": "address",
          "name": "account",
          "type": "address"
        },
        {
          "internalType": "uint256",
          "name": "currentNonce",
          "type": "uint256"
        }
      ],
      "name": "InvalidAccountNonce",
      "type": "error"
    },
    {
      "inputs": [],
      "name": "InvalidCenterednessMargin",
      "type": "error"
    },
    {
      "inputs": [],
      "name": "InvalidExponent",
      "type": "error"
    },
    {
      "inputs": [],
      "name": "InvalidInitialPrice",
      "type": "error"
    },
    {
      "inputs": [],
      "name": "InvalidInitialTargetPrice",
      "type": "error"
    },
    {
      "inputs": [
        {
          "internalType": "address",
          "name": "pool",
          "type": "address"
        }
      ],
      "name": "InvalidPoolArgument",
      "type": "error"
    },
    {
      "inputs": [],
      "name": "InvalidShortString",
      "type": "error"
    },
    {
      "inputs": [
        {
          "internalType": "uint256",
          "name": "resolvedStartTime",
          "type": "uint256"
        },
        {
          "internalType": "uint256",
          "name": "endTime",
          "type": "uint256"
        }
      ],
      "name": "InvalidStartTime",
      "type": "error"
    },
    {
      "inputs": [],
      "name": "InvalidStartTime",
      "type": "error"
    },
    {
      "inputs": [],
      "name": "NotImplemented",
      "type": "error"
    },
    {
      "inputs": [],
      "name": "PoolAlreadyInitialized",
      "type": "error"
    },
    {
      "inputs": [],
      "name": "PoolNotInitialized",
      "type": "error"
    },
    {
      "inputs": [],
      "name": "PoolOutsideTargetRange",
      "type": "error"
    },
    {
      "inputs": [
        {
          "internalType": "uint256",
          "name": "priceRatio",
          "type": "uint256"
        }
      ],
      "name": "PriceRatioAboveMax",
      "type": "error"
    },
    {
      "inputs": [
        {
          "internalType": "uint256",
          "name": "priceRatio",
          "type": "uint256"
        }
      ],
      "name": "PriceRatioBelowMin",
      "type": "error"
    },
    {
      "inputs": [
        {
          "internalType": "uint256",
          "name": "priceRatioDelta",
          "type": "uint256"
        }
      ],
      "name": "PriceRatioDeltaBelowMin",
      "type": "error"
    },
    {
      "inputs": [],
      "name": "PriceRatioNotUpdating",
      "type": "error"
    },
    {
      "inputs": [],
      "name": "PriceRatioUpdateDurationTooShort",
      "type": "error"
    },
    {
      "inputs": [],
      "name": "PriceRatioUpdateTooFast",
      "type": "error"
    },
    {
      "inputs": [],
      "name": "ProductOutOfBounds",
      "type": "error"
    },
    {
      "inputs": [],
      "name": "ReClammPoolBptRateUnsupported",
      "type": "error"
    },
    {
      "inputs": [
        {
          "internalType": "uint8",
          "name": "bits",
          "type": "uint8"
        },
        {
          "internalType": "uint256",
          "name": "value",
          "type": "uint256"
        }
      ],
      "name": "SafeCastOverflowedUintDowncast",
      "type": "error"
    },
    {
      "inputs": [
        {
          "internalType": "address",
          "name": "sender",
          "type": "address"
        }
      ],
      "name": "SenderIsNotVault",
      "type": "error"
    },
    {
      "inputs": [],
      "name": "SenderNotAllowed",
      "type": "error"
    },
    {
      "inputs": [
        {
          "internalType": "string",
          "name": "str",
          "type": "string"
        }
      ],
      "name": "StringTooLong",
      "type": "error"
    },
    {
      "inputs": [],
      "name": "VaultIsNotLocked",
      "type": "error"
    },
    {
      "inputs": [],
      "name": "VaultNotSet",
      "type": "error"
    },
    {
      "inputs": [],
      "name": "WrongInitializationPrices",
      "type": "error"
    },
    {
      "inputs": [],
      "name": "ZeroDivision",
      "type": "error"
    },
    {
      "inputs": [],
      "name": "ZeroVirtualBalance",
      "type": "error"
    },
    {
      "anonymous": false,
      "inputs": [
        {
          "indexed": true,
          "internalType": "address",
          "name": "owner",
          "type": "address"
        },
        {
          "indexed": true,
          "internalType": "address",
          "name": "spender",
          "type": "address"
        },
        {
          "indexed": false,
          "internalType": "uint256",
          "name": "value",
          "type": "uint256"
        }
      ],
      "name": "Approval",
      "type": "event"
    },
    {
      "anonymous": false,
      "inputs": [
        {
          "indexed": false,
          "internalType": "uint256",
          "name": "centerednessMargin",
          "type": "uint256"
        }
      ],
      "name": "CenterednessMarginUpdated",
      "type": "event"
    },
    {
      "anonymous": false,
      "inputs": [
        {
          "indexed": false,
          "internalType": "uint256",
          "name": "dailyPriceShiftExponent",
          "type": "uint256"
        },
        {
          "indexed": false,
          "internalType": "uint256",
          "name": "dailyPriceShiftBase",
          "type": "uint256"
        }
      ],
      "name": "DailyPriceShiftExponentUpdated",
      "type": "event"
    },
    {
      "anonymous": false,
      "inputs": [],
      "name": "EIP712DomainChanged",
      "type": "event"
    },
    {
      "anonymous": false,
      "inputs": [
        {
          "indexed": false,
          "internalType": "uint32",
          "name": "lastTimestamp",
          "type": "uint32"
        }
      ],
      "name": "LastTimestampUpdated",
      "type": "event"
    },
    {
      "anonymous": false,
      "inputs": [
        {
          "indexed": false,
          "internalType": "uint256",
          "name": "startFourthRootPriceRatio",
          "type": "uint256"
        },
        {
          "indexed": false,
          "internalType": "uint256",
          "name": "endFourthRootPriceRatio",
          "type": "uint256"
        },
        {
          "indexed": false,
          "internalType": "uint256",
          "name": "priceRatioUpdateStartTime",
          "type": "uint256"
        },
        {
          "indexed": false,
          "internalType": "uint256",
          "name": "priceRatioUpdateEndTime",
          "type": "uint256"
        }
      ],
      "name": "PriceRatioStateUpdated",
      "type": "event"
    },
    {
      "anonymous": false,
      "inputs": [
        {
          "indexed": true,
          "internalType": "address",
          "name": "from",
          "type": "address"
        },
        {
          "indexed": true,
          "internalType": "address",
          "name": "to",
          "type": "address"
        },
        {
          "indexed": false,
          "internalType": "uint256",
          "name": "value",
          "type": "uint256"
        }
      ],
      "name": "Transfer",
      "type": "event"
    },
    {
      "anonymous": false,
      "inputs": [
        {
          "indexed": false,
          "internalType": "uint256",
          "name": "virtualBalanceA",
          "type": "uint256"
        },
        {
          "indexed": false,
          "internalType": "uint256",
          "name": "virtualBalanceB",
          "type": "uint256"
        }
      ],
      "name": "VirtualBalancesUpdated",
      "type": "event"
    },
    {
      "inputs": [],
      "name": "DOMAIN_SEPARATOR",
      "outputs": [
        {
          "internalType": "bytes32",
          "name": "",
          "type": "bytes32"
        }
      ],
      "stateMutability": "view",
      "type": "function"
    },
    {
      "inputs": [],
      "name": "PERMIT_TYPEHASH",
      "outputs": [
        {
          "internalType": "bytes32",
          "name": "",
          "type": "bytes32"
        }
      ],
      "stateMutability": "view",
      "type": "function"
    },
    {
      "inputs": [
        {
          "internalType": "address",
          "name": "owner",
          "type": "address"
        },
        {
          "internalType": "address",
          "name": "spender",
          "type": "address"
        }
      ],
      "name": "allowance",
      "outputs": [
        {
          "internalType": "uint256",
          "name": "",
          "type": "uint256"
        }
      ],
      "stateMutability": "view",
      "type": "function"
    },
    {
      "inputs": [
        {
          "internalType": "address",
          "name": "spender",
          "type": "address"
        },
        {
          "internalType": "uint256",
          "name": "amount",
          "type": "uint256"
        }
      ],
      "name": "approve",
      "outputs": [
        {
          "internalType": "bool",
          "name": "",
          "type": "bool"
        }
      ],
      "stateMutability": "nonpayable",
      "type": "function"
    },
    {
      "inputs": [
        {
          "internalType": "address",
          "name": "account",
          "type": "address"
        }
      ],
      "name": "balanceOf",
      "outputs": [
        {
          "internalType": "uint256",
          "name": "",
          "type": "uint256"
        }
      ],
      "stateMutability": "view",
      "type": "function"
    },
    {
      "inputs": [
        {
          "internalType": "uint256[]",
          "name": "",
          "type": "uint256[]"
        },
        {
          "internalType": "uint256",
          "name": "",
          "type": "uint256"
        },
        {
          "internalType": "uint256",
          "name": "",
          "type": "uint256"
        }
      ],
      "name": "computeBalance",
      "outputs": [
        {
          "internalType": "uint256",
          "name": "",
          "type": "uint256"
        }
      ],
      "stateMutability": "pure",
      "type": "function"
    },
    {
      "inputs": [],
      "name": "computeCurrentFourthRootPriceRatio",
      "outputs": [
        {
          "internalType": "uint256",
          "name": "",
          "type": "uint256"
        }
      ],
      "stateMutability": "view",
      "type": "function"
    },
    {
      "inputs": [],
      "name": "computeCurrentPoolCenteredness",
      "outputs": [
        {
          "internalType": "uint256",
          "name": "",
          "type": "uint256"
        },
        {
          "internalType": "bool",
          "name": "",
          "type": "bool"
        }
      ],
      "stateMutability": "view",
      "type": "function"
    },
    {
      "inputs": [],
      "name": "computeCurrentPriceRange",
      "outputs": [
        {
          "internalType": "uint256",
          "name": "minPrice",
          "type": "uint256"
        },
        {
          "internalType": "uint256",
          "name": "maxPrice",
          "type": "uint256"
        }
      ],
      "stateMutability": "view",
      "type": "function"
    },
    {
      "inputs": [],
      "name": "computeCurrentPriceRatio",
      "outputs": [
        {
          "internalType": "uint256",
          "name": "",
          "type": "uint256"
        }
      ],
      "stateMutability": "view",
      "type": "function"
    },
    {
      "inputs": [],
      "name": "computeCurrentVirtualBalances",
      "outputs": [
        {
          "internalType": "uint256",
          "name": "currentVirtualBalanceA",
          "type": "uint256"
        },
        {
          "internalType": "uint256",
          "name": "currentVirtualBalanceB",
          "type": "uint256"
        },
        {
          "internalType": "bool",
          "name": "changed",
          "type": "bool"
        }
      ],
      "stateMutability": "view",
      "type": "function"
    },
    {
      "inputs": [
        {
          "internalType": "contract IERC20",
          "name": "referenceToken",
          "type": "address"
        },
        {
          "internalType": "uint256",
          "name": "referenceAmountInRaw",
          "type": "uint256"
        }
      ],
      "name": "computeInitialBalancesRaw",
      "outputs": [
        {
          "internalType": "uint256[]",
          "name": "initialBalancesRaw",
          "type": "uint256[]"
        }
      ],
      "stateMutability": "view",
      "type": "function"
    },
    {
      "inputs": [
        {
          "internalType": "uint256[]",
          "name": "balancesScaled18",
          "type": "uint256[]"
        },
        {
          "internalType": "enum Rounding",
          "name": "rounding",
          "type": "uint8"
        }
      ],
      "name": "computeInvariant",
      "outputs": [
        {
          "internalType": "uint256",
          "name": "",
          "type": "uint256"
        }
      ],
      "stateMutability": "view",
      "type": "function"
    },
    {
      "inputs": [],
      "name": "decimals",
      "outputs": [
        {
          "internalType": "uint8",
          "name": "",
          "type": "uint8"
        }
      ],
      "stateMutability": "pure",
      "type": "function"
    },
    {
      "inputs": [],
      "name": "eip712Domain",
      "outputs": [
        {
          "internalType": "bytes1",
          "name": "fields",
          "type": "bytes1"
        },
        {
          "internalType": "string",
          "name": "name",
          "type": "string"
        },
        {
          "internalType": "string",
          "name": "version",
          "type": "string"
        },
        {
          "internalType": "uint256",
          "name": "chainId",
          "type": "uint256"
        },
        {
          "internalType": "address",
          "name": "verifyingContract",
          "type": "address"
        },
        {
          "internalType": "bytes32",
          "name": "salt",
          "type": "bytes32"
        },
        {
          "internalType": "uint256[]",
          "name": "extensions",
          "type": "uint256[]"
        }
      ],
      "stateMutability": "view",
      "type": "function"
    },
    {
      "inputs": [
        {
          "internalType": "address",
          "name": "owner",
          "type": "address"
        },
        {
          "internalType": "address",
          "name": "spender",
          "type": "address"
        },
        {
          "internalType": "uint256",
          "name": "amount",
          "type": "uint256"
        }
      ],
      "name": "emitApproval",
      "outputs": [],
      "stateMutability": "nonpayable",
      "type": "function"
    },
    {
      "inputs": [
        {
          "internalType": "address",
          "name": "from",
          "type": "address"
        },
        {
          "internalType": "address",
          "name": "to",
          "type": "address"
        },
        {
          "internalType": "uint256",
          "name": "amount",
          "type": "uint256"
        }
      ],
      "name": "emitTransfer",
      "outputs": [],
      "stateMutability": "nonpayable",
      "type": "function"
    },
    {
      "inputs": [
        {
          "internalType": "bytes4",
          "name": "selector",
          "type": "bytes4"
        }
      ],
      "name": "getActionId",
      "outputs": [
        {
          "internalType": "bytes32",
          "name": "",
          "type": "bytes32"
        }
      ],
      "stateMutability": "view",
      "type": "function"
    },
    {
      "inputs": [],
      "name": "getAggregateFeePercentages",
      "outputs": [
        {
          "internalType": "uint256",
          "name": "aggregateSwapFeePercentage",
          "type": "uint256"
        },
        {
          "internalType": "uint256",
          "name": "aggregateYieldFeePercentage",
          "type": "uint256"
        }
      ],
      "stateMutability": "view",
      "type": "function"
    },
    {
      "inputs": [],
      "name": "getCenterednessMargin",
      "outputs": [
        {
          "internalType": "uint256",
          "name": "",
          "type": "uint256"
        }
      ],
      "stateMutability": "view",
      "type": "function"
    },
    {
      "inputs": [],
      "name": "getCurrentLiveBalances",
      "outputs": [
        {
          "internalType": "uint256[]",
          "name": "balancesLiveScaled18",
          "type": "uint256[]"
        }
      ],
      "stateMutability": "view",
      "type": "function"
    },
    {
      "inputs": [],
      "name": "getDailyPriceShiftBase",
      "outputs": [
        {
          "internalType": "uint256",
          "name": "",
          "type": "uint256"
        }
      ],
      "stateMutability": "view",
      "type": "function"
    },
    {
      "inputs": [],
      "name": "getDailyPriceShiftExponent",
      "outputs": [
        {
          "internalType": "uint256",
          "name": "",
          "type": "uint256"
        }
      ],
      "stateMutability": "view",
      "type": "function"
    },
    {
      "inputs": [],
      "name": "getHookFlags",
      "outputs": [
        {
          "components": [
            {
              "internalType": "bool",
              "name": "enableHookAdjustedAmounts",
              "type": "bool"
            },
            {
              "internalType": "bool",
              "name": "shouldCallBeforeInitialize",
              "type": "bool"
            },
            {
              "internalType": "bool",
              "name": "shouldCallAfterInitialize",
              "type": "bool"
            },
            {
              "internalType": "bool",
              "name": "shouldCallComputeDynamicSwapFee",
              "type": "bool"
            },
            {
              "internalType": "bool",
              "name": "shouldCallBeforeSwap",
              "type": "bool"
            },
            {
              "internalType": "bool",
              "name": "shouldCallAfterSwap",
              "type": "bool"
            },
            {
              "internalType": "bool",
              "name": "shouldCallBeforeAddLiquidity",
              "type": "bool"
            },
            {
              "internalType": "bool",
              "name": "shouldCallAfterAddLiquidity",
              "type": "bool"
            },
            {
              "internalType": "bool",
              "name": "shouldCallBeforeRemoveLiquidity",
              "type": "bool"
            },
            {
              "internalType": "bool",
              "name": "shouldCallAfterRemoveLiquidity",
              "type": "bool"
            }
          ],
          "internalType": "struct HookFlags",
          "name": "hookFlags",
          "type": "tuple"
        }
      ],
      "stateMutability": "pure",
      "type": "function"
    },
    {
      "inputs": [],
      "name": "getLastTimestamp",
      "outputs": [
        {
          "internalType": "uint32",
          "name": "",
          "type": "uint32"
        }
      ],
      "stateMutability": "view",
      "type": "function"
    },
    {
      "inputs": [],
      "name": "getLastVirtualBalances",
      "outputs": [
        {
          "internalType": "uint256",
          "name": "virtualBalanceA",
          "type": "uint256"
        },
        {
          "internalType": "uint256",
          "name": "virtualBalanceB",
          "type": "uint256"
        }
      ],
      "stateMutability": "view",
      "type": "function"
    },
    {
      "inputs": [],
      "name": "getMaximumInvariantRatio",
      "outputs": [
        {
          "internalType": "uint256",
          "name": "",
          "type": "uint256"
        }
      ],
      "stateMutability": "pure",
      "type": "function"
    },
    {
      "inputs": [],
      "name": "getMaximumSwapFeePercentage",
      "outputs": [
        {
          "internalType": "uint256",
          "name": "",
          "type": "uint256"
        }
      ],
      "stateMutability": "pure",
      "type": "function"
    },
    {
      "inputs": [],
      "name": "getMinimumInvariantRatio",
      "outputs": [
        {
          "internalType": "uint256",
          "name": "",
          "type": "uint256"
        }
      ],
      "stateMutability": "pure",
      "type": "function"
    },
    {
      "inputs": [],
      "name": "getMinimumSwapFeePercentage",
      "outputs": [
        {
          "internalType": "uint256",
          "name": "",
          "type": "uint256"
        }
      ],
      "stateMutability": "pure",
      "type": "function"
    },
    {
      "inputs": [],
      "name": "getPriceRatioState",
      "outputs": [
        {
          "components": [
            {
              "internalType": "uint96",
              "name": "startFourthRootPriceRatio",
              "type": "uint96"
            },
            {
              "internalType": "uint96",
              "name": "endFourthRootPriceRatio",
              "type": "uint96"
            },
            {
              "internalType": "uint32",
              "name": "priceRatioUpdateStartTime",
              "type": "uint32"
            },
            {
              "internalType": "uint32",
              "name": "priceRatioUpdateEndTime",
              "type": "uint32"
            }
          ],
          "internalType": "struct PriceRatioState",
          "name": "",
          "type": "tuple"
        }
      ],
      "stateMutability": "view",
      "type": "function"
    },
    {
      "inputs": [],
      "name": "getRate",
      "outputs": [
        {
          "internalType": "uint256",
          "name": "",
          "type": "uint256"
        }
      ],
      "stateMutability": "pure",
      "type": "function"
    },
    {
      "inputs": [],
      "name": "getReClammPoolDynamicData",
      "outputs": [
        {
          "components": [
            {
              "internalType": "uint256[]",
              "name": "balancesLiveScaled18",
              "type": "uint256[]"
            },
            {
              "internalType": "uint256[]",
              "name": "tokenRates",
              "type": "uint256[]"
            },
            {
              "internalType": "uint256",
              "name": "staticSwapFeePercentage",
              "type": "uint256"
            },
            {
              "internalType": "uint256",
              "name": "totalSupply",
              "type": "uint256"
            },
            {
              "internalType": "uint256",
              "name": "lastTimestamp",
              "type": "uint256"
            },
            {
              "internalType": "uint256[]",
              "name": "lastVirtualBalances",
              "type": "uint256[]"
            },
            {
              "internalType": "uint256",
              "name": "dailyPriceShiftExponent",
              "type": "uint256"
            },
            {
              "internalType": "uint256",
              "name": "dailyPriceShiftBase",
              "type": "uint256"
            },
            {
              "internalType": "uint256",
              "name": "centerednessMargin",
              "type": "uint256"
            },
            {
              "internalType": "uint256",
              "name": "currentPriceRatio",
              "type": "uint256"
            },
            {
              "internalType": "uint256",
              "name": "currentFourthRootPriceRatio",
              "type": "uint256"
            },
            {
              "internalType": "uint256",
              "name": "startFourthRootPriceRatio",
              "type": "uint256"
            },
            {
              "internalType": "uint256",
              "name": "endFourthRootPriceRatio",
              "type": "uint256"
            },
            {
              "internalType": "uint32",
              "name": "priceRatioUpdateStartTime",
              "type": "uint32"
            },
            {
              "internalType": "uint32",
              "name": "priceRatioUpdateEndTime",
              "type": "uint32"
            },
            {
              "internalType": "bool",
              "name": "isPoolInitialized",
              "type": "bool"
            },
            {
              "internalType": "bool",
              "name": "isPoolPaused",
              "type": "bool"
            },
            {
              "internalType": "bool",
              "name": "isPoolInRecoveryMode",
              "type": "bool"
            }
          ],
          "internalType": "struct ReClammPoolDynamicData",
          "name": "data",
          "type": "tuple"
        }
      ],
      "stateMutability": "view",
      "type": "function"
    },
    {
      "inputs": [],
      "name": "getReClammPoolImmutableData",
      "outputs": [
        {
          "components": [
            {
              "internalType": "contract IERC20[]",
              "name": "tokens",
              "type": "address[]"
            },
            {
              "internalType": "uint256[]",
              "name": "decimalScalingFactors",
              "type": "uint256[]"
            },
            {
              "internalType": "bool",
              "name": "tokenAPriceIncludesRate",
              "type": "bool"
            },
            {
              "internalType": "bool",
              "name": "tokenBPriceIncludesRate",
              "type": "bool"
            },
            {
              "internalType": "uint256",
              "name": "minSwapFeePercentage",
              "type": "uint256"
            },
            {
              "internalType": "uint256",
              "name": "maxSwapFeePercentage",
              "type": "uint256"
            },
            {
              "internalType": "uint256",
              "name": "initialMinPrice",
              "type": "uint256"
            },
            {
              "internalType": "uint256",
              "name": "initialMaxPrice",
              "type": "uint256"
            },
            {
              "internalType": "uint256",
              "name": "initialTargetPrice",
              "type": "uint256"
            },
            {
              "internalType": "uint256",
              "name": "initialDailyPriceShiftExponent",
              "type": "uint256"
            },
            {
              "internalType": "uint256",
              "name": "initialCenterednessMargin",
              "type": "uint256"
            },
            {
              "internalType": "uint256",
              "name": "minPriceRatio",
              "type": "uint256"
            },
            {
              "internalType": "uint256",
              "name": "maxPriceRatio",
              "type": "uint256"
            },
            {
              "internalType": "uint256",
              "name": "maxCenterednessMargin",
              "type": "uint256"
            },
            {
              "internalType": "uint256",
              "name": "maxDailyPriceShiftExponent",
              "type": "uint256"
            },
            {
              "internalType": "uint256",
              "name": "maxDailyPriceRatioUpdateRate",
              "type": "uint256"
            },
            {
              "internalType": "uint256",
              "name": "minPriceRatioUpdateDuration",
              "type": "uint256"
            },
            {
              "internalType": "uint256",
              "name": "minPriceRatioDelta",
              "type": "uint256"
            },
            {
              "internalType": "uint256",
              "name": "balanceRatioAndPriceTolerance",
              "type": "uint256"
            }
          ],
          "internalType": "struct ReClammPoolImmutableData",
          "name": "data",
          "type": "tuple"
        }
      ],
      "stateMutability": "view",
      "type": "function"
    },
    {
      "inputs": [],
      "name": "getStaticSwapFeePercentage",
      "outputs": [
        {
          "internalType": "uint256",
          "name": "",
          "type": "uint256"
        }
      ],
      "stateMutability": "view",
      "type": "function"
    },
    {
      "inputs": [],
      "name": "getTokenInfo",
      "outputs": [
        {
          "internalType": "contract IERC20[]",
          "name": "tokens",
          "type": "address[]"
        },
        {
          "components": [
            {
              "internalType": "enum TokenType",
              "name": "tokenType",
              "type": "uint8"
            },
            {
              "internalType": "contract IRateProvider",
              "name": "rateProvider",
              "type": "address"
            },
            {
              "internalType": "bool",
              "name": "paysYieldFees",
              "type": "bool"
            }
          ],
          "internalType": "struct TokenInfo[]",
          "name": "tokenInfo",
          "type": "tuple[]"
        },
        {
          "internalType": "uint256[]",
          "name": "balancesRaw",
          "type": "uint256[]"
        },
        {
          "internalType": "uint256[]",
          "name": "lastBalancesLiveScaled18",
          "type": "uint256[]"
        }
      ],
      "stateMutability": "view",
      "type": "function"
    },
    {
      "inputs": [],
      "name": "getTokens",
      "outputs": [
        {
          "internalType": "contract IERC20[]",
          "name": "tokens",
          "type": "address[]"
        }
      ],
      "stateMutability": "view",
      "type": "function"
    },
    {
      "inputs": [],
      "name": "getVault",
      "outputs": [
        {
          "internalType": "contract IVault",
          "name": "",
          "type": "address"
        }
      ],
      "stateMutability": "view",
      "type": "function"
    },
    {
      "inputs": [],
      "name": "incrementNonce",
      "outputs": [],
      "stateMutability": "nonpayable",
      "type": "function"
    },
    {
      "inputs": [],
      "name": "isPoolWithinTargetRange",
      "outputs": [
        {
          "internalType": "bool",
          "name": "",
          "type": "bool"
        }
      ],
      "stateMutability": "view",
      "type": "function"
    },
    {
      "inputs": [],
      "name": "name",
      "outputs": [
        {
          "internalType": "string",
          "name": "",
          "type": "string"
        }
      ],
      "stateMutability": "view",
      "type": "function"
    },
    {
      "inputs": [
        {
          "internalType": "address",
          "name": "owner",
          "type": "address"
        }
      ],
      "name": "nonces",
      "outputs": [
        {
          "internalType": "uint256",
          "name": "",
          "type": "uint256"
        }
      ],
      "stateMutability": "view",
      "type": "function"
    },
    {
      "inputs": [
        {
          "internalType": "address",
          "name": "",
          "type": "address"
        },
        {
          "internalType": "address",
          "name": "",
          "type": "address"
        },
        {
          "internalType": "enum AddLiquidityKind",
          "name": "",
          "type": "uint8"
        },
        {
          "internalType": "uint256[]",
          "name": "",
          "type": "uint256[]"
        },
        {
          "internalType": "uint256[]",
          "name": "amountsInRaw",
          "type": "uint256[]"
        },
        {
          "internalType": "uint256",
          "name": "",
          "type": "uint256"
        },
        {
          "internalType": "uint256[]",
          "name": "",
          "type": "uint256[]"
        },
        {
          "internalType": "bytes",
          "name": "",
          "type": "bytes"
        }
      ],
      "name": "onAfterAddLiquidity",
      "outputs": [
        {
          "internalType": "bool",
          "name": "",
          "type": "bool"
        },
        {
          "internalType": "uint256[]",
          "name": "",
          "type": "uint256[]"
        }
      ],
      "stateMutability": "nonpayable",
      "type": "function"
    },
    {
      "inputs": [
        {
          "internalType": "uint256[]",
          "name": "",
          "type": "uint256[]"
        },
        {
          "internalType": "uint256",
          "name": "",
          "type": "uint256"
        },
        {
          "internalType": "bytes",
          "name": "",
          "type": "bytes"
        }
      ],
      "name": "onAfterInitialize",
      "outputs": [
        {
          "internalType": "bool",
          "name": "",
          "type": "bool"
        }
      ],
      "stateMutability": "nonpayable",
      "type": "function"
    },
    {
      "inputs": [
        {
          "internalType": "address",
          "name": "",
          "type": "address"
        },
        {
          "internalType": "address",
          "name": "",
          "type": "address"
        },
        {
          "internalType": "enum RemoveLiquidityKind",
          "name": "",
          "type": "uint8"
        },
        {
          "internalType": "uint256",
          "name": "",
          "type": "uint256"
        },
        {
          "internalType": "uint256[]",
          "name": "",
          "type": "uint256[]"
        },
        {
          "internalType": "uint256[]",
          "name": "amountsOutRaw",
          "type": "uint256[]"
        },
        {
          "internalType": "uint256[]",
          "name": "",
          "type": "uint256[]"
        },
        {
          "internalType": "bytes",
          "name": "",
          "type": "bytes"
        }
      ],
      "name": "onAfterRemoveLiquidity",
      "outputs": [
        {
          "internalType": "bool",
          "name": "",
          "type": "bool"
        },
        {
          "internalType": "uint256[]",
          "name": "",
          "type": "uint256[]"
        }
      ],
      "stateMutability": "nonpayable",
      "type": "function"
    },
    {
      "inputs": [
        {
          "components": [
            {
              "internalType": "enum SwapKind",
              "name": "kind",
              "type": "uint8"
            },
            {
              "internalType": "contract IERC20",
              "name": "tokenIn",
              "type": "address"
            },
            {
              "internalType": "contract IERC20",
              "name": "tokenOut",
              "type": "address"
            },
            {
              "internalType": "uint256",
              "name": "amountInScaled18",
              "type": "uint256"
            },
            {
              "internalType": "uint256",
              "name": "amountOutScaled18",
              "type": "uint256"
            },
            {
              "internalType": "uint256",
              "name": "tokenInBalanceScaled18",
              "type": "uint256"
            },
            {
              "internalType": "uint256",
              "name": "tokenOutBalanceScaled18",
              "type": "uint256"
            },
            {
              "internalType": "uint256",
              "name": "amountCalculatedScaled18",
              "type": "uint256"
            },
            {
              "internalType": "uint256",
              "name": "amountCalculatedRaw",
              "type": "uint256"
            },
            {
              "internalType": "address",
              "name": "router",
              "type": "address"
            },
            {
              "internalType": "address",
              "name": "pool",
              "type": "address"
            },
            {
              "internalType": "bytes",
              "name": "userData",
              "type": "bytes"
            }
          ],
          "internalType": "struct AfterSwapParams",
          "name": "",
          "type": "tuple"
        }
      ],
      "name": "onAfterSwap",
      "outputs": [
        {
          "internalType": "bool",
          "name": "",
          "type": "bool"
        },
        {
          "internalType": "uint256",
          "name": "",
          "type": "uint256"
        }
      ],
      "stateMutability": "nonpayable",
      "type": "function"
    },
    {
      "inputs": [
        {
          "internalType": "address",
          "name": "",
          "type": "address"
        },
        {
          "internalType": "address",
          "name": "pool",
          "type": "address"
        },
        {
          "internalType": "enum AddLiquidityKind",
          "name": "",
          "type": "uint8"
        },
        {
          "internalType": "uint256[]",
          "name": "",
          "type": "uint256[]"
        },
        {
          "internalType": "uint256",
          "name": "exactBptAmountOut",
          "type": "uint256"
        },
        {
          "internalType": "uint256[]",
          "name": "balancesScaled18",
          "type": "uint256[]"
        },
        {
          "internalType": "bytes",
          "name": "",
          "type": "bytes"
        }
      ],
      "name": "onBeforeAddLiquidity",
      "outputs": [
        {
          "internalType": "bool",
          "name": "",
          "type": "bool"
        }
      ],
      "stateMutability": "nonpayable",
      "type": "function"
    },
    {
      "inputs": [
        {
          "internalType": "uint256[]",
          "name": "balancesScaled18",
          "type": "uint256[]"
        },
        {
          "internalType": "bytes",
          "name": "",
          "type": "bytes"
        }
      ],
      "name": "onBeforeInitialize",
      "outputs": [
        {
          "internalType": "bool",
          "name": "",
          "type": "bool"
        }
      ],
      "stateMutability": "nonpayable",
      "type": "function"
    },
    {
      "inputs": [
        {
          "internalType": "address",
          "name": "",
          "type": "address"
        },
        {
          "internalType": "address",
          "name": "pool",
          "type": "address"
        },
        {
          "internalType": "enum RemoveLiquidityKind",
          "name": "",
          "type": "uint8"
        },
        {
          "internalType": "uint256",
          "name": "exactBptAmountIn",
          "type": "uint256"
        },
        {
          "internalType": "uint256[]",
          "name": "",
          "type": "uint256[]"
        },
        {
          "internalType": "uint256[]",
          "name": "balancesScaled18",
          "type": "uint256[]"
        },
        {
          "internalType": "bytes",
          "name": "",
          "type": "bytes"
        }
      ],
      "name": "onBeforeRemoveLiquidity",
      "outputs": [
        {
          "internalType": "bool",
          "name": "",
          "type": "bool"
        }
      ],
      "stateMutability": "nonpayable",
      "type": "function"
    },
    {
      "inputs": [
        {
          "components": [
            {
              "internalType": "enum SwapKind",
              "name": "kind",
              "type": "uint8"
            },
            {
              "internalType": "uint256",
              "name": "amountGivenScaled18",
              "type": "uint256"
            },
            {
              "internalType": "uint256[]",
              "name": "balancesScaled18",
              "type": "uint256[]"
            },
            {
              "internalType": "uint256",
              "name": "indexIn",
              "type": "uint256"
            },
            {
              "internalType": "uint256",
              "name": "indexOut",
              "type": "uint256"
            },
            {
              "internalType": "address",
              "name": "router",
              "type": "address"
            },
            {
              "internalType": "bytes",
              "name": "userData",
              "type": "bytes"
            }
          ],
          "internalType": "struct PoolSwapParams",
          "name": "",
          "type": "tuple"
        },
        {
          "internalType": "address",
          "name": "",
          "type": "address"
        }
      ],
      "name": "onBeforeSwap",
      "outputs": [
        {
          "internalType": "bool",
          "name": "",
          "type": "bool"
        }
      ],
      "stateMutability": "nonpayable",
      "type": "function"
    },
    {
      "inputs": [
        {
          "components": [
            {
              "internalType": "enum SwapKind",
              "name": "kind",
              "type": "uint8"
            },
            {
              "internalType": "uint256",
              "name": "amountGivenScaled18",
              "type": "uint256"
            },
            {
              "internalType": "uint256[]",
              "name": "balancesScaled18",
              "type": "uint256[]"
            },
            {
              "internalType": "uint256",
              "name": "indexIn",
              "type": "uint256"
            },
            {
              "internalType": "uint256",
              "name": "indexOut",
              "type": "uint256"
            },
            {
              "internalType": "address",
              "name": "router",
              "type": "address"
            },
            {
              "internalType": "bytes",
              "name": "userData",
              "type": "bytes"
            }
          ],
          "internalType": "struct PoolSwapParams",
          "name": "",
          "type": "tuple"
        },
        {
          "internalType": "address",
          "name": "",
          "type": "address"
        },
        {
          "internalType": "uint256",
          "name": "",
          "type": "uint256"
        }
      ],
      "name": "onComputeDynamicSwapFeePercentage",
      "outputs": [
        {
          "internalType": "bool",
          "name": "",
          "type": "bool"
        },
        {
          "internalType": "uint256",
          "name": "",
          "type": "uint256"
        }
      ],
      "stateMutability": "view",
      "type": "function"
    },
    {
      "inputs": [
        {
          "internalType": "address",
          "name": "",
          "type": "address"
        },
        {
          "internalType": "address",
          "name": "pool",
          "type": "address"
        },
        {
          "components": [
            {
              "internalType": "contract IERC20",
              "name": "token",
              "type": "address"
            },
            {
              "internalType": "enum TokenType",
              "name": "tokenType",
              "type": "uint8"
            },
            {
              "internalType": "contract IRateProvider",
              "name": "rateProvider",
              "type": "address"
            },
            {
              "internalType": "bool",
              "name": "paysYieldFees",
              "type": "bool"
            }
          ],
          "internalType": "struct TokenConfig[]",
          "name": "tokenConfig",
          "type": "tuple[]"
        },
        {
          "components": [
            {
              "internalType": "bool",
              "name": "disableUnbalancedLiquidity",
              "type": "bool"
            },
            {
              "internalType": "bool",
              "name": "enableAddLiquidityCustom",
              "type": "bool"
            },
            {
              "internalType": "bool",
              "name": "enableRemoveLiquidityCustom",
              "type": "bool"
            },
            {
              "internalType": "bool",
              "name": "enableDonation",
              "type": "bool"
            }
          ],
          "internalType": "struct LiquidityManagement",
          "name": "liquidityManagement",
          "type": "tuple"
        }
      ],
      "name": "onRegister",
      "outputs": [
        {
          "internalType": "bool",
          "name": "",
          "type": "bool"
        }
      ],
      "stateMutability": "view",
      "type": "function"
    },
    {
      "inputs": [
        {
          "components": [
            {
              "internalType": "enum SwapKind",
              "name": "kind",
              "type": "uint8"
            },
            {
              "internalType": "uint256",
              "name": "amountGivenScaled18",
              "type": "uint256"
            },
            {
              "internalType": "uint256[]",
              "name": "balancesScaled18",
              "type": "uint256[]"
            },
            {
              "internalType": "uint256",
              "name": "indexIn",
              "type": "uint256"
            },
            {
              "internalType": "uint256",
              "name": "indexOut",
              "type": "uint256"
            },
            {
              "internalType": "address",
              "name": "router",
              "type": "address"
            },
            {
              "internalType": "bytes",
              "name": "userData",
              "type": "bytes"
            }
          ],
          "internalType": "struct PoolSwapParams",
          "name": "request",
          "type": "tuple"
        }
      ],
      "name": "onSwap",
      "outputs": [
        {
          "internalType": "uint256",
          "name": "amountCalculatedScaled18",
          "type": "uint256"
        }
      ],
      "stateMutability": "nonpayable",
      "type": "function"
    },
    {
      "inputs": [
        {
          "internalType": "address",
          "name": "owner",
          "type": "address"
        },
        {
          "internalType": "address",
          "name": "spender",
          "type": "address"
        },
        {
          "internalType": "uint256",
          "name": "amount",
          "type": "uint256"
        },
        {
          "internalType": "uint256",
          "name": "deadline",
          "type": "uint256"
        },
        {
          "internalType": "uint8",
          "name": "v",
          "type": "uint8"
        },
        {
          "internalType": "bytes32",
          "name": "r",
          "type": "bytes32"
        },
        {
          "internalType": "bytes32",
          "name": "s",
          "type": "bytes32"
        }
      ],
      "name": "permit",
      "outputs": [],
      "stateMutability": "nonpayable",
      "type": "function"
    },
    {
      "inputs": [
        {
          "internalType": "uint256",
          "name": "newCenterednessMargin",
          "type": "uint256"
        }
      ],
      "name": "setCenterednessMargin",
      "outputs": [],
      "stateMutability": "nonpayable",
      "type": "function"
    },
    {
      "inputs": [
        {
          "internalType": "uint256",
          "name": "newDailyPriceShiftExponent",
          "type": "uint256"
        }
      ],
      "name": "setDailyPriceShiftExponent",
      "outputs": [
        {
          "internalType": "uint256",
          "name": "",
          "type": "uint256"
        }
      ],
      "stateMutability": "nonpayable",
      "type": "function"
    },
    {
      "inputs": [
        {
          "internalType": "uint256",
          "name": "endPriceRatio",
          "type": "uint256"
        },
        {
          "internalType": "uint256",
          "name": "priceRatioUpdateStartTime",
          "type": "uint256"
        },
        {
          "internalType": "uint256",
          "name": "priceRatioUpdateEndTime",
          "type": "uint256"
        }
      ],
      "name": "startPriceRatioUpdate",
      "outputs": [
        {
          "internalType": "uint256",
          "name": "actualPriceRatioUpdateStartTime",
          "type": "uint256"
        }
      ],
      "stateMutability": "nonpayable",
      "type": "function"
    },
    {
      "inputs": [],
      "name": "stopPriceRatioUpdate",
      "outputs": [],
      "stateMutability": "nonpayable",
      "type": "function"
    },
    {
      "inputs": [
        {
          "internalType": "bytes4",
          "name": "interfaceId",
          "type": "bytes4"
        }
      ],
      "name": "supportsInterface",
      "outputs": [
        {
          "internalType": "bool",
          "name": "",
          "type": "bool"
        }
      ],
      "stateMutability": "view",
      "type": "function"
    },
    {
      "inputs": [],
      "name": "symbol",
      "outputs": [
        {
          "internalType": "string",
          "name": "",
          "type": "string"
        }
      ],
      "stateMutability": "view",
      "type": "function"
    },
    {
      "inputs": [],
      "name": "totalSupply",
      "outputs": [
        {
          "internalType": "uint256",
          "name": "",
          "type": "uint256"
        }
      ],
      "stateMutability": "view",
      "type": "function"
    },
    {
      "inputs": [
        {
          "internalType": "address",
          "name": "to",
          "type": "address"
        },
        {
          "internalType": "uint256",
          "name": "amount",
          "type": "uint256"
        }
      ],
      "name": "transfer",
      "outputs": [
        {
          "internalType": "bool",
          "name": "",
          "type": "bool"
        }
      ],
      "stateMutability": "nonpayable",
      "type": "function"
    },
    {
      "inputs": [
        {
          "internalType": "address",
          "name": "from",
          "type": "address"
        },
        {
          "internalType": "address",
          "name": "to",
          "type": "address"
        },
        {
          "internalType": "uint256",
          "name": "amount",
          "type": "uint256"
        }
      ],
      "name": "transferFrom",
      "outputs": [
        {
          "internalType": "bool",
          "name": "",
          "type": "bool"
        }
      ],
      "stateMutability": "nonpayable",
      "type": "function"
    },
    {
      "inputs": [],
      "name": "version",
      "outputs": [
        {
          "internalType": "string",
          "name": "",
          "type": "string"
        }
      ],
      "stateMutability": "view",
      "type": "function"
    }
  ],
  "bytecode": "0x6103406040523461089a57616d8e803803809161001e82610340610b6e565b6103403961034001606061034082031261089a57610340516001600160401b03811161089a5761034001906101408282031261089a576040519061014082016001600160401b038111838210176109875760405282516001600160401b03811161089a578161008e918501610b91565b825260208301516001600160401b03811161089a57816100af918501610b91565b60208301526040830151906001600160401b03821161089a576100d3918401610b91565b9182604083015260608101516060830152608081015160018060401b038116810361089a5761013c9161012091608085015260a081015160a085015260c081015160c085015260e081015160e08501526101306101008201610be6565b61010085015201610be6565b610120820152610360516001600160a01b0390818116810361089a576103805190828216820361089a57835160208501519060405180604081011060018060401b0360408301111761098757604081016040526001815260208101603160f81b81526101a783610c10565b610120526101b482610d93565b6101405282516020840120918260e05251902080610100524660a0526040519060208201927f8b73c3c69bb8fe3d512ecc4cf759cc79239f7b179b0ffacaa9a75d522b39400f8452604083015260608201524660808201523060a082015260a0815260c0810181811060018060401b03821117610987576040525190206080523060c0526101608390528051906001600160401b0382116109875760035490600182811c92168015610b64575b60208310146109695781601f849311610b0c575b50602090601f8311600114610a97575f92610a8c575b50508160011b915f199060031b1c1916176003555b8051906001600160401b0382116109875760045490600182811c92168015610a82575b60208310146109695781601f849311610a2a575b50602090601f83116001146109b5575f926109aa575b50508160011b915f199060031b1c1916176004555b8061018052336101a0528281161561099b576101c05283516001600160401b03811161098757600554600181811c9116801561097d575b602082101461096957601f8111610927575b506020601f82116001146108bc57819060209495965f926108b1575b50508160011b915f199060031b1c1916176005555b806102005260046040518094819363253ede3f60e11b8352165afa9081156108a6575f91610870575b5061022052606081015180158015610863575b15610854576706f05b59d3b2000010610845576080810151670c7d713b49da00006001600160401b03909116116108365760a08101518015908115610829575b811561081c575b811561080d575b81156107fa575b81156107eb575b506107dc5761042281610ed6565b60c081015160a0820151670de0b6b3a7640000820291808304670de0b6b3a764000014901517156107945761045691610f94565b90670de111a6b7de400082101561047a57506361ad283960e01b5f5260045260245ffd5b6801158e460913d0000082116107c95760a08101516102605260c08101516102805260e08101516102a05260608101516102c05260808101516001600160401b03166102e0526101008101511515610300526101200151151561032052606468056bc75e2d6310000080806801e0f7ac69d4f44df86107a8565b60028282800205056003838383020505600484848302050560058585830205056006868683020505600787878302050590600888888402050592600989898602050594600a8a8a8802050596600b8b8b8a02050598600c8c8c8c0205059a010101010101010101010101020505612710808202908282041482151715610794576001670de0b6b3a76400005f198301040190151502600181018111610794576001908201018091116107945761024052604051615c2d61112182396080518161473b015260a05181614807015260c0518161470c015260e0518161478a015261010051816147b0015261012051816115dd0152610140518161160601526101605181818161044c015281816106cf01528181610ad601528181610f7a0152818161155c015281816116cf0152818161195d01528181611f890152818161235f0152818161258f015281816125dc0152818161263d0152818161276a01528181612a7101528181612b5b015281816137a801528181613c0b01528181613ca901528181613f970152818161405b01528181614107015281816141e0015281816144e20152818161460c01526148890152610180518181816108ba01528181610be301528181610c7f01528181610ea4015261182a01526101a05181613ba101526101c0518181816107a9015281816109990152818161102f015281816132f70152613d8801526101e0518150506102005181818161032b0152612c2201526102205181611b8101526102405181818161114f0152611b4601526102605181818161177d0152611a4801526102805181818161179e0152611a6e01526102a05181611a9401526102c051818181611abb0152612e5a01526102e051818181611ae20152612c66015261030051816119de01526103205181611a060152615c2d90f35b634e487b7160e01b5f52601160045260245ffd5b6806f5f1775788937937829168015af1d78b58c3ffff1901930205916104f4565b506324d9dae960e21b5f5260045260245ffd5b6359e6ae3360e11b5f5260045ffd5b905060c082015111155f610414565b60e083015160c08401511115915061040d565b80915060e08301511090610406565b60e08301511591506103ff565b60c08301511591506103f8565b637304fac760e01b5f5260045ffd5b632b5b4f3560e01b5f5260045ffd5b631780f45360e21b5f5260045ffd5b506201e6e98110156103b8565b90506020813d60201161089e575b8161088b60209383610b6e565b8101031261089a57515f6103a5565b5f80fd5b3d915061087e565b6040513d5f823e3d90fd5b015190505f80610367565b60055f5260205f20955f5b601f198416811061090f57509582916020959697600194601f198116106108f7575b505050811b0160055561037c565b01515f1960f88460031b161c191690555f80806108e9565b828201518855600190970196602092830192016108c7565b60055f5260205f20601f830160051c810160208410610962575b601f830160051c8201811061095757505061034b565b5f8155600101610941565b5080610941565b634e487b7160e01b5f52602260045260245ffd5b90607f1690610339565b634e487b7160e01b5f52604160045260245ffd5b630647140b60e51b5f5260045ffd5b015190505f806102ed565b60045f90815293505f516020616d6e5f395f51905f5291905b601f1984168510610a0f576001945083601f198116106109f7575b505050811b01600455610302565b01515f1960f88460031b161c191690555f80806109e9565b818101518355602094850194600190930192909101906109ce565b60045f529091505f516020616d6e5f395f51905f52601f840160051c810160208510610a7b575b90849392915b601f830160051c82018110610a6d5750506102d7565b5f8155859450600101610a57565b5080610a51565b91607f16916102c3565b015190505f8061028b565b60035f90815293505f516020616d4e5f395f51905f5291905b601f1984168510610af1576001945083601f19811610610ad9575b505050811b016003556102a0565b01515f1960f88460031b161c191690555f8080610acb565b81810151835560209485019460019093019290910190610ab0565b60035f529091505f516020616d4e5f395f51905f52601f840160051c810160208510610b5d575b90849392915b601f830160051c82018110610b4f575050610275565b5f8155859450600101610b39565b5080610b33565b91607f1691610261565b601f909101601f19168101906001600160401b0382119082101761098757604052565b81601f8201121561089a578051906001600160401b0382116109875760405192610bc5601f8401601f191660200185610b6e565b8284526020838301011161089a57815f9260208093018386015e8301015290565b5190811515820361089a57565b90670de0b6b3a76400009182810292818404149015171561079457565b805160209081811015610c865750601f825111610c485780825192015190808310610c3a57501790565b825f19910360031b1b161790565b60448260405192839163305a27a960e01b83528160048401528051918291826024860152018484015e5f828201840152601f01601f19168101030190fd5b906001600160401b038211610987575f54926001938481811c91168015610d89575b8382101461096957601f8111610d56575b5081601f8411600114610cf457509282939183925f94610ce9575b50501b915f199060031b1c1916175f5560ff90565b015192505f80610cd4565b919083601f1981165f8052845f20945f905b88838310610d3c5750505010610d24575b505050811b015f5560ff90565b01515f1960f88460031b161c191690555f8080610d17565b858701518855909601959485019487935090810190610d06565b5f805284601f845f20920160051c820191601f860160051c015b828110610d7e575050610cb9565b5f8155018590610d70565b90607f1690610ca8565b805160209081811015610dbd5750601f825111610c485780825192015190808310610c3a57501790565b9192916001600160401b0381116109875760019182548381811c91168015610ebf575b8282101461096957601f8111610e8c575b5080601f8311600114610e2c5750819293945f92610e21575b50505f19600383901b1c191690821b17905560ff90565b015190505f80610e0a565b90601f19831695845f52825f20925f905b888210610e755750508385969710610e5d575b505050811b01905560ff90565b01515f1960f88460031b161c191690555f8080610e50565b808785968294968601518155019501930190610e3d565b835f5283601f835f20920160051c820191601f850160051c015b828110610eb4575050610df1565b5f8155018490610ea6565b90607f1690610de0565b9190820391821161079457565b6080810180516001600160401b0390811615610f8f57610f38610efc60a0850151610fb2565b610f32610f1960e0610f1160c0890151610fb2565b970151610fb2565b610f2c610f268483610ec9565b82610fd8565b96610ec9565b90610fd8565b9280158015610f87575b610f785780610f5a610f5f86610f5a610f6595610bf3565b610f94565b95610bf3565b91511691818082109118021810610f7857565b63fb04bb9560e01b5f5260045ffd5b508315610f42565b505050565b8115610f9e570490565b634e487b7160e01b5f52601260045260245ffd5b670de0b6b3a76400009081810291818304149015171561079457610fd590610ff6565b90565b81810291818304149015171561079457670de0b6b3a7640000900490565b60018082111561111c576110b8908083600160801b811015611105575b806801000000000000000060049210156110f8575b6401000000008110156110eb575b620100008110156110de575b6101008110156110d2575b60108110156110c6575b10156110bf575b600302811c61106d8185610f94565b01811c61107a8185610f94565b01811c6110878185610f94565b01811c6110948185610f94565b01811c6110a18185610f94565b01811c6110ae8185610f94565b01901c8092610f94565b8111900390565b811b61105e565b811c9160021b91611057565b60081c91811b9161104d565b60101c9160081b91611042565b60201c9160101b91611036565b60401c9160201b91611028565b50680100000000000000009050608084901c611013565b509056fe6080806040526004361015610012575f80fd5b5f3560e01c90816301ffc9a7146133d0575080630673d09a146132b057806306fdde0314613207578063095ea7b3146131b05780630b89f18214613054578063105ae7ad1461302657806316a0b3e014612fe557806318160ddd14612fcb57806318b6eb5514612f8b5780631c149e2814612afa5780631d8a5e7e14612ad0578063215666a814612aa857806323b872dd14612a2657806323de6651146129f5578063273c1adf14610bb45780632754888d1461298c5780632c357688146124c957806330adf81f1461248f578063313ce567146124745780633644e5151461245a578063378997701461243757806338be241d146123ec57806345421ec7146122a25780634efd88c91461227a5780634f149b3f146122415780635211fa77146121fe57806354fd4d50146121555780635687f2b814612101578063569ee350146120d4578063627cdcb9146120ab578063654cf15d14612089578063679aefce1461206a5780636bd838c714611fef57806370a0823114611f4257806372c9818614611d1c5780637ecebe0014611ce45780637f118b90146118a957806381fa807c146117fc57806384254cf9146116a457806384b0196e146115c8578063851c1bb3146115805780638d928af81461153d57806395d89b411461145f578063976907cc146113a7578063984de9e81461129b578063a0e8f5ac14611253578063a103b04414611227578063a6d2e71814610fea578063a9059cbb14610f16578063aa6ca80814610e7a578063abb1dc4414610c4c578063b156aa0a14610bb9578063b677fa5614610bb4578063ba5f9f4014610a18578063c66dbc4b14610955578063cd80a1af1461091b578063ce20ece7146108fb578063d335b0cf1461088f578063d4a5b63a1461076e578063d505accf14610576578063d77153a7146104b9578063dd62ed3e146103f4578063dfba3818146103a85763e45801da146102dc575f80fd5b346103a45760403660031901126103a45760645f6102f861342a565b6001600160a01b0392839160405194859384926327c0888160e01b845230600485015216602483015260243560448301527f0000000000000000000000000000000000000000000000000000000000000000165afa801561039957610373915f91610377575b5060405191829160208352602083019061362e565b0390f35b61039391503d805f833e61038b81836134ef565b8101906138ff565b5f61035e565b6040513d5f823e3d90fd5b5f80fd5b346103a4575f3660031901126103a4576103c0613bf0565b60206103e86103cd61486e565b509067ffffffffffffffff60079493945460a01c1693613e8f565b50906040519110158152f35b346103a45760403660031901126103a45761040d61342a565b6020610417613440565b60405163927da10560e01b81523060048201526001600160a01b039384166024820152908316604482015291829060649082907f0000000000000000000000000000000000000000000000000000000000000000165afa8015610399575f90610486575b602090604051908152f35b506020813d6020116104b1575b816104a0602093836134ef565b810103126103a4576020905161047b565b3d9150610493565b346103a4575f3660031901126103a4576101406040516104d8816134a2565b5f81526020810190604081015f8152606082015f815260808301905f825260a084015f815260c0850160e08601915f83526101009485880194610120809901975f895260018b5260018552600187526040519a5f8c5251151560208c015251151560408b015251151560608a0152511515608089015251151560a088015251151560c087015251151560e08601525115159084015251151590820152f35b346103a45760e03660031901126103a45761058f61342a565b610597613440565b90604435916064359160843560ff811681036103a45783421161075b576105d8826001600160a01b03165f52600260205260405f2080549060018201905590565b9060405160208101917f6e71edae12b1b97f4d1f60370fef10105fa2faae0126114a169c64845d6126c983526001600160a01b039687861694856040850152888816606085015289608085015260a084015260c083015260c0825260e082019082821067ffffffffffffffff8311176107475787936106939361068a93604052519020610663614702565b906040519161190160f01b83526002830152602282015260c43591604260a43592206151b6565b90929192615238565b168181036107325760405163e1f21c6760e01b81526001600160a01b03848116600483015285166024820152604481018790526020816064815f7f00000000000000000000000000000000000000000000000000000000000000008b165af18015610399576106fe57005b6020813d60201161072a575b81610717602093836134ef565b810103126103a45761072890613780565b005b3d915061070a565b6325c0072360e11b5f5260045260245260445ffd5b634e487b7160e01b5f52604160045260245ffd5b8363313c898160e11b5f5260045260245ffd5b346103a4575f3660031901126103a457610786613bf0565b6040516374eef59360e11b81523060048201526001600160a01b036060826024817f000000000000000000000000000000000000000000000000000000000000000085165afa918215610399576107eb926020915f91610860575b5001511630613d31565b6107f361486e565b610850575b50506108026145ba565b63ffffffff6060610811613925565b01511642116108415761083961072891600854906001600160801b038260801c9216906148e7565b4242826141b3565b63771cef4f60e01b5f5260045ffd5b61085991614096565b81806107f8565b610882915060603d606011610888575b61087a81836134ef565b810190613702565b846107e1565b503d610870565b346103a4575f3660031901126103a45760405163b45090f960e01b81523060048201526020816024817f00000000000000000000000000000000000000000000000000000000000000006001600160a01b03165afa8015610399575f9061048657602090604051908152f35b346103a4575f3660031901126103a45760206040516509184e72a0008152f35b346103a4575f3660031901126103a457610933613bf0565b604061094761094061486e565b5091613e8f565b825191825215156020820152f35b346103a45760203660031901126103a45761096e613bf0565b610976613c94565b6040516374eef59360e11b81523060048201526001600160a01b036060826024817f000000000000000000000000000000000000000000000000000000000000000085165afa918215610399576109da926020915f91610860575001511630613d31565b6109e261486e565b90919250610a08575b6109f36145ba565b6020610a00600435614427565b604051908152f35b610a1191614096565b80806109eb565b346103a45760e03660031901126103a457610a3161342a565b50610a3a613440565b600460443510156103a45767ffffffffffffffff906084358281116103a457610a67903690600401613529565b5060a4358281116103a457610a80903690600401613529565b9160c4359081116103a457610a99903690600401613589565b50610aa2614051565b60206001600160a01b0391610abc83821691308314613a73565b6024604051809481936339370aa960e21b835260048301527f0000000000000000000000000000000000000000000000000000000000000000165afa908115610399575f91610b80575b5080610b35610b2d93610b3a610b4094610b35610b2560643583613be3565b97889461482d565b509890613acf565b613ae2565b94613acf565b81158015610b78575b610b6957610b5691614096565b610b5e6145ba565b602060405160018152f35b632476bd0160e01b5f5260045ffd5b508015610b49565b90506020813d602011610bac575b81610b9b602093836134ef565b810103126103a45751610b2d610b06565b3d9150610b8e565b613614565b346103a4575f3660031901126103a4576040516329ae7ec560e11b81523060048201525f816024817f00000000000000000000000000000000000000000000000000000000000000006001600160a01b03165afa801561039957610373915f91610c32575060405191829160208352602083019061362e565b610c4691503d805f833e61038b81836134ef565b8261035e565b346103a4575f3660031901126103a4576040516333f0703b60e11b81523060048201526001600160a01b03905f816024817f000000000000000000000000000000000000000000000000000000000000000086165afa8015610399575f915f935f915f93610d4c575b50610ccb60405194608086526080860190613694565b6020858203818701528080885193848152019701925f905b838210610d1057878061037389610d028d8b858203604087015261362e565b90838203606085015261362e565b909192939783606060019260408c518051610d2a816136d0565b8352808501518716858401520151151560408201520199019493920190610ce3565b9450925050503d805f843e610d6181846134ef565b8201906080838303126103a45782519267ffffffffffffffff938481116103a45783610d8e918301613b00565b90602093848201518681116103a457820181601f820112156103a457805190610db682613511565b96610dc460405198896134ef565b828852808801816060809502840101928584116103a4578201905b838210610e2557505050505060408201518681116103a45781610e03918401613812565b9560608301519081116103a457610e1a9201613812565b909293909185610cb5565b84828703126103a45760405190610e3b82613486565b825160028110156103a457825283830151908a821682036103a4578285928389950152610e6a60408601613780565b6040820152815201910190610ddf565b346103a4575f3660031901126103a45760405163ca4f280360e01b81523060048201525f816024817f00000000000000000000000000000000000000000000000000000000000000006001600160a01b03165afa801561039957610373915f91610ef4575b50604051918291602083526020830190613694565b610f1091503d805f833e610f0881836134ef565b810190613b71565b82610edf565b346103a45760403660031901126103a457610f6d6020610f3461342a565b6040516317d5759960e31b81523360048201526001600160a01b0390911660248083019190915235604482015291829081906064820190565b03815f6001600160a01b037f0000000000000000000000000000000000000000000000000000000000000000165af1801561039957610fb157602060405160018152f35b6020813d602011610fe2575b81610fca602093836134ef565b810103126103a457610fdb90613780565b5080610b5e565b3d9150610fbd565b346103a45760603660031901126103a4576004356024604435813561100d613bf0565b6040516374eef59360e11b81523060048201526001600160a01b0360608286817f000000000000000000000000000000000000000000000000000000000000000085165afa91821561039957611070926020915f91611208575001511630613d31565b670de111a6b7de40008410156110925782846361ad283960e01b5f526004525ffd5b6801158e460913d0000084116111f6578042118142180218928184116111e1576110bc8483613be3565b926201518084106111d2576111056110fc6110d561486e565b6111c2575b50506110e46145ba565b600854906001600160801b038260801c9216906148e7565b809487856141b3565b8282106111ba578282035b620f424081106111aa5750508181111561119c579061112e91614f1e565b811561118d57600161114d9269124bc0ddd92e55ffffff04019061512b565b7f00000000000000000000000000000000000000000000000000000000000000001061117e57602090604051908152f35b632b85f91760e11b5f5260045ffd5b630a0c22c760e01b5f5260045ffd5b6111a591614f1e565b61112e565b63119d853760e21b5f526004525ffd5b818303611110565b6111cb91614096565b88806110da565b6319f8e85560e11b5f5260045ffd5b50916364bb3b8360e11b5f526004525260445ffd5b82846324d9dae960e21b5f526004525ffd5b611221915060603d6060116108885761087a81836134ef565b886107e1565b346103a4575f3660031901126103a45761123f613bf0565b6020610a0061124c61486e565b50916148e7565b346103a4576003196060368201126103a4576004359067ffffffffffffffff82116103a45760e091360301126103a45761128b613440565b50604080515f81525f6020820152f35b346103a45760403660031901126103a45767ffffffffffffffff6004358181116103a4576112cd903690600401613529565b906024359060028210156103a457600161131461134592600854906001600160801b03600754918260a01c16928163ffffffff84169360201c16918160801c911689614b9a565b50919093611321816136d0565b036113995761133961133f6001945b611339876138ba565b51613a97565b946138db565b90806002146113875760011461136957634e487b7160e01b5f52605160045260245ffd5b61137e670de0b6b3a764000091602093613acf565b04604051908152f35b5061139490602092615364565b610a00565b61133961133f600294611330565b346103a4576101003660031901126103a4576113c161342a565b506113ca613440565b50600560443510156103a45767ffffffffffffffff6064358181116103a4576113f7903690600401613529565b506084358181116103a457611410903690600401613529565b60c4358281116103a457611428903690600401613529565b5060e4359182116103a457611444610373923690600401613589565b506040519182915f835260406020840152604083019061362e565b346103a4575f3660031901126103a4576040516004545f8261148083613748565b91828252602093600190856001821691825f1461151d5750506001146114c2575b506114ae925003836134ef565b610373604051928284938452830190613406565b84915060045f527f8a35acfbc15ff81a39ae7d344fd709f28e8600b4aa8c65c6b64bfe7fe36bd19b905f915b8583106115055750506114ae9350820101856114a1565b805483890185015287945086939092019181016114ee565b60ff1916858201526114ae95151560051b85010192508791506114a19050565b346103a4575f3660031901126103a45760206040516001600160a01b037f0000000000000000000000000000000000000000000000000000000000000000168152f35b346103a45760203660031901126103a4576004357fffffffff00000000000000000000000000000000000000000000000000000000811681036103a457610a00602091613b97565b346103a4575f3660031901126103a4576116017f0000000000000000000000000000000000000000000000000000000000000000614f4f565b61162a7f0000000000000000000000000000000000000000000000000000000000000000615049565b9060405191602083019280841067ffffffffffffffff8511176107475761168461037392611676956040525f8352604051958695600f60f81b875260e0602088015260e0870190613406565b908582036040870152613406565b904660608501523060808501525f60a085015283820360c085015261362e565b346103a4575f3660031901126103a4576040516314cb3b1f60e21b81523060048201526020816024817f00000000000000000000000000000000000000000000000000000000000000006001600160a01b03165afa908115610399575f916117c2575b501561177957604061176661175361176b61172061486e565b5061175e61173483611339869995996138ba565b670de0b6b3a764000096879161174d85611339896138db565b90613acf565b04610b358380613acf565b9586936148e7565b613acf565b045b82519182526020820152f35b60407f00000000000000000000000000000000000000000000000000000000000000007f000000000000000000000000000000000000000000000000000000000000000061176d565b90506020813d6020116117f4575b816117dd602093836134ef565b810103126103a4576117ee90613780565b81611707565b3d91506117d0565b346103a4575f3660031901126103a45760405163f29486a160e01b81523060048201526101a09081816024817f00000000000000000000000000000000000000000000000000000000000000006001600160a01b03165afa908115610399576040925f9261187c575b505060608282015191015182519182526020820152f35b61189b9250803d106118a2575b61189381836134ef565b81019061396a565b8280611865565b503d611889565b346103a4575f3660031901126103a457604051610260810181811067ffffffffffffffff8211176107475760405260608152606060208201525f60408201525f60608201525f60808201525f60a08201525f60c08201525f60e08201525f6101008201525f6101208201525f6101408201525f6101608201525f6101808201525f6101a08201525f6101c08201525f6101e08201525f6102008201525f6102208201525f6102408201526001600160a01b037f00000000000000000000000000000000000000000000000000000000000000001660405163ca4f280360e01b81523060048201525f81602481855afa918215610399576024925f928391611cca575b508452604051633f1b0def60e11b815230600482015292839182905afa908115610399575f91611ca7575b5060208201527f0000000000000000000000000000000000000000000000000000000000000000151560408201527f0000000000000000000000000000000000000000000000000000000000000000151560608201526509184e72a000608082015267016345785d8a000060a08201527f000000000000000000000000000000000000000000000000000000000000000060c08201527f000000000000000000000000000000000000000000000000000000000000000060e08201527f00000000000000000000000000000000000000000000000000000000000000006101008201527f00000000000000000000000000000000000000000000000000000000000000006101208201527f0000000000000000000000000000000000000000000000000000000000000000610140820152670de111a6b7de40006101608201526801158e460913d00000610180820152670c7d713b49da00006101a08201526706f05b59d3b200006101c08201527f00000000000000000000000000000000000000000000000000000000000000006101e082015262015180610200820152620f42406102208201527f0000000000000000000000000000000000000000000000000000000000000000610240820152604051809160208252610240611be3611bcd83516102606020870152610280860190613694565b6020840151858203601f19016040870152613661565b91604081015115156060850152606081015115156080850152608081015160a085015260a081015160c085015260c081015160e085015260e08101516101008501526101008101516101208501526101208101516101408501526101408101516101608501526101608101516101808501526101808101516101a08501526101a08101516101c08501526101c08101516101e08501526101e08101516102008501526102008101516102208501526102208101518285015201516102608301520390f35b611cc391503d805f833e611cbb81836134ef565b810190613873565b50826119d6565b611cde91503d8085833e610f0881836134ef565b856119ab565b346103a45760203660031901126103a4576001600160a01b03611d0561342a565b165f526002602052602060405f2054604051908152f35b346103a4576003196020368201126103a4576004359067ffffffffffffffff908183116103a45760e09083360301126103a4576040519160e083018381108382111761074757604052806004013560028110156103a4578352602083016024820135815260448201358381116103a457611d9c9060043691850101613529565b9360408101948552606081019360648401358552608082019360848101358552611dc860a48201613456565b60a084015260c48101359182116103a4576004611de89236920101613589565b60c0820152611df5614051565b611dff855161482d565b969196929092611f33575b611e126145ba565b51611e1c816136d0565b611e25816136d0565b611eb857611e7992611e6e611e7f969593611e7393519889975195519788945194859288155f14611ea057611e679261133961133995936117669397926138eb565b958a6138eb565b613a97565b90613ae2565b926138eb565b518111611e9157602090604051908152f35b635a09f12960e11b5f5260045ffd5b93611e679261133961133995936117669397926138eb565b5193519251915193949092611ecd83876138eb565b518511611e91576113398593611ef9611f0496611eff9585155f14611f29576113399091955b8b6138eb565b976138eb565b613be3565b90811561118d57611f19600191602094613acf565b915f198301040190151502610a00565b9461133990611ef3565b611f3d8388614096565b611e0a565b346103a4576020806003193601126103a457604481611f5f61342a565b604051633de222bb60e21b81523060048201526001600160a01b03918216602482015292839182907f0000000000000000000000000000000000000000000000000000000000000000165afa908115610399575f91611fc2575b50604051908152f35b90508181813d8311611fe8575b611fd981836134ef565b810103126103a4575182611fb9565b503d611fcf565b346103a4575f3660031901126103a4575f606060405161200e8161346a565b82815282602082015282604082015201526080612029613925565b604051906bffffffffffffffffffffffff8082511683526020820151166020830152606060408201519163ffffffff80931660408501520151166060820152f35b346103a4575f3660031901126103a4576356b7fcdb60e01b5f5260045ffd5b346103a4575f3660031901126103a457602060405167016345785d8a00008152f35b346103a4575f3660031901126103a457335f908152600260205260409020805460018101909155005b346103a4575f3660031901126103a4576120ec613bf0565b6020610a006120fc61124c61486e565b6146c5565b346103a45760207f8c5be1e5ebec7d5bd14f71427d1e84f3dd0314c0f7b2291e5b200ac8c7c3b925612132366135df565b9291939061213e614051565b6001600160a01b03809160405195865216941692a3005b346103a4575f3660031901126103a4576040516005545f8261217683613748565b91828252602093600190856001821691825f1461151d5750506001146121a357506114ae925003836134ef565b84915060055f527f036b6384b5eca791c62761152d0c79bb0604c104a5fb6f4eb0703f3154bb3db0905f915b8583106121e65750506114ae9350820101856114a1565b805483890185015287945086939092019181016121cf565b346103a4576003196040368201126103a4576004359067ffffffffffffffff82116103a45760e091360301126103a457612236613440565b5060206040515f8152f35b346103a4575f3660031901126103a457612259613bf0565b606061226361486e565b919250604051928352602083015215156040820152f35b346103a4575f3660031901126103a4576020610a006001600160801b03600754831c1661469b565b346103a45760e03660031901126103a4576122bb61342a565b506122c4613440565b600560443510156103a45767ffffffffffffffff6064358181116103a4576122f0903690600401613529565b5060a4358181116103a457612309903690600401613529565b9060c4359081116103a457612322903690600401613589565b5061232b614051565b60206001600160a01b039261234584821691308314613a73565b6024604051809581936339370aa960e21b835260048301527f0000000000000000000000000000000000000000000000000000000000000000165afa918215610399575f926123b6575b610b56610b2d6123b085610b3586610b3a83610b35610b2582608435613a97565b90614096565b91506020823d6020116123e4575b816123d1602093836134ef565b810103126103a4579051906123b061238f565b3d91506123c4565b346103a45760603660031901126103a45767ffffffffffffffff6004358181116103a45761241e903690600401613529565b506044359081116103a457612236903690600401613589565b346103a4575f3660031901126103a457602063ffffffff60075416604051908152f35b346103a4575f3660031901126103a4576020610a00614702565b346103a4575f3660031901126103a457602060405160128152f35b346103a4575f3660031901126103a45760206040517f6e71edae12b1b97f4d1f60370fef10105fa2faae0126114a169c64845d6126c98152f35b346103a4575f3660031901126103a457604051610240810181811067ffffffffffffffff8211176107475760405260608152606060208201525f60408201525f60608201525f6080820152606060a08201525f60c08201525f60e08201525f6101008201525f6101208201525f6101408201525f6101608201525f6101808201525f6101a08201525f6101c08201525f6101e08201525f6102008201525f6102208201526040516329ae7ec560e11b81523060048201525f816024816001600160a01b037f0000000000000000000000000000000000000000000000000000000000000000165afa908115610399575f91612972575b508152604051633f1b0def60e11b81523060048201525f816024817f00000000000000000000000000000000000000000000000000000000000000006001600160a01b03165afa908115610399575f91612956575b50602082015260405163b45090f960e01b81523060048201526020816024816001600160a01b037f0000000000000000000000000000000000000000000000000000000000000000165afa908115610399575f91612924575b50604082015261267b61378d565b606082015267ffffffffffffffff60075463ffffffff811660808401526126ef6040516126a781613486565b600281526040366020830137600854906001600160801b03918281166126cc836138ba565b5260801c6126d9826138db565b5260a08601528260201c168060e086015261469b565b60c084015260a01c1661010082015263ffffffff606061270d613925565b6bffffffffffffffffffffffff80825116610160860152602082015116610180850152826040820151166101a08501520151166101c082015260405163f29486a160e01b81523060048201526101a0816024816001600160a01b037f0000000000000000000000000000000000000000000000000000000000000000165afa908115610399575f91612903575b5061012060e0820151151591826101e08501526101008101511515610200850152015115156102208301526128de575b6040518091602082526102206128406127f183516102406020870152610260860190613661565b61280d602085015191601f199283888303016040890152613661565b906040850151606087015260608501516080870152608085015160a087015260a0850151908683030160c0870152613661565b9160c081015160e085015260e08101516101008501526101008101516101208501526101208101516101408501526101408101516101608501526101608101516101808501526101808101516101a085015263ffffffff6101a0820151166101c085015263ffffffff6101c0820151166101e08501526101e08101511515610200850152610200810151151582850152015115156102408301520390f35b6128f86128ec61124c61486e565b806101208401526146c5565b6101408201526127ca565b61291e91506101a03d6101a0116118a25761189381836134ef565b8261279a565b90506020813d60201161294e575b8161293f602093836134ef565b810103126103a457518261266d565b3d9150612932565b61296a91503d805f833e611cbb81836134ef565b905082612614565b61298691503d805f833e61038b81836134ef565b826125bf565b346103a4576101003660031901126103a4576129a661342a565b506129af613440565b50600460443510156103a45767ffffffffffffffff6084358181116103a4576129dc903690600401613529565b5060a4358181116103a457611410903690600401613529565b346103a45760207fddf252ad1be2c89b69c2b068fc378daa952ba7f163c4a11628f55a4df523b3ef612132366135df565b346103a45760846020612a38366135df565b604051630aed65f560e11b81523360048201526001600160a01b0393841660248201529183166044830152606482015292839182905f907f0000000000000000000000000000000000000000000000000000000000000000165af1801561039957610fb157602060405160018152f35b346103a4575f3660031901126103a45760206007546001600160801b0360405191831c168152f35b346103a4575f3660031901126103a457602067ffffffffffffffff60075460a01c16604051908152f35b346103a45760403660031901126103a45767ffffffffffffffff6004358181116103a457612b2c903690600401613529565b9060249081359081116103a457612b47903690600401613589565b50612b50614051565b6001600160a01b03807f00000000000000000000000000000000000000000000000000000000000000001691604051936314cb3b1f60e21b80865230600487015260209586818581895afa908115610399575f91612f56575b50612f4757604051633f1b0def60e11b81523060048201525f818581895afa908115610399575f91612f2b575b50612bea612be3826138ba565b51916138db565b51604051809663069f9d0960e01b825281806060958695866004840152612c14606484018b61362e565b918b840152604483015203917f0000000000000000000000000000000000000000000000000000000000000000165afa928315610399575f905f965f95612eef575b508682612c6292613e8f565b50957f0000000000000000000000000000000000000000000000000000000000000000809710612ee157612c9591614096565b612ca6612ca0613925565b936146c5565b92604051928352306004840152878386818a5afa8015610399575f90612eab575b612dea935015612ea4575f915b6bffffffffffffffffffffffff9081612cec85614a0b565b16835263ffffffff60c01b77ffffffffffffffffffffffff000000000000000000000000612d1988614a0b565b92848d870194168452612d2b42614a3b565b94604087019663ffffffff8097168852612d4442614a3b565b9687168382015251169351901b16935160c01b169163ffffffff60e01b9060e01b16921717176006557fa18562ea402e57cc2b437f8d7a139c6c38958adc1ecbb706ec37a7a64ff6e7a560405180612db642428887859094939260609260808301968352602083015260408201520152565b0390a1604080518881019283526020830194909452429082018190526060820152829060800103601f1981018352826134ef565b833b156103a457612e409360405f809482519788958694859363c808824760e01b85527f5072696365526174696f5374617465557064617465640000000000000000000060048601528401526044830190613406565b03925af191821561039957612e8492612e95575b50612e7e7f0000000000000000000000000000000000000000000000000000000000000000614427565b50613f08565b612e8c6145ba565b60405160018152f35b612e9e906134bf565b83612e54565b8391612cd4565b508783813d8311612eda575b612ec181836134ef565b810103126103a457612ed5612dea93613780565b612cc7565b503d612eb7565b62f656ad60e21b5f5260045ffd5b96509350508085813d8311612f24575b612f0981836134ef565b810103126103a4578451878601516040909601519386612c56565b503d612eff565b612f3f91503d805f833e611cbb81836134ef565b905087612bd6565b637983c05160e01b5f5260045ffd5b90508681813d8311612f84575b612f6d81836134ef565b810103126103a457612f7e90613780565b87612ba9565b503d612f63565b346103a4576003196020368201126103a4576004359067ffffffffffffffff82116103a45761018091360301126103a457604080515f81525f6020820152f35b346103a4575f3660031901126103a4576020610a0061378d565b346103a45760603660031901126103a45760043567ffffffffffffffff81116103a457613016903690600401613529565b5063d623472560e01b5f5260045ffd5b346103a4575f3660031901126103a45760406008548151906001600160801b038116825260801c6020820152f35b346103a45760e03660031901126103a45761306d61342a565b50613076613440565b6044359067ffffffffffffffff82116103a457366023830112156103a45781600401356130a281613511565b926130b060405194856134ef565b81845260206024602086019360071b830101913683116103a457602401925b82841061313f57858560803660631901126103a4576001600160a01b031630149081613133575b5080613122575b80613110575b6020906040519015158152f35b5060c435801590811514613103575f80fd5b5060643580151581146130fd575f80fd5b600291505114816130f6565b6080843603126103a457604051906131568261346a565b61315f85613456565b82528285013560028110156103a4578383015260408501356001600160a01b03811681036103a4576040830152606090818601359283151584036103a45760809385938201528152019301926130cf565b346103a45760403660031901126103a457610f6d60206131ce61342a565b60405163e1f21c6760e01b81523360048201526001600160a01b0390911660248083019190915235604482015291829081906064820190565b346103a4575f3660031901126103a4576040516003545f8261322883613748565b91828252602093600190856001821691825f1461151d57505060011461325557506114ae925003836134ef565b84915060035f527fc2575a0e9e593c00f959f8c92f12db2869c3395a3b0502d05e2516446f71f85b905f915b8583106132985750506114ae9350820101856114a1565b80548389018501528794508693909201918101613281565b346103a45760203660031901126103a4576004356132cc613bf0565b6132d4613c94565b6040516374eef59360e11b81523060048201526001600160a01b036060826024817f000000000000000000000000000000000000000000000000000000000000000085165afa91821561039957613338926020915f916133b1575001511630613d31565b61336a61334361486e565b6133a1575b50506133526145ba565b600854906001600160801b038260801c921690613e8f565b508167ffffffffffffffff60075460a01c168210159182613396575b505015612ee15761072890613f08565b101590508183613386565b6133aa91614096565b8380613348565b6133ca915060603d6060116108885761087a81836134ef565b856107e1565b346103a45760203660031901126103a4576004359063ffffffff60e01b82168092036103a4576020916301ffc9a760e01b148152f35b805180835260209291819084018484015e5f828201840152601f01601f1916010190565b600435906001600160a01b03821682036103a457565b602435906001600160a01b03821682036103a457565b35906001600160a01b03821682036103a457565b6080810190811067ffffffffffffffff82111761074757604052565b6060810190811067ffffffffffffffff82111761074757604052565b610140810190811067ffffffffffffffff82111761074757604052565b67ffffffffffffffff811161074757604052565b6040810190811067ffffffffffffffff82111761074757604052565b90601f8019910116810190811067ffffffffffffffff82111761074757604052565b67ffffffffffffffff81116107475760051b60200190565b9080601f830112156103a457602090823561354381613511565b9361355160405195866134ef565b81855260208086019260051b8201019283116103a457602001905b82821061357a575050505090565b8135815290830190830161356c565b81601f820112156103a45780359067ffffffffffffffff821161074757604051926135be601f8401601f1916602001856134ef565b828452602083830101116103a457815f926020809301838601378301015290565b60609060031901126103a4576001600160a01b039060043582811681036103a4579160243590811681036103a4579060443590565b346103a4575f3660031901126103a45760206040515f8152f35b9081518082526020808093019301915f5b82811061364d575050505090565b83518552938101939281019260010161363f565b9081518082526020808093019301915f5b828110613680575050505090565b835185529381019392810192600101613672565b9081518082526020808093019301915f5b8281106136b3575050505090565b83516001600160a01b0316855293810193928101926001016136a5565b600211156136da57565b634e487b7160e01b5f52602160045260245ffd5b51906001600160a01b03821682036103a457565b908160609103126103a457613740604080519261371e84613486565b613727816136ee565b8452613735602082016136ee565b6020850152016136ee565b604082015290565b90600182811c92168015613776575b602083101461376257565b634e487b7160e01b5f52602260045260245ffd5b91607f1691613757565b519081151582036103a457565b6040516339370aa960e21b81523060048201526020816024817f00000000000000000000000000000000000000000000000000000000000000006001600160a01b03165afa908115610399575f916137e3575090565b90506020813d60201161380a575b816137fe602093836134ef565b810103126103a4575190565b3d91506137f1565b9080601f830112156103a45781519060209161382d81613511565b9361383b60405195866134ef565b81855260208086019260051b8201019283116103a457602001905b828210613864575050505090565b81518152908301908301613856565b9190916040818403126103a45780519267ffffffffffffffff938481116103a457816138a0918401613812565b9360208301519081116103a4576138b79201613812565b90565b8051156138c75760200190565b634e487b7160e01b5f52603260045260245ffd5b8051600110156138c75760400190565b80518210156138c75760209160051b010190565b906020828203126103a457815167ffffffffffffffff81116103a4576138b79201613812565b604051906139328261346a565b8160606006546bffffffffffffffffffffffff808216845281831c16602084015263ffffffff8160c01c16604084015260e01c910152565b809103906101a082126103a457608060405192613986846134a2565b126103a4576040516139978161346a565b6139a082613780565b81526139ae60208301613780565b60208201526139bf60408301613780565b60408201526139d060608301613780565b606082015282526080810151602083015260a0810151604083015260c0810151606083015260e081015164ffffffffff811681036103a4576080830152610100908181015163ffffffff811681036103a457613a6c916101809160a086015261012093613a3e858301613780565b60c0870152613a506101408301613780565b60e0870152613a626101608301613780565b9086015201613780565b9082015290565b15613a7b5750565b6001600160a01b039063573e35eb60e11b5f521660045260245ffd5b91908201809211613aa457565b634e487b7160e01b5f52601160045260245ffd5b9061271091828102928184041490151715613aa457565b81810292918115918404141715613aa457565b8115613aec570490565b634e487b7160e01b5f52601260045260245ffd5b9080601f830112156103a457815190602091613b1b81613511565b93613b2960405195866134ef565b81855260208086019260051b8201019283116103a457602001905b828210613b52575050505090565b81516001600160a01b03811681036103a4578152908301908301613b44565b906020828203126103a457815167ffffffffffffffff81116103a4576138b79201613b00565b60405160208101917f0000000000000000000000000000000000000000000000000000000000000000835263ffffffff60e01b16604082015260248152613bdd81613486565b51902090565b91908203918211613aa457565b6040516314cb3b1f60e21b81523060048201526020816024817f00000000000000000000000000000000000000000000000000000000000000006001600160a01b03165afa908115610399575f91613c5a575b5015613c4b57565b63486aa30760e01b5f5260045ffd5b90506020813d602011613c8c575b81613c75602093836134ef565b810103126103a457613c8690613780565b5f613c43565b3d9150613c68565b604051638380edb760e01b81526020816004817f00000000000000000000000000000000000000000000000000000000000000006001600160a01b03165afa908115610399575f91613cf7575b50613ce857565b633915d7f960e21b5f5260045ffd5b90506020813d602011613d29575b81613d12602093836134ef565b810103126103a457613d2390613780565b5f613ce1565b3d9150613d05565b906001600160a01b0390811680613e845750613d6f5f357fffffffff0000000000000000000000000000000000000000000000000000000016613b97565b60405163aaabadc560e01b8152602093909184836004817f000000000000000000000000000000000000000000000000000000000000000088165afa92831561039957859385915f91613e45575b50906064929160405196879586946326f8aa2160e21b86526004860152336024860152166044840152165afa918215610399575f92613e0f575b505015613e0057565b6323dada5360e01b5f5260045ffd5b90809250813d8311613e3e575b613e2681836134ef565b810103126103a457613e3790613780565b5f80613df7565b503d613e1c565b92948092508391503d8311613e7d575b613e5f81836134ef565b810103126103a4575183811681036103a45784929084906064613dbd565b503d613e55565b9150503303613e0057565b9190613e9a836138ba565b51613ea8575050505f905f90565b613eb1836138db565b5115613efe57613ed6613ed0613edd93613eca866138ba565b51613acf565b936138db565b5190613acf565b80821191908215613ef55790613ef29161493f565b91565b613ef29161493f565b5050505f90600190565b670c7d713b49da00008111614042576007547fffffffff0000000000000000ffffffffffffffffffffffffffffffffffffffff7bffffffffffffffff00000000000000000000000000000000000000008360a01b169116176007557f74d468c8e414c37c502176a45cce93c85eaa0abf608e40641dc6664ca5efcab06020604051838152a16001600160a01b037f00000000000000000000000000000000000000000000000000000000000000001660405191602083015260208252613fcd826134d3565b803b156103a4576140265f9291839260405194858094819363c808824760e01b83527f43656e74657265646e6573734d617267696e55706461746564000000000000006004840152604060248401526044830190613406565b03925af18015610399576140375750565b614040906134bf565b565b637304fac760e01b5f5260045ffd5b6001600160a01b037f000000000000000000000000000000000000000000000000000000000000000016330361408357565b63089676d560e01b5f523360045260245ffd5b906001600160801b036140a8836149e0565b166fffffffffffffffffffffffffffffffff196140c4836149e0565b60801b16176008556040907ff36b0fd05d55ca91fb3ebd8493adf78a3405a11c145c054a092d0994b665b637828051858152836020820152a16001600160a01b037f0000000000000000000000000000000000000000000000000000000000000000169082519360208501528284015281835261414083613486565b803b156103a4576141975f93918492845195868094819363c808824760e01b83527f5669727475616c42616c616e636573557064617465640000000000000000000060048401528860248401526044830190613406565b03925af19081156141aa57506140375750565b513d5f823e3d90fd5b92919091818311801561441e575b61440f576141d66141d0613925565b946146c5565b6001600160a01b037f000000000000000000000000000000000000000000000000000000000000000016926040948551926314cb3b1f60e21b845230600485015260209384816024818a5afa908115614405575f916143c1575b506143629561435494939291156143b95761424a906146c5565b985b6bffffffffffffffffffffffff806142638c614a0b565b16825261426f83614a0b565b818884019116815263ffffffff60c01b77ffffffffffffffffffffffff0000000000000000000000006142a187614a3b565b938d86019563ffffffff80961687526142b98a614a3b565b95861660608201525116925160601b16935160c01b169163ffffffff60e01b9060e01b16921717176006557fa18562ea402e57cc2b437f8d7a139c6c38958adc1ecbb706ec37a7a64ff6e7a5818a61432e86868d51948594859094939260609260808301968352602083015260408201520152565b0390a1875198899586019094939260609260808301968352602083015260408201520152565b03601f1981018552846134ef565b803b156103a4576141975f93918492845195868094819363c808824760e01b83527f5072696365526174696f5374617465557064617465640000000000000000000060048401528860248401526044830190613406565b50809861424c565b93929190508484813d83116143fe575b6143db81836134ef565b810103126103a457614362956143f361435495613780565b919293945095614230565b503d6143d1565b88513d5f823e3d90fd5b632ca4094f60e21b5f5260045ffd5b504283106141c1565b801580156145ad575b1561459e576706f05b59d3b20000811161458f576201e6e9670de0b6b3a764000091048103908111613aa4576144658161469b565b9061446f816149e0565b73ffffffffffffffffffffffffffffffff000000006007549160201b169073ffffffffffffffffffffffffffffffff0000000019161760075560407f7ee46b38be05f748de1c0fb2002ac48fe50a26a0017c654a92c0bf9228058847818051858152846020820152a16001600160a01b037f0000000000000000000000000000000000000000000000000000000000000000168151928460208501528284015281835261451b83613486565b803b156103a4576145725f93918492845195868094819363c808824760e01b83527f4461696c79507269636553686966744578706f6e656e7455706461746564000060048401528860248401526044830190613406565b03925af19081156141aa5750614586575090565b6138b7906134bf565b632b5b4f3560e01b5f5260045ffd5b631780f45360e21b5f5260045ffd5b506201e6e9811015614430565b63ffffffff6145c842614a3b565b168063ffffffff1960075416176007557f32a9fd44bdf167703f584bd25098494d3d18a4653a2d97116d28da05209444d46020604051838152a16001600160a01b037f00000000000000000000000000000000000000000000000000000000000000001660405191602083015260208252614642826134d3565b803b156103a4576140265f9291839260405194858094819363c808824760e01b83527f4c61737454696d657374616d70557064617465640000000000000000000000006004840152604060248401526044830190613406565b670de0b6b3a764000081810391818311613aa4576201e6e98084029384041491141715613aa45790565b670de0b6b3a76400009081810290808204831490151715613aa4576146e990614a63565b818102918183041490151715613aa4576138b790614a63565b6001600160a01b037f000000000000000000000000000000000000000000000000000000000000000016301480614804575b1561475d577f000000000000000000000000000000000000000000000000000000000000000090565b60405160208101907f8b73c3c69bb8fe3d512ecc4cf759cc79239f7b179b0ffacaa9a75d522b39400f82527f000000000000000000000000000000000000000000000000000000000000000060408201527f000000000000000000000000000000000000000000000000000000000000000060608201524660808201523060a082015260a0815260c0810181811067ffffffffffffffff8211176107475760405251902090565b507f00000000000000000000000000000000000000000000000000000000000000004614614734565b614869906008546001600160801b036007549167ffffffffffffffff8360a01c16938263ffffffff85169460201c16928260801c921690614b9a565b909192565b6040516329ae7ec560e11b8152306004820152905f826024817f00000000000000000000000000000000000000000000000000000000000000006001600160a01b03165afa918215610399575f926148cb575b506148698261482d565b6148e09192503d805f833e61038b81836134ef565b905f6148c1565b91906148fc906148f6846138ba565b51615107565b91670de0b6b3a764000092830191828411613aa4576148f661491d926138db565b8201808311613aa457614934839161493b93613acf565b0480613acf565b0490565b670de0b6b3a7640000915f1983830992808302928380861095039480860395146149d357848311156149bb5790829109815f038216809204600280826003021880830282030280830282030280830282030280830282030280830282030280920290030293600183805f03040190848311900302920304170290565b82634e487b715f52156003026011186020526024601cfd5b5050906138b79250613ae2565b6001600160801b03908181116149f4571690565b6306dfcc6560e41b5f52608060045260245260445ffd5b6bffffffffffffffffffffffff90818111614a24571690565b6306dfcc6560e41b5f52606060045260245260445ffd5b63ffffffff90818111614a4c571690565b6306dfcc6560e41b5f52602060045260245260445ffd5b600180821115614b9657614b32908083700100000000000000000000000000000000811015614b7f575b80680100000000000000006004921015614b72575b640100000000811015614b65575b62010000811015614b58575b610100811015614b4c575b6010811015614b40575b1015614b39575b600302811c614ae78185613ae2565b01811c614af48185613ae2565b01811c614b018185613ae2565b01811c614b0e8185613ae2565b01811c614b1b8185613ae2565b01811c614b288185613ae2565b01901c8092613ae2565b8111900390565b811b614ad8565b811c9160021b91614ad1565b60081c91811b91614ac7565b60101c9160081b91614abc565b60201c9160101b91614ab0565b60401c9160201b91614aa2565b50680100000000000000009050608084901c614a8d565b5090565b9194939095925f94614bab42614a3b565b9063ffffffff90818316988286168a8114614f10578b829b614bcb613925565b92866bffffffffffffffffffffffff92818487511694614c058c8260208b01511699604081019a6060868d5116920199868b5116936152ae565b16965116109283614f03575b505050614d8e575b5050509067ffffffffffffffff94939291614c358a8c89613e8f565b9690911611614c47575b505050505050565b9091929497939650614c5d848a8a9b989b6148e7565b670de0b6b3a76400009586820291808304881490151715613aa457614c84614cae92614a63565b958915614d7457614c9e614c978c6138ba565b519b6138db565b51985b8a15614d6c575093615298565b169162278d0092838082109118029283811893868502948504871491141715613aa457614ce492614cde91615b65565b90615364565b91808202908282041482151715613aa457614cfe90614a63565b670de0b6b3a763ffff1992818401918211613aa457614d20614d349286614f1e565b9081808211911802189561174d8588613a97565b918101908111613aa457614d4f92611eff86611e7393615364565b9015614d6757905b90916001905f8080808080614c3f565b614d57565b905093615298565b614d87614d808c6138db565b519b6138ba565b5198614ca1565b829b50614da39291949c5080939a5088613e8f565b9990918a15614eec57614dd090614db9896138ba565b519092945b670de0b6b3a764000092818492613acf565b0493808301809311613aa4577f3fffffffffffffffffffffffffffffffffffffffffffffffffffffffffffffff85168503613aa457614e128560021b82613a97565b671bc16d674ec7ffff198101908111613aa457614e2e91613acf565b6ec097ce7bc90715b34b9f10000000008101809111613aa457614e5d92614e5761174d92614a63565b90613a97565b670de0b6b3a763ffff198301928311613aa4577f7fffffffffffffffffffffffffffffffffffffffffffffffffffffffffffffff83168303613aa457614ead610b3591614eb49460011b90613ae2565b9384613acf565b9715614eda579067ffffffffffffffff939291975b979860019790919293945f80614c19565b67ffffffffffffffff93929190614ec9565b90614dd090614efa896138db565b51909294614dbe565b51161190505f8681614c11565b5098505f9750505050505050565b90801561118d57670de0b6b3a764000091828102928184041490151715613aa4576001905f19830104019015150290565b60ff8114614f8a5760ff811690601f8211614f7b5760405191614f71836134d3565b8252602082015290565b632cd44ac360e21b5f5260045ffd5b506040515f815f5491614f9c83613748565b808352926020906001908181169081156150255750600114614fc7575b50506138b7925003826134ef565b9150925f80527f290decd9548b62a8d60345a988386fc84ba6bc95484008f6362f93160ef3e563935f925b82841061500d57506138b79450505081016020015f80614fb9565b85548785018301529485019486945092810192614ff2565b915050602092506138b794915060ff191682840152151560051b8201015f80614fb9565b60ff811461506b5760ff811690601f8211614f7b5760405191614f71836134d3565b506040515f8160019160015461508081613748565b808452936020916001811690811561502557506001146150a85750506138b7925003826134ef565b91509260015f527fb10e2d527612073b26eecdfd717e6a320cf44b4afac2b0732d9fcbe2b7fa0cf6935f925b8284106150ef57506138b79450505081016020015f80614fb9565b855487850183015294850194869450928101926150d4565b90670de0b6b3a764000091828102928184041490151715613aa4576138b791613ae2565b90670de0b6b3a76400009081810361514257505090565b671bc16d674ec80000810361515d575050806138b791615364565b673782dace9d900000810361518157505061517b816138b792615364565b80615364565b61518b91926153aa565b90600161519783613ab8565b915f19830104019015150260018101809111613aa4576138b791613a97565b91907f7fffffffffffffffffffffffffffffff5d576e7357a4501ddfe92f46681b20a0841161522d579160209360809260ff5f9560405194855216868401526040830152606082015282805260015afa15610399575f516001600160a01b0381161561522357905f905f90565b505f906001905f90565b5050505f9160039190565b60048110156136da578061524a575050565b600181036152615763f645eedf60e01b5f5260045ffd5b6002810361527c575063fce698f760e01b5f5260045260245ffd5b6003146152865750565b6335e2f38360e21b5f5260045260245ffd5b63ffffffff9182169082160391908211613aa457565b90939192919063ffffffff9081811682841681106152d0575050505050905090565b828516101561535c5783826152eb6152f9966152f294615298565b1693615298565b1690615107565b916bffffffffffffffffffffffff8091169116670de0b6b3a764000080820293828504821483151715613aa45761533f6153459161533a866138b798613ae2565b615b65565b84613acf565b049181808210911802188180821191180218614a0b565b505050505090565b9061536e91613acf565b6001670de0b6b3a76400005f19830104019015150290565b8015613aec576ec097ce7bc90715b34b9f10000000000590565b8115613aec570590565b908015615b57578115615b51578160ff1c615b4357770bce5086492111aea88f4bb1ca6bcf584181ea8059f76532811015615b345781670c7d713b49da00001280615b23575b156157d657670de0b6b3a7640000916ec097ce7bc90715b34b9f100000000090615433908402828101906ec097ce7bc90715b34b9f0fffffffff190183026153a0565b9080828002059181838202058284820205838582020591848684020593858786020595808888020597880205600f900596600d900595600b900594600990059360079005926005900591600390050101010101010160011b918082818507020592050201670de0b6b3a7640000905b05680238fd42c5cf03ffff1981811315806157c3575b156157b4578190821215806157a1575b15615792575f915f8112615783575b506064906806f05b59d3b20000008112615736576806f05b59d3b1ffffff190168056bc75e2d6310000082770195e54c5dd42177f53a27172fa9ec630262827000000000925b02819068ad78ebc5ac62000000811215615713575b806856bc75e2d631000000849212156156ef575b682b5e3af16b188000008112156156cd575b6815af1d78b58c4000008112156156ab575b680ad78ebc5ac620000081121561568a575b81811215615669575b6802b5e3af16b1880000811215615648575b68015af1d78b58c40000811215615627575b60028282800205056003838383020505600484848302050560058585830205056006868683020505600787878302050590600888888402050592600989898602050594600a8a8a8802050596600b8b8b8a02050598600c8c8c8c0205059a01010101010101010101010102050205905f146138b7576138b790615386565b6806f5f1775788937937829168015af1d78b58c3ffff1901930205916155a9565b6808f00f760a4b2db55d82916802b5e3af16b187ffff190193020591615597565b680ebc5fb41746121110829168056bc75e2d630fffff190193020591615585565b68280e60114edb805d038291680ad78ebc5ac61fffff19019302059161557c565b690127fa27722cc06cc5e282916815af1d78b58c3fffff19019302059161556a565b693f1fce3da636ea5cf8508291682b5e3af16b187fffff190193020591615558565b6b02df0ab5a80a22c61ab5a70082916856bc75e2d630ffffff190193020591615546565b6e01855144814a7ff805980ff0084000915068ad78ebc5ac61ffffff1901615532565b6803782dace9d90000008112615770576803782dace9d8ffffff190168056bc75e2d63100000826b1425982cf597cd205cef73809261551d565b68056bc75e2d631000008260019261551d565b600192505f03905060646154d7565b63d4794efd60e01b5f5260045ffd5b5068070c1cc73b00c800008213156154c8565b63a2f9f7e360e01b5f5260045ffd5b5068070c1cc73b00c800008213156154b8565b81670de0b6b3a7640000925f91848112615b0d575b506064905f7e1600ef3172e58d2e933ec884fde10064c63b5372d805e203c0000000000000821215615ae2575b73011798004d755d3c8bc8e03204cf44619e000000821215615ac1575b820290808302906e01855144814a7ff805980ff00840009081831215615a9e575b50506b02df0ab5a80a22c61ab5a70080821215615a7e575b50693f1fce3da636ea5cf85080821215615a5e575b50690127fa27722cc06cc5e280821215615a3e575b5068280e60114edb805d0380821215615a1e575b50680ebc5fb4174612111080821215615a07575b506808f00f760a4b2db55d808212156159e7575b506806f5f1775788937937808212156159c7575b506806248f33704b286603808212156159a8575b506805c548670b9510e7ac80821215615989575b5061593668056bc75e2d6310000091828082019168056bc75e2d630fffff1901026153a0565b9080828002059181838202058284820205916003600560076009600b888a89020598808b8b02059a8b0205059805960594059205010101010160011b0105905f14615984575f035b026154a2565b61597e565b68056bc75e2d631000006756bc75e2d63100009202059101905f615910565b68056bc75e2d6310000067ad78ebc5ac6200009202059101905f6158fc565b68056bc75e2d6310000068015af1d78b58c400009202059101905f6158e8565b68056bc75e2d631000006802b5e3af16b18800009202059101905f6158d4565b68056bc75e2d63100000809202059101905f6158c0565b68056bc75e2d63100000680ad78ebc5ac62000009202059101905f6158ac565b68056bc75e2d631000006815af1d78b58c4000009202059101905f615898565b68056bc75e2d63100000682b5e3af16b188000009202059101905f615883565b68056bc75e2d631000006856bc75e2d6310000009202059101905f61586e565b68ad78ebc5ac62000000925069021e19e0c9bab240000002059101905f80615856565b906b1425982cf597cd205cef73806803782dace9d900000091059101615835565b50770195e54c5dd42177f53a27172fa9ec63026282700000000090056806f05b59d3b2000000615818565b9050615b199150615386565b60019060646157eb565b50670f43fc2c04ee000082126153f0565b63d831731160e01b5f5260045ffd5b6211380f60e51b5f5260045ffd5b50505f90565b5050670de0b6b3a764000090565b670de0b6b3a764000091808303615b7c5750905090565b8290671bc16d674ec800008103615b995750508061493b91613acf565b673782dace9d9000008103615bb657506149348261493b93613acf565b9050615bc1916153aa565b615bca81613ab8565b60015f19938483010401901515029060018201808311613aa457811015615bf2575050505f90565b03019056fea264697066735822122083af55d98d4b0ad9beee827cfff6c3c02ad80a605d353bf1a8b897ae5052ec4664736f6c634300081b0033c2575a0e9e593c00f959f8c92f12db2869c3395a3b0502d05e2516446f71f85b8a35acfbc15ff81a39ae7d344fd709f28e8600b4aa8c65c6b64bfe7fe36bd19b",
  "linkReferences": {},
  "deployedLinkReferences": {}
}