{
  "_format": "hh-sol-artifact-1",
  "contractName": "ReClammPoolHelper",
  "sourceName": "contracts/ReClammPoolHelper.sol",
  "abi": [
    {
      "inputs": [
        {
          "internalType": "contract IVault",
          "name": "vault_",
          "type": "address"
        }
      ],
      "stateMutability": "nonpayable",
      "type": "constructor"
    },
    {
      "inputs": [],
      "name": "BalanceRatioExceedsTolerance",
      "type": "error"
    },
    {
      "inputs": [],
      "name": "InvalidToken",
      "type": "error"
    },
    {
      "inputs": [],
      "name": "WrongInitializationPrices",
      "type": "error"
    },
    {
      "inputs": [],
      "name": "BALANCE_RATIO_AND_PRICE_TOLERANCE",
      "outputs": [
        {
          "internalType": "uint256",
          "name": "",
          "type": "uint256"
        }
      ],
      "stateMutability": "view",
      "type": "function"
    },
    {
      "inputs": [
        {
          "internalType": "uint256[]",
          "name": "balancesScaled18",
          "type": "uint256[]"
        },
        {
          "internalType": "uint256[]",
          "name": "theoreticalBalances",
          "type": "uint256[]"
        }
      ],
      "name": "checkInitializationBalanceRatio",
      "outputs": [],
      "stateMutability": "pure",
      "type": "function"
    },
    {
      "inputs": [
        {
          "internalType": "address",
          "name": "pool",
          "type": "address"
        }
      ],
      "name": "computeCurrentSpotPrice",
      "outputs": [
        {
          "internalType": "uint256",
          "name": "",
          "type": "uint256"
        }
      ],
      "stateMutability": "view",
      "type": "function"
    },
    {
      "inputs": [
        {
          "internalType": "contract IReClammPool",
          "name": "pool",
          "type": "address"
        },
        {
          "internalType": "uint256",
          "name": "rateA",
          "type": "uint256"
        },
        {
          "internalType": "uint256",
          "name": "rateB",
          "type": "uint256"
        }
      ],
      "name": "computeInitialBalanceRatioScaled18",
      "outputs": [
        {
          "internalType": "uint256",
          "name": "",
          "type": "uint256"
        }
      ],
      "stateMutability": "view",
      "type": "function"
    },
    {
      "inputs": [
        {
          "internalType": "contract IReClammPool",
          "name": "pool",
          "type": "address"
        },
        {
          "internalType": "contract IERC20",
          "name": "referenceToken",
          "type": "address"
        },
        {
          "internalType": "uint256",
          "name": "referenceAmountInRaw",
          "type": "uint256"
        }
      ],
      "name": "computeInitialBalancesRaw",
      "outputs": [
        {
          "internalType": "uint256[]",
          "name": "initialBalancesRaw",
          "type": "uint256[]"
        }
      ],
      "stateMutability": "view",
      "type": "function"
    },
    {
      "inputs": [
        {
          "internalType": "uint256[]",
          "name": "balancesScaled18",
          "type": "uint256[]"
        },
        {
          "internalType": "uint256",
          "name": "rateA",
          "type": "uint256"
        },
        {
          "internalType": "uint256",
          "name": "rateB",
          "type": "uint256"
        }
      ],
      "name": "computeInitialVirtualBalancesAndRatio",
      "outputs": [
        {
          "internalType": "uint256",
          "name": "",
          "type": "uint256"
        },
        {
          "internalType": "uint256",
          "name": "",
          "type": "uint256"
        },
        {
          "internalType": "uint256",
          "name": "",
          "type": "uint256"
        }
      ],
      "stateMutability": "view",
      "type": "function"
    },
    {
      "inputs": [
        {
          "internalType": "address",
          "name": "pool",
          "type": "address"
        }
      ],
      "name": "getTokenRates",
      "outputs": [
        {
          "internalType": "uint256",
          "name": "rateA",
          "type": "uint256"
        },
        {
          "internalType": "uint256",
          "name": "rateB",
          "type": "uint256"
        }
      ],
      "stateMutability": "view",
      "type": "function"
    },
    {
      "inputs": [],
      "name": "vault",
      "outputs": [
        {
          "internalType": "contract IVault",
          "name": "",
          "type": "address"
        }
      ],
      "stateMutability": "view",
      "type": "function"
    }
  ],
  "bytecode": "0x60a03461007e57601f6115dd38819003918201601f19168301916001600160401b038311848410176100825780849260209460405283398101031261007e57516001600160a01b038116810361007e576080526040516115469081610097823960805181818160960152818161011f0152818161046701526110f40152f35b5f80fd5b634e487b7160e01b5f52604160045260245ffdfe6080604090808252600480361015610015575f80fd5b5f3560e01c918263069f9d09146107dd5750816327c08881146104145781633a2f10e3146103be5781634a7dbc7e1461039e578163afdc2a211461033a578163e877156a146100f7578163f5157486146100be575063fbfa77cf14610078575f80fd5b346100ba575f3660031901126100ba57602090516001600160a01b037f0000000000000000000000000000000000000000000000000000000000000000168152f35b5f80fd5b9050346100ba5760203660031901126100ba57356001600160a01b03811681036100ba576100eb906110c5565b82519182526020820152f35b82346100ba5760203660031901126100ba5781356001600160a01b038082168092036100ba577f00000000000000000000000000000000000000000000000000000000000000001692825191633f1b0def60e11b835280828401525f83602481885afa9283156102cc575f936102d6575b505f6024958551968780926329ae7ec560e11b825285878301525afa9485156102cc575f95610287575b50606090845192838092634f149b3f60e01b82525afa801561027d575f915f91610212575b5061020b926101fe6101f887946101dc6101f26101e2610205976101dc60209d610b46565b51610c91565b6101eb87610b25565b5190610cbb565b96610b25565b91610b46565b519061129a565b90610cce565b9051908152f35b949150506060843d606011610275575b8161022f60609383610a9d565b810103126100ba5761020561020b926101fe6101f8876101dc6101f26101e260209b516102618c8e8701519601610c84565b9094905097505050509497505050926101b7565b3d9150610222565b83513d5f823e3d90fd5b9094503d805f833e6102998183610a9d565b8101906020818303126100ba5780519167ffffffffffffffff83116100ba576060926102c59201610c23565b9490610192565b84513d5f823e3d90fd5b9492503d805f873e6102e88187610a9d565b85019484818703126100ba5780519067ffffffffffffffff918281116100ba5787610314918301610c23565b9060208101519283116100ba576024975f936103309201610c23565b9050939550610168565b82346100ba573660031901126100ba5767ffffffffffffffff81358181116100ba576103699036908401610a26565b90916024359081116100ba57366023820112156100ba5761039c9381602461039693369301359101610ad7565b91611006565b005b82346100ba575f3660031901126100ba5760209051655af3107a40008152f35b82346100ba5760603660031901126100ba5760209061020b6103f76103f16103e4610a57565b6044359060243590610cec565b91610eec565b50505061040d61040682610b46565b5191610b25565b51906110a1565b9050346100ba5760603660031901126100ba5761042f610a57565b60249283356001600160a01b03908181168091036100ba57825163ca4f280360e01b815284831686820181905294604435935f838a817f000000000000000000000000000000000000000000000000000000000000000085165afa9283156107d3575f93610793575b5083816104a485610b25565b511603610789575f936001925b6001986001871480610774575b610766578a9392916104e26103f76104d86103f1946110c5565b8181969295610cec565b92846104ed89610b25565b5116036107605790925b806105028989610b56565b5116908a519788928363313ce56760e01b9889825260209b8c935afa9283156107565789929189915f95610731575b509061053c91610b56565b5116958d8c518098819382525afa948515610727575f956106f5575b5060ff1660120390601282116106e3579061058f6105849261058a670de0b6b3a7640000948594610c15565b8c610cbb565b610cbb565b049089519761059d89610a6d565b60028952878901998b368c376105b3828b610b56565b526106dc5760015b908160031461069a578160011461067957506002146105e6578b60518c634e487b7160e01b5f52525ffd5b60ff916105fd919c939597999b9496989a9c61129a565b945b16601203916012831161066857888a8c898b8a61063361062c8c6106268d61058a8e610c15565b906110a1565b9183610b56565b528351938285019183865251809252840194915f5b8281106106555785870386f35b8351875295810195928101928401610648565b601190634e487b7160e01b5f52525ffd5b9161069391509260ff939d9496989a9c9597999b9d610cbb565b04946105ff565b82819392509d9496989a9c9597999b9d029181830414901517156106ca5760ff916106c491610cce565b946105ff565b82601185634e487b7160e01b5f52525ffd5b60036105bb565b8c60118d634e487b7160e01b5f52525ffd5b60ff91955061071990883d8a11610720575b6107118183610a9d565b810190610bdb565b9490610558565b503d610707565b8a513d5f823e3d90fd5b61053c9291955061074e90853d8711610720576107118183610a9d565b949091610531565b8c513d5f823e3d90fd5b926104f7565b8a63c1ab6dc160e01b5f525ffd5b508361077f87610b46565b51168314156104be565b6001935f926104b1565b9092503d805f833e6107a58183610a9d565b81016020828203126100ba57815167ffffffffffffffff81116100ba576107cc9201610b6a565b915f610498565b86513d5f823e3d90fd5b8382346100ba5760603660031901126100ba5767ffffffffffffffff9181358381116100ba576108109036908401610a26565b9490926024958635916044359661012085019085821090821117610a14578552848401955f875260608501925f845260808601945f865260a08701906060825260c08801905f825260e089019b5f8d52806101008b019a5f8c5283815260200152339161087c92610cec565b90818a52808952828d5261088f92610eec565b8b528d5282528083526108a3908486611006565b8215610a0257908392916108e86108ca6108c36108e09897359451610b25565b51846110a1565b8092670de0b6b3a7640000988994859251610cbb565b049d51610cbb565b049951955196519082600110156109f05783929161091f610924926106268f8f61091990602061092b9b0135610c91565b92610c91565b6112bc565b3691610ad7565b6109628361095261093f8c6101dc86610b25565b61094c8c6101dc87610b46565b90610cbb565b0461095d8a80610cbb565b610cce565b996109768a61097084610b25565b516110a1565b8401918285116109dd578961097061098d92610b46565b84019283851161066857505092826109c58b826109bf60609e976109b861091f986109cc9c9b610cbb565b0480610cbb565b04610cbb565b04926112bc565b519181519384526020840152820152f35b50634e487b7160e01b5f90815260118452fd5b8c603286634e487b7160e01b5f52525ffd5b8b603286634e487b7160e01b5f52525ffd5b88604183634e487b7160e01b5f52525ffd5b9181601f840112156100ba5782359167ffffffffffffffff83116100ba576020808501948460051b0101116100ba57565b600435906001600160a01b03821682036100ba57565b6060810190811067ffffffffffffffff821117610a8957604052565b634e487b7160e01b5f52604160045260245ffd5b90601f8019910116810190811067ffffffffffffffff821117610a8957604052565b67ffffffffffffffff8111610a895760051b60200190565b9291610ae282610abf565b91610af06040519384610a9d565b829481845260208094019160051b81019283116100ba57905b828210610b165750505050565b81358152908301908301610b09565b805115610b325760200190565b634e487b7160e01b5f52603260045260245ffd5b805160011015610b325760400190565b8051821015610b325760209160051b010190565b9080601f830112156100ba57815190602091610b8581610abf565b93610b936040519586610a9d565b81855260208086019260051b8201019283116100ba57602001905b828210610bbc575050505090565b81516001600160a01b03811681036100ba578152908301908301610bae565b908160209103126100ba575160ff811681036100ba5790565b91908203918211610c0157565b634e487b7160e01b5f52601160045260245ffd5b604d8111610c0157600a0a90565b9080601f830112156100ba57815190602091610c3e81610abf565b93610c4c6040519586610a9d565b81855260208086019260051b8201019283116100ba57602001905b828210610c75575050505090565b81518152908301908301610c67565b519081151582036100ba57565b91908201809211610c0157565b90670de0b6b3a764000091828102928184041490151715610c0157565b81810292918115918404141715610c0157565b8115610cd8570490565b634e487b7160e01b5f52601260045260245ffd5b604080516307f118b960e41b8152939492915f90859060049082906001600160a01b03165afa938415610ee2575f94610d94575b5083015115610d8e5750670de0b6b3a7640000925b606083015115610d845750610d81670de0b6b3a7640000935b61095d610d638261095d8860c0890151610cbb565b95610100610d798461095d8460e08b0151610cbb565b960151610cbb565b90565b610d819093610d4e565b92610d35565b9093503d805f833e610da68183610a9d565b8101906020818303126100ba57805167ffffffffffffffff918282116100ba5701906102609283838203126100ba57865193840184811083821117610a8957875282518281116100ba5781610dfc918501610b6a565b845260208301519182116100ba57610e15918301610c23565b6020830152610e25858201610c84565b85830152610e3560608201610c84565b60608301526080810151608083015260a081015160a083015260c081015160c083015260e081015160e0830152610100808201519083015261012080820151908301526101408082015190830152610160808201519083015261018080820151908301526101a080820151908301526101c080820151908301526101e08082015190830152610200808201519083015261022080820151908301526102408091015190820152925f610d20565b50513d5f823e3d90fd5b9291908361095d610efc92610c9e565b610f0d610f0882610c9e565b6113dd565b670de0b6b3a763ffff198101908111610c01578015610cd857710b7abc627050305adf14a3d9e40000000000049269d3c21bcecceda10000009485850190818611610c0157610f66670de0b6b3a7640000928392610cbb565b049360405191610f7583610a6d565b6002835260403660208501378297610f8d878461129a565b90888101809111610c0157610fa19161129a565b9181830292808404831490151715610c0157610ff8610ffd92610fcf89610fca611003976113dd565b610bf4565b610fd887610b46565b52610fe6896101dc88610b46565b90610ff1848c610cbb565b0490610bf4565b6110a1565b91610b25565b52565b908060011015610b325715610b325761102881602061103593359101356110a1565b9161040d61040682610b46565b90670de05bc096e9c00080830283159184820414821715610c0157670de0b6b3a764000091670de111a6b7de4000808602958604141715610c01578190048210928315611095575b50505061108657565b6304f512cb60e41b5f5260045ffd5b041090505f808061107d565b90670de0b6b3a764000091828102928184041490151715610c0157610d8191610cce565b906001600160a01b03916040928351906333f0703b60e11b8252806004931660048301526024915f81602481857f0000000000000000000000000000000000000000000000000000000000000000165afa958615611291575f96611147575b5050505050610d8161113b61114161113b85610b25565b51611345565b93610b46565b9091929395503d805f843e61115c8184610a9d565b8201906080838303126100ba5782519667ffffffffffffffff978881116100ba5783611189918601610b6a565b956020808601518a81116100ba5786019185601f840112156100ba578251936111b185610abf565b986111be87519a8b610a9d565b858a52838a0192846060809802870101958987116100ba578501935b8685106112235750505050505050508201518681116100ba57816111ff918401610c23565b9560608301519081116100ba576112169201610c23565b915092505f808080611124565b87858b03126100ba578e90895191898301908382109082111761127f578a52855160028110156100ba578252868601519084821682036100ba57828892838c9501526112708c8901610c84565b8c8201528152019401936111da565b83604187634e487b7160e01b5f52525ffd5b513d5f823e3d90fd5b906112a491610cbb565b6001670de0b6b3a76400005f19830104019015150290565b670de05bc096e9c00080830283159184820414821715610c0157670de0b6b3a764000091670de111a6b7de4000808602958604141715610c0157819004821092831561131b575b50505061130c57565b633d9f09df60e21b5f5260045ffd5b041090505f8080611303565b6002111561133157565b634e487b7160e01b5f52602160045260245ffd5b6001815161135281611327565b61135b81611327565b036113d05760206001600160a01b0381600493015116604051928380926333cd77e760e11b82525afa9081156113c5575f91611396575b5090565b90506020813d6020116113bd575b816113b160209383610a9d565b810103126100ba575190565b3d91506113a4565b6040513d5f823e3d90fd5b50670de0b6b3a764000090565b600180821115611392576114ac9080837001000000000000000000000000000000008110156114f9575b806801000000000000000060049210156114ec575b6401000000008110156114df575b620100008110156114d2575b6101008110156114c6575b60108110156114ba575b10156114b3575b600302811c6114618185610cce565b01811c61146e8185610cce565b01811c61147b8185610cce565b01811c6114888185610cce565b01811c6114958185610cce565b01811c6114a28185610cce565b01901c8092610cce565b8111900390565b811b611452565b811c9160021b9161144b565b60081c91811b91611441565b60101c9160081b91611436565b60201c9160101b9161142a565b60401c9160201b9161141c565b50680100000000000000009050608084901c61140756fea26469706673582212209b65fdbbbe46f1a692dd326b4efead802c57e0a129593a1d687c98def5770ed564736f6c634300081b0033",
  "linkReferences": {},
  "deployedLinkReferences": {}
}